{
	"project-04/contracts/contract.sol": {
		"SharedShoppingList": {
			"abi": [
				{
					"anonymous": false,
					"inputs": [
						{
							"indexed": true,
							"internalType": "uint256",
							"name": "listId",
							"type": "uint256"
						},
						{
							"indexed": false,
							"internalType": "string",
							"name": "itemName",
							"type": "string"
						},
						{
							"indexed": false,
							"internalType": "uint256",
							"name": "quantity",
							"type": "uint256"
						},
						{
							"indexed": true,
							"internalType": "address",
							"name": "addedBy",
							"type": "address"
						}
					],
					"name": "ItemAdded",
					"type": "event"
				},
				{
					"anonymous": false,
					"inputs": [
						{
							"indexed": true,
							"internalType": "uint256",
							"name": "listId",
							"type": "uint256"
						},
						{
							"indexed": false,
							"internalType": "string",
							"name": "listName",
							"type": "string"
						},
						{
							"indexed": true,
							"internalType": "address",
							"name": "creator",
							"type": "address"
						}
					],
					"name": "ShoppingListCreated",
					"type": "event"
				},
				{
					"inputs": [
						{
							"internalType": "uint256",
							"name": "_listId",
							"type": "uint256"
						},
						{
							"internalType": "string",
							"name": "_itemName",
							"type": "string"
						},
						{
							"internalType": "uint256",
							"name": "_quantity",
							"type": "uint256"
						}
					],
					"name": "addItemToList",
					"outputs": [],
					"stateMutability": "nonpayable",
					"type": "function"
				},
				{
					"inputs": [
						{
							"internalType": "string",
							"name": "_listName",
							"type": "string"
						},
						{
							"internalType": "address[]",
							"name": "_members",
							"type": "address[]"
						}
					],
					"name": "createShoppingList",
					"outputs": [
						{
							"internalType": "uint256",
							"name": "",
							"type": "uint256"
						}
					],
					"stateMutability": "nonpayable",
					"type": "function"
				},
				{
					"inputs": [
						{
							"internalType": "uint256",
							"name": "_listId",
							"type": "uint256"
						}
					],
					"name": "getListItems",
					"outputs": [
						{
							"components": [
								{
									"internalType": "string",
									"name": "name",
									"type": "string"
								},
								{
									"internalType": "uint256",
									"name": "quantity",
									"type": "uint256"
								},
								{
									"internalType": "address",
									"name": "addedBy",
									"type": "address"
								},
								{
									"internalType": "bool",
									"name": "isPurchased",
									"type": "bool"
								}
							],
							"internalType": "struct SharedShoppingList.ListItem[]",
							"name": "",
							"type": "tuple[]"
						}
					],
					"stateMutability": "view",
					"type": "function"
				},
				{
					"inputs": [
						{
							"internalType": "uint256",
							"name": "",
							"type": "uint256"
						},
						{
							"internalType": "address",
							"name": "",
							"type": "address"
						}
					],
					"name": "listAccess",
					"outputs": [
						{
							"internalType": "bool",
							"name": "",
							"type": "bool"
						}
					],
					"stateMutability": "view",
					"type": "function"
				},
				{
					"inputs": [
						{
							"internalType": "uint256",
							"name": "",
							"type": "uint256"
						}
					],
					"name": "sharedLists",
					"outputs": [
						{
							"internalType": "string",
							"name": "listName",
							"type": "string"
						},
						{
							"internalType": "uint256",
							"name": "itemCount",
							"type": "uint256"
						}
					],
					"stateMutability": "view",
					"type": "function"
				}
			],
			"devdoc": {
				"kind": "dev",
				"methods": {},
				"version": 1
			},
			"evm": {
				"assembly": "    /* \"project-04/contracts/contract.sol\":57:3715  contract SharedShoppingList {... */\n  mstore(0x40, 0x80)\n  callvalue\n  dup1\n  iszero\n  tag_1\n  jumpi\n  0x00\n  dup1\n  revert\ntag_1:\n  pop\n  dataSize(sub_0)\n  dup1\n  dataOffset(sub_0)\n  0x00\n  codecopy\n  0x00\n  return\nstop\n\nsub_0: assembly {\n        /* \"project-04/contracts/contract.sol\":57:3715  contract SharedShoppingList {... */\n      mstore(0x40, 0x80)\n      callvalue\n      dup1\n      iszero\n      tag_1\n      jumpi\n      0x00\n      dup1\n      revert\n    tag_1:\n      pop\n      jumpi(tag_2, lt(calldatasize, 0x04))\n      shr(0xe0, calldataload(0x00))\n      dup1\n      0x1c7be33a\n      eq\n      tag_3\n      jumpi\n      dup1\n      0x55adb521\n      eq\n      tag_4\n      jumpi\n      dup1\n      0x971bb8a5\n      eq\n      tag_5\n      jumpi\n      dup1\n      0xff7920d7\n      eq\n      tag_6\n      jumpi\n      dup1\n      0xffe33669\n      eq\n      tag_7\n      jumpi\n    tag_2:\n      0x00\n      dup1\n      revert\n        /* \"project-04/contracts/contract.sol\":1115:2144  function createShoppingList(string memory _listName, address[] memory _members) public returns (uint256) {... */\n    tag_3:\n      tag_8\n      0x04\n      dup1\n      calldatasize\n      sub\n      dup2\n      add\n      swap1\n      tag_9\n      swap2\n      swap1\n      tag_10\n      jump\t// in\n    tag_9:\n      tag_11\n      jump\t// in\n    tag_8:\n      mload(0x40)\n      tag_12\n      swap2\n      swap1\n      tag_13\n      jump\t// in\n    tag_12:\n      mload(0x40)\n      dup1\n      swap2\n      sub\n      swap1\n      return\n        /* \"project-04/contracts/contract.sol\":3285:3713  function getListItems(uint256 _listId) public view returns (ListItem[] memory) {... */\n    tag_4:\n      tag_14\n      0x04\n      dup1\n      calldatasize\n      sub\n      dup2\n      add\n      swap1\n      tag_15\n      swap2\n      swap1\n      tag_16\n      jump\t// in\n    tag_15:\n      tag_17\n      jump\t// in\n    tag_14:\n      mload(0x40)\n      tag_18\n      swap2\n      swap1\n      tag_19\n      jump\t// in\n    tag_18:\n      mload(0x40)\n      dup1\n      swap2\n      sub\n      swap1\n      return\n        /* \"project-04/contracts/contract.sol\":608:670  mapping(uint256 => mapping(address => bool)) public listAccess */\n    tag_5:\n      tag_20\n      0x04\n      dup1\n      calldatasize\n      sub\n      dup2\n      add\n      swap1\n      tag_21\n      swap2\n      swap1\n      tag_22\n      jump\t// in\n    tag_21:\n      tag_23\n      jump\t// in\n    tag_20:\n      mload(0x40)\n      tag_24\n      swap2\n      swap1\n      tag_25\n      jump\t// in\n    tag_24:\n      mload(0x40)\n      dup1\n      swap2\n      sub\n      swap1\n      return\n        /* \"project-04/contracts/contract.sol\":518:551  ShoppingList[] public sharedLists */\n    tag_6:\n      tag_26\n      0x04\n      dup1\n      calldatasize\n      sub\n      dup2\n      add\n      swap1\n      tag_27\n      swap2\n      swap1\n      tag_16\n      jump\t// in\n    tag_27:\n      tag_28\n      jump\t// in\n    tag_26:\n      mload(0x40)\n      tag_29\n      swap3\n      swap2\n      swap1\n      tag_30\n      jump\t// in\n    tag_29:\n      mload(0x40)\n      dup1\n      swap2\n      sub\n      swap1\n      return\n        /* \"project-04/contracts/contract.sol\":2207:3225  function addItemToList(... */\n    tag_7:\n      tag_31\n      0x04\n      dup1\n      calldatasize\n      sub\n      dup2\n      add\n      swap1\n      tag_32\n      swap2\n      swap1\n      tag_33\n      jump\t// in\n    tag_32:\n      tag_34\n      jump\t// in\n    tag_31:\n      stop\n        /* \"project-04/contracts/contract.sol\":1115:2144  function createShoppingList(string memory _listName, address[] memory _members) public returns (uint256) {... */\n    tag_11:\n        /* \"project-04/contracts/contract.sol\":1211:1218  uint256 */\n      0x00\n        /* \"project-04/contracts/contract.sol\":1319:1320  0 */\n      dup1\n        /* \"project-04/contracts/contract.sol\":1299:1308  _listName */\n      dup4\n        /* \"project-04/contracts/contract.sol\":1293:1316  bytes(_listName).length */\n      mload\n        /* \"project-04/contracts/contract.sol\":1293:1320  bytes(_listName).length > 0 */\n      gt\n        /* \"project-04/contracts/contract.sol\":1285:1350  require(bytes(_listName).length > 0, \"List name cannot be empty\") */\n      tag_36\n      jumpi\n      mload(0x40)\n      0x08c379a000000000000000000000000000000000000000000000000000000000\n      dup2\n      mstore\n      0x04\n      add\n      tag_37\n      swap1\n      tag_38\n      jump\t// in\n    tag_37:\n      mload(0x40)\n      dup1\n      swap2\n      sub\n      swap1\n      revert\n    tag_36:\n        /* \"project-04/contracts/contract.sol\":1386:1387  0 */\n      0x00\n        /* \"project-04/contracts/contract.sol\":1368:1376  _members */\n      dup3\n        /* \"project-04/contracts/contract.sol\":1368:1383  _members.length */\n      mload\n        /* \"project-04/contracts/contract.sol\":1368:1387  _members.length > 0 */\n      gt\n        /* \"project-04/contracts/contract.sol\":1360:1423  require(_members.length > 0, \"At least one member is required\") */\n      tag_39\n      jumpi\n      mload(0x40)\n      0x08c379a000000000000000000000000000000000000000000000000000000000\n      dup2\n      mstore\n      0x04\n      add\n      tag_40\n      swap1\n      tag_41\n      jump\t// in\n    tag_40:\n      mload(0x40)\n      dup1\n      swap2\n      sub\n      swap1\n      revert\n    tag_39:\n        /* \"project-04/contracts/contract.sol\":1472:1489  uint256 newListId */\n      0x00\n        /* \"project-04/contracts/contract.sol\":1492:1503  sharedLists */\n      dup1\n        /* \"project-04/contracts/contract.sol\":1492:1510  sharedLists.length */\n      dup1\n      sload\n      swap1\n      pop\n        /* \"project-04/contracts/contract.sol\":1472:1510  uint256 newListId = sharedLists.length */\n      swap1\n      pop\n        /* \"project-04/contracts/contract.sol\":1520:1548  ShoppingList storage newList */\n      0x00\n        /* \"project-04/contracts/contract.sol\":1551:1562  sharedLists */\n      dup1\n        /* \"project-04/contracts/contract.sol\":1551:1569  sharedLists.push() */\n      0x01\n      dup2\n      0x01\n      dup2\n      sload\n      add\n      dup1\n      dup3\n      sstore\n      dup1\n      swap2\n      pop\n      pop\n      sub\n      swap1\n      0x00\n      mstore\n      keccak256(0x00, 0x20)\n      swap1\n      0x04\n      mul\n      add\n        /* \"project-04/contracts/contract.sol\":1520:1569  ShoppingList storage newList = sharedLists.push() */\n      swap1\n      pop\n        /* \"project-04/contracts/contract.sol\":1598:1607  _listName */\n      dup5\n        /* \"project-04/contracts/contract.sol\":1579:1586  newList */\n      dup2\n        /* \"project-04/contracts/contract.sol\":1579:1595  newList.listName */\n      0x00\n      add\n        /* \"project-04/contracts/contract.sol\":1579:1607  newList.listName = _listName */\n      swap1\n      dup2\n      tag_43\n      swap2\n      swap1\n      tag_44\n      jump\t// in\n    tag_43:\n      pop\n        /* \"project-04/contracts/contract.sol\":1665:1672  newList */\n      dup1\n        /* \"project-04/contracts/contract.sol\":1665:1680  newList.members */\n      0x01\n      add\n        /* \"project-04/contracts/contract.sol\":1686:1696  msg.sender */\n      caller\n        /* \"project-04/contracts/contract.sol\":1665:1697  newList.members.push(msg.sender) */\n      swap1\n      dup1\n      0x01\n      dup2\n      sload\n      add\n      dup1\n      dup3\n      sstore\n      dup1\n      swap2\n      pop\n      pop\n      0x01\n      swap1\n      sub\n      swap1\n      0x00\n      mstore\n      keccak256(0x00, 0x20)\n      add\n      0x00\n      swap1\n      swap2\n      swap1\n      swap2\n      swap1\n      swap2\n      0x0100\n      exp\n      dup2\n      sload\n      dup2\n      0xffffffffffffffffffffffffffffffffffffffff\n      mul\n      not\n      and\n      swap1\n      dup4\n      0xffffffffffffffffffffffffffffffffffffffff\n      and\n      mul\n      or\n      swap1\n      sstore\n      pop\n        /* \"project-04/contracts/contract.sol\":1743:1747  true */\n      0x01\n        /* \"project-04/contracts/contract.sol\":1707:1717  listAccess */\n      dup1\n        /* \"project-04/contracts/contract.sol\":1707:1728  listAccess[newListId] */\n      0x00\n        /* \"project-04/contracts/contract.sol\":1718:1727  newListId */\n      dup5\n        /* \"project-04/contracts/contract.sol\":1707:1728  listAccess[newListId] */\n      dup2\n      mstore\n      0x20\n      add\n      swap1\n      dup2\n      mstore\n      0x20\n      add\n      0x00\n      keccak256\n        /* \"project-04/contracts/contract.sol\":1707:1740  listAccess[newListId][msg.sender] */\n      0x00\n        /* \"project-04/contracts/contract.sol\":1729:1739  msg.sender */\n      caller\n        /* \"project-04/contracts/contract.sol\":1707:1740  listAccess[newListId][msg.sender] */\n      0xffffffffffffffffffffffffffffffffffffffff\n      and\n      0xffffffffffffffffffffffffffffffffffffffff\n      and\n      dup2\n      mstore\n      0x20\n      add\n      swap1\n      dup2\n      mstore\n      0x20\n      add\n      0x00\n      keccak256\n      0x00\n        /* \"project-04/contracts/contract.sol\":1707:1747  listAccess[newListId][msg.sender] = true */\n      0x0100\n      exp\n      dup2\n      sload\n      dup2\n      0xff\n      mul\n      not\n      and\n      swap1\n      dup4\n      iszero\n      iszero\n      mul\n      or\n      swap1\n      sstore\n      pop\n        /* \"project-04/contracts/contract.sol\":1805:1814  uint256 i */\n      0x00\n        /* \"project-04/contracts/contract.sol\":1800:2002  for (uint256 i = 0; i < _members.length; i++) {... */\n    tag_46:\n        /* \"project-04/contracts/contract.sol\":1824:1832  _members */\n      dup5\n        /* \"project-04/contracts/contract.sol\":1824:1839  _members.length */\n      mload\n        /* \"project-04/contracts/contract.sol\":1820:1821  i */\n      dup2\n        /* \"project-04/contracts/contract.sol\":1820:1839  i < _members.length */\n      lt\n        /* \"project-04/contracts/contract.sol\":1800:2002  for (uint256 i = 0; i < _members.length; i++) {... */\n      iszero\n      tag_47\n      jumpi\n        /* \"project-04/contracts/contract.sol\":1860:1867  newList */\n      dup2\n        /* \"project-04/contracts/contract.sol\":1860:1875  newList.members */\n      0x01\n      add\n        /* \"project-04/contracts/contract.sol\":1881:1889  _members */\n      dup6\n        /* \"project-04/contracts/contract.sol\":1890:1891  i */\n      dup3\n        /* \"project-04/contracts/contract.sol\":1881:1892  _members[i] */\n      dup2\n      mload\n      dup2\n      lt\n      tag_49\n      jumpi\n      tag_50\n      tag_51\n      jump\t// in\n    tag_50:\n    tag_49:\n      0x20\n      mul\n      0x20\n      add\n      add\n      mload\n        /* \"project-04/contracts/contract.sol\":1860:1893  newList.members.push(_members[i]) */\n      swap1\n      dup1\n      0x01\n      dup2\n      sload\n      add\n      dup1\n      dup3\n      sstore\n      dup1\n      swap2\n      pop\n      pop\n      0x01\n      swap1\n      sub\n      swap1\n      0x00\n      mstore\n      keccak256(0x00, 0x20)\n      add\n      0x00\n      swap1\n      swap2\n      swap1\n      swap2\n      swap1\n      swap2\n      0x0100\n      exp\n      dup2\n      sload\n      dup2\n      0xffffffffffffffffffffffffffffffffffffffff\n      mul\n      not\n      and\n      swap1\n      dup4\n      0xffffffffffffffffffffffffffffffffffffffff\n      and\n      mul\n      or\n      swap1\n      sstore\n      pop\n        /* \"project-04/contracts/contract.sol\":1987:1991  true */\n      0x01\n        /* \"project-04/contracts/contract.sol\":1950:1960  listAccess */\n      dup1\n        /* \"project-04/contracts/contract.sol\":1950:1971  listAccess[newListId] */\n      0x00\n        /* \"project-04/contracts/contract.sol\":1961:1970  newListId */\n      dup6\n        /* \"project-04/contracts/contract.sol\":1950:1971  listAccess[newListId] */\n      dup2\n      mstore\n      0x20\n      add\n      swap1\n      dup2\n      mstore\n      0x20\n      add\n      0x00\n      keccak256\n        /* \"project-04/contracts/contract.sol\":1950:1984  listAccess[newListId][_members[i]] */\n      0x00\n        /* \"project-04/contracts/contract.sol\":1972:1980  _members */\n      dup8\n        /* \"project-04/contracts/contract.sol\":1981:1982  i */\n      dup5\n        /* \"project-04/contracts/contract.sol\":1972:1983  _members[i] */\n      dup2\n      mload\n      dup2\n      lt\n      tag_53\n      jumpi\n      tag_54\n      tag_51\n      jump\t// in\n    tag_54:\n    tag_53:\n      0x20\n      mul\n      0x20\n      add\n      add\n      mload\n        /* \"project-04/contracts/contract.sol\":1950:1984  listAccess[newListId][_members[i]] */\n      0xffffffffffffffffffffffffffffffffffffffff\n      and\n      0xffffffffffffffffffffffffffffffffffffffff\n      and\n      dup2\n      mstore\n      0x20\n      add\n      swap1\n      dup2\n      mstore\n      0x20\n      add\n      0x00\n      keccak256\n      0x00\n        /* \"project-04/contracts/contract.sol\":1950:1991  listAccess[newListId][_members[i]] = true */\n      0x0100\n      exp\n      dup2\n      sload\n      dup2\n      0xff\n      mul\n      not\n      and\n      swap1\n      dup4\n      iszero\n      iszero\n      mul\n      or\n      swap1\n      sstore\n      pop\n        /* \"project-04/contracts/contract.sol\":1841:1844  i++ */\n      dup1\n      dup1\n      0x01\n      add\n      swap2\n      pop\n      pop\n        /* \"project-04/contracts/contract.sol\":1800:2002  for (uint256 i = 0; i < _members.length; i++) {... */\n      jump(tag_46)\n    tag_47:\n      pop\n        /* \"project-04/contracts/contract.sol\":2099:2109  msg.sender */\n      caller\n        /* \"project-04/contracts/contract.sol\":2057:2110  ShoppingListCreated(newListId, _listName, msg.sender) */\n      0xffffffffffffffffffffffffffffffffffffffff\n      and\n        /* \"project-04/contracts/contract.sol\":2077:2086  newListId */\n      dup3\n        /* \"project-04/contracts/contract.sol\":2057:2110  ShoppingListCreated(newListId, _listName, msg.sender) */\n      0x8c713bac477ab2ee1fc95c760c16e3cbb3987993dfc49568af13b494b8c00856\n        /* \"project-04/contracts/contract.sol\":2088:2097  _listName */\n      dup8\n        /* \"project-04/contracts/contract.sol\":2057:2110  ShoppingListCreated(newListId, _listName, msg.sender) */\n      mload(0x40)\n      tag_55\n      swap2\n      swap1\n      tag_56\n      jump\t// in\n    tag_55:\n      mload(0x40)\n      dup1\n      swap2\n      sub\n      swap1\n      log3\n        /* \"project-04/contracts/contract.sol\":2128:2137  newListId */\n      dup2\n        /* \"project-04/contracts/contract.sol\":2121:2137  return newListId */\n      swap3\n      pop\n      pop\n      pop\n        /* \"project-04/contracts/contract.sol\":1115:2144  function createShoppingList(string memory _listName, address[] memory _members) public returns (uint256) {... */\n      swap3\n      swap2\n      pop\n      pop\n      jump\t// out\n        /* \"project-04/contracts/contract.sol\":3285:3713  function getListItems(uint256 _listId) public view returns (ListItem[] memory) {... */\n    tag_17:\n        /* \"project-04/contracts/contract.sol\":3345:3362  ListItem[] memory */\n      0x60\n        /* \"project-04/contracts/contract.sol\":3392:3403  sharedLists */\n      0x00\n        /* \"project-04/contracts/contract.sol\":3392:3410  sharedLists.length */\n      dup1\n      sload\n      swap1\n      pop\n        /* \"project-04/contracts/contract.sol\":3382:3389  _listId */\n      dup3\n        /* \"project-04/contracts/contract.sol\":3382:3410  _listId < sharedLists.length */\n      lt\n        /* \"project-04/contracts/contract.sol\":3374:3430  require(_listId < sharedLists.length, \"Invalid list ID\") */\n      tag_58\n      jumpi\n      mload(0x40)\n      0x08c379a000000000000000000000000000000000000000000000000000000000\n      dup2\n      mstore\n      0x04\n      add\n      tag_59\n      swap1\n      tag_60\n      jump\t// in\n    tag_59:\n      mload(0x40)\n      dup1\n      swap2\n      sub\n      swap1\n      revert\n    tag_58:\n        /* \"project-04/contracts/contract.sol\":3449:3474  ShoppingList storage list */\n      0x00\n        /* \"project-04/contracts/contract.sol\":3477:3488  sharedLists */\n      dup1\n        /* \"project-04/contracts/contract.sol\":3489:3496  _listId */\n      dup4\n        /* \"project-04/contracts/contract.sol\":3477:3497  sharedLists[_listId] */\n      dup2\n      sload\n      dup2\n      lt\n      tag_61\n      jumpi\n      tag_62\n      tag_51\n      jump\t// in\n    tag_62:\n    tag_61:\n      swap1\n      0x00\n      mstore\n      keccak256(0x00, 0x20)\n      swap1\n      0x04\n      mul\n      add\n        /* \"project-04/contracts/contract.sol\":3449:3497  ShoppingList storage list = sharedLists[_listId] */\n      swap1\n      pop\n        /* \"project-04/contracts/contract.sol\":3507:3530  ListItem[] memory items */\n      0x00\n        /* \"project-04/contracts/contract.sol\":3548:3552  list */\n      dup2\n        /* \"project-04/contracts/contract.sol\":3548:3562  list.itemCount */\n      0x02\n      add\n      sload\n        /* \"project-04/contracts/contract.sol\":3533:3563  new ListItem[](list.itemCount) */\n      0xffffffffffffffff\n      dup2\n      gt\n      iszero\n      tag_64\n      jumpi\n      tag_65\n      tag_66\n      jump\t// in\n    tag_65:\n    tag_64:\n      mload(0x40)\n      swap1\n      dup1\n      dup3\n      mstore\n      dup1\n      0x20\n      mul\n      0x20\n      add\n      dup3\n      add\n      0x40\n      mstore\n      dup1\n      iszero\n      tag_67\n      jumpi\n      dup2\n      0x20\n      add\n    tag_68:\n      tag_69\n      tag_70\n      jump\t// in\n    tag_69:\n      dup2\n      mstore\n      0x20\n      add\n      swap1\n      0x01\n      swap1\n      sub\n      swap1\n      dup2\n      tag_68\n      jumpi\n      swap1\n      pop\n    tag_67:\n      pop\n        /* \"project-04/contracts/contract.sol\":3507:3563  ListItem[] memory items = new ListItem[](list.itemCount) */\n      swap1\n      pop\n        /* \"project-04/contracts/contract.sol\":3587:3596  uint256 i */\n      0x00\n        /* \"project-04/contracts/contract.sol\":3582:3676  for (uint256 i = 0; i < list.itemCount; i++) {... */\n    tag_71:\n        /* \"project-04/contracts/contract.sol\":3606:3610  list */\n      dup3\n        /* \"project-04/contracts/contract.sol\":3606:3620  list.itemCount */\n      0x02\n      add\n      sload\n        /* \"project-04/contracts/contract.sol\":3602:3603  i */\n      dup2\n        /* \"project-04/contracts/contract.sol\":3602:3620  i < list.itemCount */\n      lt\n        /* \"project-04/contracts/contract.sol\":3582:3676  for (uint256 i = 0; i < list.itemCount; i++) {... */\n      iszero\n      tag_72\n      jumpi\n        /* \"project-04/contracts/contract.sol\":3652:3656  list */\n      dup3\n        /* \"project-04/contracts/contract.sol\":3652:3662  list.items */\n      0x03\n      add\n        /* \"project-04/contracts/contract.sol\":3652:3665  list.items[i] */\n      0x00\n        /* \"project-04/contracts/contract.sol\":3663:3664  i */\n      dup3\n        /* \"project-04/contracts/contract.sol\":3652:3665  list.items[i] */\n      dup2\n      mstore\n      0x20\n      add\n      swap1\n      dup2\n      mstore\n      0x20\n      add\n      0x00\n      keccak256\n        /* \"project-04/contracts/contract.sol\":3641:3665  items[i] = list.items[i] */\n      mload(0x40)\n      dup1\n      0x80\n      add\n      0x40\n      mstore\n      swap1\n      dup2\n      0x00\n      dup3\n      add\n      dup1\n      sload\n      tag_74\n      swap1\n      tag_75\n      jump\t// in\n    tag_74:\n      dup1\n      0x1f\n      add\n      0x20\n      dup1\n      swap2\n      div\n      mul\n      0x20\n      add\n      mload(0x40)\n      swap1\n      dup2\n      add\n      0x40\n      mstore\n      dup1\n      swap3\n      swap2\n      swap1\n      dup2\n      dup2\n      mstore\n      0x20\n      add\n      dup3\n      dup1\n      sload\n      tag_76\n      swap1\n      tag_75\n      jump\t// in\n    tag_76:\n      dup1\n      iszero\n      tag_77\n      jumpi\n      dup1\n      0x1f\n      lt\n      tag_78\n      jumpi\n      0x0100\n      dup1\n      dup4\n      sload\n      div\n      mul\n      dup4\n      mstore\n      swap2\n      0x20\n      add\n      swap2\n      jump(tag_77)\n    tag_78:\n      dup3\n      add\n      swap2\n      swap1\n      0x00\n      mstore\n      keccak256(0x00, 0x20)\n      swap1\n    tag_79:\n      dup2\n      sload\n      dup2\n      mstore\n      swap1\n      0x01\n      add\n      swap1\n      0x20\n      add\n      dup1\n      dup4\n      gt\n      tag_79\n      jumpi\n      dup3\n      swap1\n      sub\n      0x1f\n      and\n      dup3\n      add\n      swap2\n    tag_77:\n      pop\n      pop\n      pop\n      pop\n      pop\n      dup2\n      mstore\n      0x20\n      add\n      0x01\n      dup3\n      add\n      sload\n      dup2\n      mstore\n      0x20\n      add\n      0x02\n      dup3\n      add\n      0x00\n      swap1\n      sload\n      swap1\n      0x0100\n      exp\n      swap1\n      div\n      0xffffffffffffffffffffffffffffffffffffffff\n      and\n      0xffffffffffffffffffffffffffffffffffffffff\n      and\n      0xffffffffffffffffffffffffffffffffffffffff\n      and\n      dup2\n      mstore\n      0x20\n      add\n      0x02\n      dup3\n      add\n      0x14\n      swap1\n      sload\n      swap1\n      0x0100\n      exp\n      swap1\n      div\n      0xff\n      and\n      iszero\n      iszero\n      iszero\n      iszero\n      dup2\n      mstore\n      pop\n      pop\n        /* \"project-04/contracts/contract.sol\":3641:3646  items */\n      dup3\n        /* \"project-04/contracts/contract.sol\":3647:3648  i */\n      dup3\n        /* \"project-04/contracts/contract.sol\":3641:3649  items[i] */\n      dup2\n      mload\n      dup2\n      lt\n      tag_80\n      jumpi\n      tag_81\n      tag_51\n      jump\t// in\n    tag_81:\n    tag_80:\n      0x20\n      mul\n      0x20\n      add\n      add\n        /* \"project-04/contracts/contract.sol\":3641:3665  items[i] = list.items[i] */\n      dup2\n      swap1\n      mstore\n      pop\n        /* \"project-04/contracts/contract.sol\":3622:3625  i++ */\n      dup1\n      dup1\n      0x01\n      add\n      swap2\n      pop\n      pop\n        /* \"project-04/contracts/contract.sol\":3582:3676  for (uint256 i = 0; i < list.itemCount; i++) {... */\n      jump(tag_71)\n    tag_72:\n      pop\n        /* \"project-04/contracts/contract.sol\":3701:3706  items */\n      dup1\n        /* \"project-04/contracts/contract.sol\":3694:3706  return items */\n      swap3\n      pop\n      pop\n      pop\n        /* \"project-04/contracts/contract.sol\":3285:3713  function getListItems(uint256 _listId) public view returns (ListItem[] memory) {... */\n      swap2\n      swap1\n      pop\n      jump\t// out\n        /* \"project-04/contracts/contract.sol\":608:670  mapping(uint256 => mapping(address => bool)) public listAccess */\n    tag_23:\n      mstore(0x20, 0x01)\n      dup2\n      0x00\n      mstore\n      mstore(0x20, keccak256(0x00, 0x40))\n      dup1\n      0x00\n      mstore\n      keccak256(0x00, 0x40)\n      0x00\n      swap2\n      pop\n      swap2\n      pop\n      swap1\n      sload\n      swap1\n      0x0100\n      exp\n      swap1\n      div\n      0xff\n      and\n      dup2\n      jump\t// out\n        /* \"project-04/contracts/contract.sol\":518:551  ShoppingList[] public sharedLists */\n    tag_28:\n      0x00\n      dup2\n      dup2\n      sload\n      dup2\n      lt\n      tag_82\n      jumpi\n      0x00\n      dup1\n      revert\n    tag_82:\n      swap1\n      0x00\n      mstore\n      keccak256(0x00, 0x20)\n      swap1\n      0x04\n      mul\n      add\n      0x00\n      swap2\n      pop\n      swap1\n      pop\n      dup1\n      0x00\n      add\n      dup1\n      sload\n      tag_84\n      swap1\n      tag_75\n      jump\t// in\n    tag_84:\n      dup1\n      0x1f\n      add\n      0x20\n      dup1\n      swap2\n      div\n      mul\n      0x20\n      add\n      mload(0x40)\n      swap1\n      dup2\n      add\n      0x40\n      mstore\n      dup1\n      swap3\n      swap2\n      swap1\n      dup2\n      dup2\n      mstore\n      0x20\n      add\n      dup3\n      dup1\n      sload\n      tag_85\n      swap1\n      tag_75\n      jump\t// in\n    tag_85:\n      dup1\n      iszero\n      tag_86\n      jumpi\n      dup1\n      0x1f\n      lt\n      tag_87\n      jumpi\n      0x0100\n      dup1\n      dup4\n      sload\n      div\n      mul\n      dup4\n      mstore\n      swap2\n      0x20\n      add\n      swap2\n      jump(tag_86)\n    tag_87:\n      dup3\n      add\n      swap2\n      swap1\n      0x00\n      mstore\n      keccak256(0x00, 0x20)\n      swap1\n    tag_88:\n      dup2\n      sload\n      dup2\n      mstore\n      swap1\n      0x01\n      add\n      swap1\n      0x20\n      add\n      dup1\n      dup4\n      gt\n      tag_88\n      jumpi\n      dup3\n      swap1\n      sub\n      0x1f\n      and\n      dup3\n      add\n      swap2\n    tag_86:\n      pop\n      pop\n      pop\n      pop\n      pop\n      swap1\n      dup1\n      0x02\n      add\n      sload\n      swap1\n      pop\n      dup3\n      jump\t// out\n        /* \"project-04/contracts/contract.sol\":2207:3225  function addItemToList(... */\n    tag_34:\n        /* \"project-04/contracts/contract.sol\":2410:2421  sharedLists */\n      0x00\n        /* \"project-04/contracts/contract.sol\":2410:2428  sharedLists.length */\n      dup1\n      sload\n      swap1\n      pop\n        /* \"project-04/contracts/contract.sol\":2400:2407  _listId */\n      dup4\n        /* \"project-04/contracts/contract.sol\":2400:2428  _listId < sharedLists.length */\n      lt\n        /* \"project-04/contracts/contract.sol\":2392:2448  require(_listId < sharedLists.length, \"Invalid list ID\") */\n      tag_90\n      jumpi\n      mload(0x40)\n      0x08c379a000000000000000000000000000000000000000000000000000000000\n      dup2\n      mstore\n      0x04\n      add\n      tag_91\n      swap1\n      tag_60\n      jump\t// in\n    tag_91:\n      mload(0x40)\n      dup1\n      swap2\n      sub\n      swap1\n      revert\n    tag_90:\n        /* \"project-04/contracts/contract.sol\":2466:2476  listAccess */\n      0x01\n        /* \"project-04/contracts/contract.sol\":2466:2485  listAccess[_listId] */\n      0x00\n        /* \"project-04/contracts/contract.sol\":2477:2484  _listId */\n      dup5\n        /* \"project-04/contracts/contract.sol\":2466:2485  listAccess[_listId] */\n      dup2\n      mstore\n      0x20\n      add\n      swap1\n      dup2\n      mstore\n      0x20\n      add\n      0x00\n      keccak256\n        /* \"project-04/contracts/contract.sol\":2466:2497  listAccess[_listId][msg.sender] */\n      0x00\n        /* \"project-04/contracts/contract.sol\":2486:2496  msg.sender */\n      caller\n        /* \"project-04/contracts/contract.sol\":2466:2497  listAccess[_listId][msg.sender] */\n      0xffffffffffffffffffffffffffffffffffffffff\n      and\n      0xffffffffffffffffffffffffffffffffffffffff\n      and\n      dup2\n      mstore\n      0x20\n      add\n      swap1\n      dup2\n      mstore\n      0x20\n      add\n      0x00\n      keccak256\n      0x00\n      swap1\n      sload\n      swap1\n      0x0100\n      exp\n      swap1\n      div\n      0xff\n      and\n        /* \"project-04/contracts/contract.sol\":2458:2537  require(listAccess[_listId][msg.sender], \"You do not have access to this list\") */\n      tag_92\n      jumpi\n      mload(0x40)\n      0x08c379a000000000000000000000000000000000000000000000000000000000\n      dup2\n      mstore\n      0x04\n      add\n      tag_93\n      swap1\n      tag_94\n      jump\t// in\n    tag_93:\n      mload(0x40)\n      dup1\n      swap2\n      sub\n      swap1\n      revert\n    tag_92:\n        /* \"project-04/contracts/contract.sol\":2638:2639  0 */\n      0x00\n        /* \"project-04/contracts/contract.sol\":2618:2627  _itemName */\n      dup3\n        /* \"project-04/contracts/contract.sol\":2612:2635  bytes(_itemName).length */\n      mload\n        /* \"project-04/contracts/contract.sol\":2612:2639  bytes(_itemName).length > 0 */\n      gt\n        /* \"project-04/contracts/contract.sol\":2604:2669  require(bytes(_itemName).length > 0, \"Item name cannot be empty\") */\n      tag_95\n      jumpi\n      mload(0x40)\n      0x08c379a000000000000000000000000000000000000000000000000000000000\n      dup2\n      mstore\n      0x04\n      add\n      tag_96\n      swap1\n      tag_97\n      jump\t// in\n    tag_96:\n      mload(0x40)\n      dup1\n      swap2\n      sub\n      swap1\n      revert\n    tag_95:\n        /* \"project-04/contracts/contract.sol\":2699:2700  0 */\n      0x00\n        /* \"project-04/contracts/contract.sol\":2687:2696  _quantity */\n      dup2\n        /* \"project-04/contracts/contract.sol\":2687:2700  _quantity > 0 */\n      gt\n        /* \"project-04/contracts/contract.sol\":2679:2739  require(_quantity > 0, \"Quantity must be greater than zero\") */\n      tag_98\n      jumpi\n      mload(0x40)\n      0x08c379a000000000000000000000000000000000000000000000000000000000\n      dup2\n      mstore\n      0x04\n      add\n      tag_99\n      swap1\n      tag_100\n      jump\t// in\n    tag_99:\n      mload(0x40)\n      dup1\n      swap2\n      sub\n      swap1\n      revert\n    tag_98:\n        /* \"project-04/contracts/contract.sol\":2774:2799  ShoppingList storage list */\n      0x00\n        /* \"project-04/contracts/contract.sol\":2802:2813  sharedLists */\n      dup1\n        /* \"project-04/contracts/contract.sol\":2814:2821  _listId */\n      dup5\n        /* \"project-04/contracts/contract.sol\":2802:2822  sharedLists[_listId] */\n      dup2\n      sload\n      dup2\n      lt\n      tag_101\n      jumpi\n      tag_102\n      tag_51\n      jump\t// in\n    tag_102:\n    tag_101:\n      swap1\n      0x00\n      mstore\n      keccak256(0x00, 0x20)\n      swap1\n      0x04\n      mul\n      add\n        /* \"project-04/contracts/contract.sol\":2774:2822  ShoppingList storage list = sharedLists[_listId] */\n      swap1\n      pop\n        /* \"project-04/contracts/contract.sol\":2904:3051  ListItem({... */\n      mload(0x40)\n      dup1\n      0x80\n      add\n      0x40\n      mstore\n      dup1\n        /* \"project-04/contracts/contract.sol\":2933:2942  _itemName */\n      dup5\n        /* \"project-04/contracts/contract.sol\":2904:3051  ListItem({... */\n      dup2\n      mstore\n      0x20\n      add\n        /* \"project-04/contracts/contract.sol\":2966:2975  _quantity */\n      dup4\n        /* \"project-04/contracts/contract.sol\":2904:3051  ListItem({... */\n      dup2\n      mstore\n      0x20\n      add\n        /* \"project-04/contracts/contract.sol\":2998:3008  msg.sender */\n      caller\n        /* \"project-04/contracts/contract.sol\":2904:3051  ListItem({... */\n      0xffffffffffffffffffffffffffffffffffffffff\n      and\n      dup2\n      mstore\n      0x20\n      add\n        /* \"project-04/contracts/contract.sol\":3035:3040  false */\n      0x00\n        /* \"project-04/contracts/contract.sol\":2904:3051  ListItem({... */\n      iszero\n      iszero\n      dup2\n      mstore\n      pop\n        /* \"project-04/contracts/contract.sol\":2875:2879  list */\n      dup2\n        /* \"project-04/contracts/contract.sol\":2875:2885  list.items */\n      0x03\n      add\n        /* \"project-04/contracts/contract.sol\":2875:2901  list.items[list.itemCount] */\n      0x00\n        /* \"project-04/contracts/contract.sol\":2886:2890  list */\n      dup4\n        /* \"project-04/contracts/contract.sol\":2886:2900  list.itemCount */\n      0x02\n      add\n      sload\n        /* \"project-04/contracts/contract.sol\":2875:2901  list.items[list.itemCount] */\n      dup2\n      mstore\n      0x20\n      add\n      swap1\n      dup2\n      mstore\n      0x20\n      add\n      0x00\n      keccak256\n        /* \"project-04/contracts/contract.sol\":2875:3051  list.items[list.itemCount] = ListItem({... */\n      0x00\n      dup3\n      add\n      mload\n      dup2\n      0x00\n      add\n      swap1\n      dup2\n      tag_104\n      swap2\n      swap1\n      tag_44\n      jump\t// in\n    tag_104:\n      pop\n      0x20\n      dup3\n      add\n      mload\n      dup2\n      0x01\n      add\n      sstore\n      0x40\n      dup3\n      add\n      mload\n      dup2\n      0x02\n      add\n      exp(0x0100, 0x00)\n      dup2\n      sload\n      dup2\n      0xffffffffffffffffffffffffffffffffffffffff\n      mul\n      not\n      and\n      swap1\n      dup4\n      0xffffffffffffffffffffffffffffffffffffffff\n      and\n      mul\n      or\n      swap1\n      sstore\n      pop\n      0x60\n      dup3\n      add\n      mload\n      dup2\n      0x02\n      add\n      exp(0x0100, 0x14)\n      dup2\n      sload\n      dup2\n      0xff\n      mul\n      not\n      and\n      swap1\n      dup4\n      iszero\n      iszero\n      mul\n      or\n      swap1\n      sstore\n      pop\n      swap1\n      pop\n      pop\n        /* \"project-04/contracts/contract.sol\":3094:3098  list */\n      dup1\n        /* \"project-04/contracts/contract.sol\":3094:3108  list.itemCount */\n      0x02\n      add\n      0x00\n        /* \"project-04/contracts/contract.sol\":3094:3110  list.itemCount++ */\n      dup2\n      sload\n      dup1\n      swap3\n      swap2\n      swap1\n      tag_105\n      swap1\n      tag_106\n      jump\t// in\n    tag_105:\n      swap2\n      swap1\n      pop\n      sstore\n      pop\n        /* \"project-04/contracts/contract.sol\":3207:3217  msg.sender */\n      caller\n        /* \"project-04/contracts/contract.sol\":3166:3218  ItemAdded(_listId, _itemName, _quantity, msg.sender) */\n      0xffffffffffffffffffffffffffffffffffffffff\n      and\n        /* \"project-04/contracts/contract.sol\":3176:3183  _listId */\n      dup5\n        /* \"project-04/contracts/contract.sol\":3166:3218  ItemAdded(_listId, _itemName, _quantity, msg.sender) */\n      0x4cb34837c7f53a61f23e94bec431249774053a2ab0b596d1382fb3dde16f65cd\n        /* \"project-04/contracts/contract.sol\":3185:3194  _itemName */\n      dup6\n        /* \"project-04/contracts/contract.sol\":3196:3205  _quantity */\n      dup6\n        /* \"project-04/contracts/contract.sol\":3166:3218  ItemAdded(_listId, _itemName, _quantity, msg.sender) */\n      mload(0x40)\n      tag_107\n      swap3\n      swap2\n      swap1\n      tag_30\n      jump\t// in\n    tag_107:\n      mload(0x40)\n      dup1\n      swap2\n      sub\n      swap1\n      log3\n        /* \"project-04/contracts/contract.sol\":2330:3225  {... */\n      pop\n        /* \"project-04/contracts/contract.sol\":2207:3225  function addItemToList(... */\n      pop\n      pop\n      pop\n      jump\t// out\n    tag_70:\n      mload(0x40)\n      dup1\n      0x80\n      add\n      0x40\n      mstore\n      dup1\n      0x60\n      dup2\n      mstore\n      0x20\n      add\n      0x00\n      dup2\n      mstore\n      0x20\n      add\n      and(0xffffffffffffffffffffffffffffffffffffffff, 0x00)\n      dup2\n      mstore\n      0x20\n      add\n      iszero(iszero(0x00))\n      dup2\n      mstore\n      pop\n      swap1\n      jump\t// out\n        /* \"#utility.yul\":7:82   */\n    tag_108:\n        /* \"#utility.yul\":40:46   */\n      0x00\n        /* \"#utility.yul\":73:75   */\n      0x40\n        /* \"#utility.yul\":67:76   */\n      mload\n        /* \"#utility.yul\":57:76   */\n      swap1\n      pop\n        /* \"#utility.yul\":7:82   */\n      swap1\n      jump\t// out\n        /* \"#utility.yul\":88:205   */\n    tag_109:\n        /* \"#utility.yul\":197:198   */\n      0x00\n        /* \"#utility.yul\":194:195   */\n      dup1\n        /* \"#utility.yul\":187:199   */\n      revert\n        /* \"#utility.yul\":211:328   */\n    tag_110:\n        /* \"#utility.yul\":320:321   */\n      0x00\n        /* \"#utility.yul\":317:318   */\n      dup1\n        /* \"#utility.yul\":310:322   */\n      revert\n        /* \"#utility.yul\":334:451   */\n    tag_111:\n        /* \"#utility.yul\":443:444   */\n      0x00\n        /* \"#utility.yul\":440:441   */\n      dup1\n        /* \"#utility.yul\":433:445   */\n      revert\n        /* \"#utility.yul\":457:574   */\n    tag_112:\n        /* \"#utility.yul\":566:567   */\n      0x00\n        /* \"#utility.yul\":563:564   */\n      dup1\n        /* \"#utility.yul\":556:568   */\n      revert\n        /* \"#utility.yul\":580:682   */\n    tag_113:\n        /* \"#utility.yul\":621:627   */\n      0x00\n        /* \"#utility.yul\":672:674   */\n      0x1f\n        /* \"#utility.yul\":668:675   */\n      not\n        /* \"#utility.yul\":663:665   */\n      0x1f\n        /* \"#utility.yul\":656:661   */\n      dup4\n        /* \"#utility.yul\":652:666   */\n      add\n        /* \"#utility.yul\":648:676   */\n      and\n        /* \"#utility.yul\":638:676   */\n      swap1\n      pop\n        /* \"#utility.yul\":580:682   */\n      swap2\n      swap1\n      pop\n      jump\t// out\n        /* \"#utility.yul\":688:868   */\n    tag_66:\n        /* \"#utility.yul\":736:813   */\n      0x4e487b7100000000000000000000000000000000000000000000000000000000\n        /* \"#utility.yul\":733:734   */\n      0x00\n        /* \"#utility.yul\":726:814   */\n      mstore\n        /* \"#utility.yul\":833:837   */\n      0x41\n        /* \"#utility.yul\":830:831   */\n      0x04\n        /* \"#utility.yul\":823:838   */\n      mstore\n        /* \"#utility.yul\":857:861   */\n      0x24\n        /* \"#utility.yul\":854:855   */\n      0x00\n        /* \"#utility.yul\":847:862   */\n      revert\n        /* \"#utility.yul\":874:1155   */\n    tag_114:\n        /* \"#utility.yul\":957:984   */\n      tag_188\n        /* \"#utility.yul\":979:983   */\n      dup3\n        /* \"#utility.yul\":957:984   */\n      tag_113\n      jump\t// in\n    tag_188:\n        /* \"#utility.yul\":949:955   */\n      dup2\n        /* \"#utility.yul\":945:985   */\n      add\n        /* \"#utility.yul\":1087:1093   */\n      dup2\n        /* \"#utility.yul\":1075:1085   */\n      dup2\n        /* \"#utility.yul\":1072:1094   */\n      lt\n        /* \"#utility.yul\":1051:1069   */\n      0xffffffffffffffff\n        /* \"#utility.yul\":1039:1049   */\n      dup3\n        /* \"#utility.yul\":1036:1070   */\n      gt\n        /* \"#utility.yul\":1033:1095   */\n      or\n        /* \"#utility.yul\":1030:1118   */\n      iszero\n      tag_189\n      jumpi\n        /* \"#utility.yul\":1098:1116   */\n      tag_190\n      tag_66\n      jump\t// in\n    tag_190:\n        /* \"#utility.yul\":1030:1118   */\n    tag_189:\n        /* \"#utility.yul\":1138:1148   */\n      dup1\n        /* \"#utility.yul\":1134:1136   */\n      0x40\n        /* \"#utility.yul\":1127:1149   */\n      mstore\n        /* \"#utility.yul\":917:1155   */\n      pop\n        /* \"#utility.yul\":874:1155   */\n      pop\n      pop\n      jump\t// out\n        /* \"#utility.yul\":1161:1290   */\n    tag_115:\n        /* \"#utility.yul\":1195:1201   */\n      0x00\n        /* \"#utility.yul\":1222:1242   */\n      tag_192\n      tag_108\n      jump\t// in\n    tag_192:\n        /* \"#utility.yul\":1212:1242   */\n      swap1\n      pop\n        /* \"#utility.yul\":1251:1284   */\n      tag_193\n        /* \"#utility.yul\":1279:1283   */\n      dup3\n        /* \"#utility.yul\":1271:1277   */\n      dup3\n        /* \"#utility.yul\":1251:1284   */\n      tag_114\n      jump\t// in\n    tag_193:\n        /* \"#utility.yul\":1161:1290   */\n      swap2\n      swap1\n      pop\n      jump\t// out\n        /* \"#utility.yul\":1296:1604   */\n    tag_116:\n        /* \"#utility.yul\":1358:1362   */\n      0x00\n        /* \"#utility.yul\":1448:1466   */\n      0xffffffffffffffff\n        /* \"#utility.yul\":1440:1446   */\n      dup3\n        /* \"#utility.yul\":1437:1467   */\n      gt\n        /* \"#utility.yul\":1434:1490   */\n      iszero\n      tag_195\n      jumpi\n        /* \"#utility.yul\":1470:1488   */\n      tag_196\n      tag_66\n      jump\t// in\n    tag_196:\n        /* \"#utility.yul\":1434:1490   */\n    tag_195:\n        /* \"#utility.yul\":1508:1537   */\n      tag_197\n        /* \"#utility.yul\":1530:1536   */\n      dup3\n        /* \"#utility.yul\":1508:1537   */\n      tag_113\n      jump\t// in\n    tag_197:\n        /* \"#utility.yul\":1500:1537   */\n      swap1\n      pop\n        /* \"#utility.yul\":1592:1596   */\n      0x20\n        /* \"#utility.yul\":1586:1590   */\n      dup2\n        /* \"#utility.yul\":1582:1597   */\n      add\n        /* \"#utility.yul\":1574:1597   */\n      swap1\n      pop\n        /* \"#utility.yul\":1296:1604   */\n      swap2\n      swap1\n      pop\n      jump\t// out\n        /* \"#utility.yul\":1610:1758   */\n    tag_117:\n        /* \"#utility.yul\":1708:1714   */\n      dup3\n        /* \"#utility.yul\":1703:1706   */\n      dup2\n        /* \"#utility.yul\":1698:1701   */\n      dup4\n        /* \"#utility.yul\":1685:1715   */\n      calldatacopy\n        /* \"#utility.yul\":1749:1750   */\n      0x00\n        /* \"#utility.yul\":1740:1746   */\n      dup4\n        /* \"#utility.yul\":1735:1738   */\n      dup4\n        /* \"#utility.yul\":1731:1747   */\n      add\n        /* \"#utility.yul\":1724:1751   */\n      mstore\n        /* \"#utility.yul\":1610:1758   */\n      pop\n      pop\n      pop\n      jump\t// out\n        /* \"#utility.yul\":1764:2189   */\n    tag_118:\n        /* \"#utility.yul\":1842:1847   */\n      0x00\n        /* \"#utility.yul\":1867:1933   */\n      tag_200\n        /* \"#utility.yul\":1883:1932   */\n      tag_201\n        /* \"#utility.yul\":1925:1931   */\n      dup5\n        /* \"#utility.yul\":1883:1932   */\n      tag_116\n      jump\t// in\n    tag_201:\n        /* \"#utility.yul\":1867:1933   */\n      tag_115\n      jump\t// in\n    tag_200:\n        /* \"#utility.yul\":1858:1933   */\n      swap1\n      pop\n        /* \"#utility.yul\":1956:1962   */\n      dup3\n        /* \"#utility.yul\":1949:1954   */\n      dup2\n        /* \"#utility.yul\":1942:1963   */\n      mstore\n        /* \"#utility.yul\":1994:1998   */\n      0x20\n        /* \"#utility.yul\":1987:1992   */\n      dup2\n        /* \"#utility.yul\":1983:1999   */\n      add\n        /* \"#utility.yul\":2032:2035   */\n      dup5\n        /* \"#utility.yul\":2023:2029   */\n      dup5\n        /* \"#utility.yul\":2018:2021   */\n      dup5\n        /* \"#utility.yul\":2014:2030   */\n      add\n        /* \"#utility.yul\":2011:2036   */\n      gt\n        /* \"#utility.yul\":2008:2120   */\n      iszero\n      tag_202\n      jumpi\n        /* \"#utility.yul\":2039:2118   */\n      tag_203\n      tag_112\n      jump\t// in\n    tag_203:\n        /* \"#utility.yul\":2008:2120   */\n    tag_202:\n        /* \"#utility.yul\":2129:2183   */\n      tag_204\n        /* \"#utility.yul\":2176:2182   */\n      dup5\n        /* \"#utility.yul\":2171:2174   */\n      dup3\n        /* \"#utility.yul\":2166:2169   */\n      dup6\n        /* \"#utility.yul\":2129:2183   */\n      tag_117\n      jump\t// in\n    tag_204:\n        /* \"#utility.yul\":1848:2189   */\n      pop\n        /* \"#utility.yul\":1764:2189   */\n      swap4\n      swap3\n      pop\n      pop\n      pop\n      jump\t// out\n        /* \"#utility.yul\":2209:2549   */\n    tag_119:\n        /* \"#utility.yul\":2265:2270   */\n      0x00\n        /* \"#utility.yul\":2314:2317   */\n      dup3\n        /* \"#utility.yul\":2307:2311   */\n      0x1f\n        /* \"#utility.yul\":2299:2305   */\n      dup4\n        /* \"#utility.yul\":2295:2312   */\n      add\n        /* \"#utility.yul\":2291:2318   */\n      slt\n        /* \"#utility.yul\":2281:2403   */\n      tag_206\n      jumpi\n        /* \"#utility.yul\":2322:2401   */\n      tag_207\n      tag_111\n      jump\t// in\n    tag_207:\n        /* \"#utility.yul\":2281:2403   */\n    tag_206:\n        /* \"#utility.yul\":2439:2445   */\n      dup2\n        /* \"#utility.yul\":2426:2446   */\n      calldataload\n        /* \"#utility.yul\":2464:2543   */\n      tag_208\n        /* \"#utility.yul\":2539:2542   */\n      dup5\n        /* \"#utility.yul\":2531:2537   */\n      dup3\n        /* \"#utility.yul\":2524:2528   */\n      0x20\n        /* \"#utility.yul\":2516:2522   */\n      dup7\n        /* \"#utility.yul\":2512:2529   */\n      add\n        /* \"#utility.yul\":2464:2543   */\n      tag_118\n      jump\t// in\n    tag_208:\n        /* \"#utility.yul\":2455:2543   */\n      swap2\n      pop\n        /* \"#utility.yul\":2271:2549   */\n      pop\n        /* \"#utility.yul\":2209:2549   */\n      swap3\n      swap2\n      pop\n      pop\n      jump\t// out\n        /* \"#utility.yul\":2555:2866   */\n    tag_120:\n        /* \"#utility.yul\":2632:2636   */\n      0x00\n        /* \"#utility.yul\":2722:2740   */\n      0xffffffffffffffff\n        /* \"#utility.yul\":2714:2720   */\n      dup3\n        /* \"#utility.yul\":2711:2741   */\n      gt\n        /* \"#utility.yul\":2708:2764   */\n      iszero\n      tag_210\n      jumpi\n        /* \"#utility.yul\":2744:2762   */\n      tag_211\n      tag_66\n      jump\t// in\n    tag_211:\n        /* \"#utility.yul\":2708:2764   */\n    tag_210:\n        /* \"#utility.yul\":2794:2798   */\n      0x20\n        /* \"#utility.yul\":2786:2792   */\n      dup3\n        /* \"#utility.yul\":2782:2799   */\n      mul\n        /* \"#utility.yul\":2774:2799   */\n      swap1\n      pop\n        /* \"#utility.yul\":2854:2858   */\n      0x20\n        /* \"#utility.yul\":2848:2852   */\n      dup2\n        /* \"#utility.yul\":2844:2859   */\n      add\n        /* \"#utility.yul\":2836:2859   */\n      swap1\n      pop\n        /* \"#utility.yul\":2555:2866   */\n      swap2\n      swap1\n      pop\n      jump\t// out\n        /* \"#utility.yul\":2872:2989   */\n    tag_121:\n        /* \"#utility.yul\":2981:2982   */\n      0x00\n        /* \"#utility.yul\":2978:2979   */\n      dup1\n        /* \"#utility.yul\":2971:2983   */\n      revert\n        /* \"#utility.yul\":2995:3121   */\n    tag_122:\n        /* \"#utility.yul\":3032:3039   */\n      0x00\n        /* \"#utility.yul\":3072:3114   */\n      0xffffffffffffffffffffffffffffffffffffffff\n        /* \"#utility.yul\":3065:3070   */\n      dup3\n        /* \"#utility.yul\":3061:3115   */\n      and\n        /* \"#utility.yul\":3050:3115   */\n      swap1\n      pop\n        /* \"#utility.yul\":2995:3121   */\n      swap2\n      swap1\n      pop\n      jump\t// out\n        /* \"#utility.yul\":3127:3223   */\n    tag_123:\n        /* \"#utility.yul\":3164:3171   */\n      0x00\n        /* \"#utility.yul\":3193:3217   */\n      tag_215\n        /* \"#utility.yul\":3211:3216   */\n      dup3\n        /* \"#utility.yul\":3193:3217   */\n      tag_122\n      jump\t// in\n    tag_215:\n        /* \"#utility.yul\":3182:3217   */\n      swap1\n      pop\n        /* \"#utility.yul\":3127:3223   */\n      swap2\n      swap1\n      pop\n      jump\t// out\n        /* \"#utility.yul\":3229:3351   */\n    tag_124:\n        /* \"#utility.yul\":3302:3326   */\n      tag_217\n        /* \"#utility.yul\":3320:3325   */\n      dup2\n        /* \"#utility.yul\":3302:3326   */\n      tag_123\n      jump\t// in\n    tag_217:\n        /* \"#utility.yul\":3295:3300   */\n      dup2\n        /* \"#utility.yul\":3292:3327   */\n      eq\n        /* \"#utility.yul\":3282:3345   */\n      tag_218\n      jumpi\n        /* \"#utility.yul\":3341:3342   */\n      0x00\n        /* \"#utility.yul\":3338:3339   */\n      dup1\n        /* \"#utility.yul\":3331:3343   */\n      revert\n        /* \"#utility.yul\":3282:3345   */\n    tag_218:\n        /* \"#utility.yul\":3229:3351   */\n      pop\n      jump\t// out\n        /* \"#utility.yul\":3357:3496   */\n    tag_125:\n        /* \"#utility.yul\":3403:3408   */\n      0x00\n        /* \"#utility.yul\":3441:3447   */\n      dup2\n        /* \"#utility.yul\":3428:3448   */\n      calldataload\n        /* \"#utility.yul\":3419:3448   */\n      swap1\n      pop\n        /* \"#utility.yul\":3457:3490   */\n      tag_220\n        /* \"#utility.yul\":3484:3489   */\n      dup2\n        /* \"#utility.yul\":3457:3490   */\n      tag_124\n      jump\t// in\n    tag_220:\n        /* \"#utility.yul\":3357:3496   */\n      swap3\n      swap2\n      pop\n      pop\n      jump\t// out\n        /* \"#utility.yul\":3519:4229   */\n    tag_126:\n        /* \"#utility.yul\":3615:3620   */\n      0x00\n        /* \"#utility.yul\":3640:3721   */\n      tag_222\n        /* \"#utility.yul\":3656:3720   */\n      tag_223\n        /* \"#utility.yul\":3713:3719   */\n      dup5\n        /* \"#utility.yul\":3656:3720   */\n      tag_120\n      jump\t// in\n    tag_223:\n        /* \"#utility.yul\":3640:3721   */\n      tag_115\n      jump\t// in\n    tag_222:\n        /* \"#utility.yul\":3631:3721   */\n      swap1\n      pop\n        /* \"#utility.yul\":3741:3746   */\n      dup1\n        /* \"#utility.yul\":3770:3776   */\n      dup4\n        /* \"#utility.yul\":3763:3768   */\n      dup3\n        /* \"#utility.yul\":3756:3777   */\n      mstore\n        /* \"#utility.yul\":3804:3808   */\n      0x20\n        /* \"#utility.yul\":3797:3802   */\n      dup3\n        /* \"#utility.yul\":3793:3809   */\n      add\n        /* \"#utility.yul\":3786:3809   */\n      swap1\n      pop\n        /* \"#utility.yul\":3857:3861   */\n      0x20\n        /* \"#utility.yul\":3849:3855   */\n      dup5\n        /* \"#utility.yul\":3845:3862   */\n      mul\n        /* \"#utility.yul\":3837:3843   */\n      dup4\n        /* \"#utility.yul\":3833:3863   */\n      add\n        /* \"#utility.yul\":3886:3889   */\n      dup6\n        /* \"#utility.yul\":3878:3884   */\n      dup2\n        /* \"#utility.yul\":3875:3890   */\n      gt\n        /* \"#utility.yul\":3872:3994   */\n      iszero\n      tag_224\n      jumpi\n        /* \"#utility.yul\":3905:3984   */\n      tag_225\n      tag_121\n      jump\t// in\n    tag_225:\n        /* \"#utility.yul\":3872:3994   */\n    tag_224:\n        /* \"#utility.yul\":4020:4026   */\n      dup4\n        /* \"#utility.yul\":4003:4223   */\n    tag_226:\n        /* \"#utility.yul\":4037:4043   */\n      dup2\n        /* \"#utility.yul\":4032:4035   */\n      dup2\n        /* \"#utility.yul\":4029:4044   */\n      lt\n        /* \"#utility.yul\":4003:4223   */\n      iszero\n      tag_228\n      jumpi\n        /* \"#utility.yul\":4112:4115   */\n      dup1\n        /* \"#utility.yul\":4141:4178   */\n      tag_229\n        /* \"#utility.yul\":4174:4177   */\n      dup9\n        /* \"#utility.yul\":4162:4172   */\n      dup3\n        /* \"#utility.yul\":4141:4178   */\n      tag_125\n      jump\t// in\n    tag_229:\n        /* \"#utility.yul\":4136:4139   */\n      dup5\n        /* \"#utility.yul\":4129:4179   */\n      mstore\n        /* \"#utility.yul\":4208:4212   */\n      0x20\n        /* \"#utility.yul\":4203:4206   */\n      dup5\n        /* \"#utility.yul\":4199:4213   */\n      add\n        /* \"#utility.yul\":4192:4213   */\n      swap4\n      pop\n        /* \"#utility.yul\":4079:4223   */\n      pop\n        /* \"#utility.yul\":4063:4067   */\n      0x20\n        /* \"#utility.yul\":4058:4061   */\n      dup2\n        /* \"#utility.yul\":4054:4068   */\n      add\n        /* \"#utility.yul\":4047:4068   */\n      swap1\n      pop\n        /* \"#utility.yul\":4003:4223   */\n      jump(tag_226)\n    tag_228:\n        /* \"#utility.yul\":4007:4028   */\n      pop\n        /* \"#utility.yul\":3621:4229   */\n      pop\n      pop\n        /* \"#utility.yul\":3519:4229   */\n      swap4\n      swap3\n      pop\n      pop\n      pop\n      jump\t// out\n        /* \"#utility.yul\":4252:4622   */\n    tag_127:\n        /* \"#utility.yul\":4323:4328   */\n      0x00\n        /* \"#utility.yul\":4372:4375   */\n      dup3\n        /* \"#utility.yul\":4365:4369   */\n      0x1f\n        /* \"#utility.yul\":4357:4363   */\n      dup4\n        /* \"#utility.yul\":4353:4370   */\n      add\n        /* \"#utility.yul\":4349:4376   */\n      slt\n        /* \"#utility.yul\":4339:4461   */\n      tag_231\n      jumpi\n        /* \"#utility.yul\":4380:4459   */\n      tag_232\n      tag_111\n      jump\t// in\n    tag_232:\n        /* \"#utility.yul\":4339:4461   */\n    tag_231:\n        /* \"#utility.yul\":4497:4503   */\n      dup2\n        /* \"#utility.yul\":4484:4504   */\n      calldataload\n        /* \"#utility.yul\":4522:4616   */\n      tag_233\n        /* \"#utility.yul\":4612:4615   */\n      dup5\n        /* \"#utility.yul\":4604:4610   */\n      dup3\n        /* \"#utility.yul\":4597:4601   */\n      0x20\n        /* \"#utility.yul\":4589:4595   */\n      dup7\n        /* \"#utility.yul\":4585:4602   */\n      add\n        /* \"#utility.yul\":4522:4616   */\n      tag_126\n      jump\t// in\n    tag_233:\n        /* \"#utility.yul\":4513:4616   */\n      swap2\n      pop\n        /* \"#utility.yul\":4329:4622   */\n      pop\n        /* \"#utility.yul\":4252:4622   */\n      swap3\n      swap2\n      pop\n      pop\n      jump\t// out\n        /* \"#utility.yul\":4628:5492   */\n    tag_10:\n        /* \"#utility.yul\":4731:4737   */\n      0x00\n        /* \"#utility.yul\":4739:4745   */\n      dup1\n        /* \"#utility.yul\":4788:4790   */\n      0x40\n        /* \"#utility.yul\":4776:4785   */\n      dup4\n        /* \"#utility.yul\":4767:4774   */\n      dup6\n        /* \"#utility.yul\":4763:4786   */\n      sub\n        /* \"#utility.yul\":4759:4791   */\n      slt\n        /* \"#utility.yul\":4756:4875   */\n      iszero\n      tag_235\n      jumpi\n        /* \"#utility.yul\":4794:4873   */\n      tag_236\n      tag_109\n      jump\t// in\n    tag_236:\n        /* \"#utility.yul\":4756:4875   */\n    tag_235:\n        /* \"#utility.yul\":4942:4943   */\n      0x00\n        /* \"#utility.yul\":4931:4940   */\n      dup4\n        /* \"#utility.yul\":4927:4944   */\n      add\n        /* \"#utility.yul\":4914:4945   */\n      calldataload\n        /* \"#utility.yul\":4972:4990   */\n      0xffffffffffffffff\n        /* \"#utility.yul\":4964:4970   */\n      dup2\n        /* \"#utility.yul\":4961:4991   */\n      gt\n        /* \"#utility.yul\":4958:5075   */\n      iszero\n      tag_237\n      jumpi\n        /* \"#utility.yul\":4994:5073   */\n      tag_238\n      tag_110\n      jump\t// in\n    tag_238:\n        /* \"#utility.yul\":4958:5075   */\n    tag_237:\n        /* \"#utility.yul\":5099:5162   */\n      tag_239\n        /* \"#utility.yul\":5154:5161   */\n      dup6\n        /* \"#utility.yul\":5145:5151   */\n      dup3\n        /* \"#utility.yul\":5134:5143   */\n      dup7\n        /* \"#utility.yul\":5130:5152   */\n      add\n        /* \"#utility.yul\":5099:5162   */\n      tag_119\n      jump\t// in\n    tag_239:\n        /* \"#utility.yul\":5089:5162   */\n      swap3\n      pop\n        /* \"#utility.yul\":4885:5172   */\n      pop\n        /* \"#utility.yul\":5239:5241   */\n      0x20\n        /* \"#utility.yul\":5228:5237   */\n      dup4\n        /* \"#utility.yul\":5224:5242   */\n      add\n        /* \"#utility.yul\":5211:5243   */\n      calldataload\n        /* \"#utility.yul\":5270:5288   */\n      0xffffffffffffffff\n        /* \"#utility.yul\":5262:5268   */\n      dup2\n        /* \"#utility.yul\":5259:5289   */\n      gt\n        /* \"#utility.yul\":5256:5373   */\n      iszero\n      tag_240\n      jumpi\n        /* \"#utility.yul\":5292:5371   */\n      tag_241\n      tag_110\n      jump\t// in\n    tag_241:\n        /* \"#utility.yul\":5256:5373   */\n    tag_240:\n        /* \"#utility.yul\":5397:5475   */\n      tag_242\n        /* \"#utility.yul\":5467:5474   */\n      dup6\n        /* \"#utility.yul\":5458:5464   */\n      dup3\n        /* \"#utility.yul\":5447:5456   */\n      dup7\n        /* \"#utility.yul\":5443:5465   */\n      add\n        /* \"#utility.yul\":5397:5475   */\n      tag_127\n      jump\t// in\n    tag_242:\n        /* \"#utility.yul\":5387:5475   */\n      swap2\n      pop\n        /* \"#utility.yul\":5182:5485   */\n      pop\n        /* \"#utility.yul\":4628:5492   */\n      swap3\n      pop\n      swap3\n      swap1\n      pop\n      jump\t// out\n        /* \"#utility.yul\":5498:5575   */\n    tag_128:\n        /* \"#utility.yul\":5535:5542   */\n      0x00\n        /* \"#utility.yul\":5564:5569   */\n      dup2\n        /* \"#utility.yul\":5553:5569   */\n      swap1\n      pop\n        /* \"#utility.yul\":5498:5575   */\n      swap2\n      swap1\n      pop\n      jump\t// out\n        /* \"#utility.yul\":5581:5699   */\n    tag_129:\n        /* \"#utility.yul\":5668:5692   */\n      tag_245\n        /* \"#utility.yul\":5686:5691   */\n      dup2\n        /* \"#utility.yul\":5668:5692   */\n      tag_128\n      jump\t// in\n    tag_245:\n        /* \"#utility.yul\":5663:5666   */\n      dup3\n        /* \"#utility.yul\":5656:5693   */\n      mstore\n        /* \"#utility.yul\":5581:5699   */\n      pop\n      pop\n      jump\t// out\n        /* \"#utility.yul\":5705:5927   */\n    tag_13:\n        /* \"#utility.yul\":5798:5802   */\n      0x00\n        /* \"#utility.yul\":5836:5838   */\n      0x20\n        /* \"#utility.yul\":5825:5834   */\n      dup3\n        /* \"#utility.yul\":5821:5839   */\n      add\n        /* \"#utility.yul\":5813:5839   */\n      swap1\n      pop\n        /* \"#utility.yul\":5849:5920   */\n      tag_247\n        /* \"#utility.yul\":5917:5918   */\n      0x00\n        /* \"#utility.yul\":5906:5915   */\n      dup4\n        /* \"#utility.yul\":5902:5919   */\n      add\n        /* \"#utility.yul\":5893:5899   */\n      dup5\n        /* \"#utility.yul\":5849:5920   */\n      tag_129\n      jump\t// in\n    tag_247:\n        /* \"#utility.yul\":5705:5927   */\n      swap3\n      swap2\n      pop\n      pop\n      jump\t// out\n        /* \"#utility.yul\":5933:6055   */\n    tag_130:\n        /* \"#utility.yul\":6006:6030   */\n      tag_249\n        /* \"#utility.yul\":6024:6029   */\n      dup2\n        /* \"#utility.yul\":6006:6030   */\n      tag_128\n      jump\t// in\n    tag_249:\n        /* \"#utility.yul\":5999:6004   */\n      dup2\n        /* \"#utility.yul\":5996:6031   */\n      eq\n        /* \"#utility.yul\":5986:6049   */\n      tag_250\n      jumpi\n        /* \"#utility.yul\":6045:6046   */\n      0x00\n        /* \"#utility.yul\":6042:6043   */\n      dup1\n        /* \"#utility.yul\":6035:6047   */\n      revert\n        /* \"#utility.yul\":5986:6049   */\n    tag_250:\n        /* \"#utility.yul\":5933:6055   */\n      pop\n      jump\t// out\n        /* \"#utility.yul\":6061:6200   */\n    tag_131:\n        /* \"#utility.yul\":6107:6112   */\n      0x00\n        /* \"#utility.yul\":6145:6151   */\n      dup2\n        /* \"#utility.yul\":6132:6152   */\n      calldataload\n        /* \"#utility.yul\":6123:6152   */\n      swap1\n      pop\n        /* \"#utility.yul\":6161:6194   */\n      tag_252\n        /* \"#utility.yul\":6188:6193   */\n      dup2\n        /* \"#utility.yul\":6161:6194   */\n      tag_130\n      jump\t// in\n    tag_252:\n        /* \"#utility.yul\":6061:6200   */\n      swap3\n      swap2\n      pop\n      pop\n      jump\t// out\n        /* \"#utility.yul\":6206:6535   */\n    tag_16:\n        /* \"#utility.yul\":6265:6271   */\n      0x00\n        /* \"#utility.yul\":6314:6316   */\n      0x20\n        /* \"#utility.yul\":6302:6311   */\n      dup3\n        /* \"#utility.yul\":6293:6300   */\n      dup5\n        /* \"#utility.yul\":6289:6312   */\n      sub\n        /* \"#utility.yul\":6285:6317   */\n      slt\n        /* \"#utility.yul\":6282:6401   */\n      iszero\n      tag_254\n      jumpi\n        /* \"#utility.yul\":6320:6399   */\n      tag_255\n      tag_109\n      jump\t// in\n    tag_255:\n        /* \"#utility.yul\":6282:6401   */\n    tag_254:\n        /* \"#utility.yul\":6440:6441   */\n      0x00\n        /* \"#utility.yul\":6465:6518   */\n      tag_256\n        /* \"#utility.yul\":6510:6517   */\n      dup5\n        /* \"#utility.yul\":6501:6507   */\n      dup3\n        /* \"#utility.yul\":6490:6499   */\n      dup6\n        /* \"#utility.yul\":6486:6508   */\n      add\n        /* \"#utility.yul\":6465:6518   */\n      tag_131\n      jump\t// in\n    tag_256:\n        /* \"#utility.yul\":6455:6518   */\n      swap2\n      pop\n        /* \"#utility.yul\":6411:6528   */\n      pop\n        /* \"#utility.yul\":6206:6535   */\n      swap3\n      swap2\n      pop\n      pop\n      jump\t// out\n        /* \"#utility.yul\":6541:6679   */\n    tag_132:\n        /* \"#utility.yul\":6632:6638   */\n      0x00\n        /* \"#utility.yul\":6666:6671   */\n      dup2\n        /* \"#utility.yul\":6660:6672   */\n      mload\n        /* \"#utility.yul\":6650:6672   */\n      swap1\n      pop\n        /* \"#utility.yul\":6541:6679   */\n      swap2\n      swap1\n      pop\n      jump\t// out\n        /* \"#utility.yul\":6685:6893   */\n    tag_133:\n        /* \"#utility.yul\":6808:6819   */\n      0x00\n        /* \"#utility.yul\":6842:6848   */\n      dup3\n        /* \"#utility.yul\":6837:6840   */\n      dup3\n        /* \"#utility.yul\":6830:6849   */\n      mstore\n        /* \"#utility.yul\":6882:6886   */\n      0x20\n        /* \"#utility.yul\":6877:6880   */\n      dup3\n        /* \"#utility.yul\":6873:6887   */\n      add\n        /* \"#utility.yul\":6858:6887   */\n      swap1\n      pop\n        /* \"#utility.yul\":6685:6893   */\n      swap3\n      swap2\n      pop\n      pop\n      jump\t// out\n        /* \"#utility.yul\":6899:7055   */\n    tag_134:\n        /* \"#utility.yul\":6990:6994   */\n      0x00\n        /* \"#utility.yul\":7013:7016   */\n      dup2\n        /* \"#utility.yul\":7005:7016   */\n      swap1\n      pop\n        /* \"#utility.yul\":7043:7047   */\n      0x20\n        /* \"#utility.yul\":7038:7041   */\n      dup3\n        /* \"#utility.yul\":7034:7048   */\n      add\n        /* \"#utility.yul\":7026:7048   */\n      swap1\n      pop\n        /* \"#utility.yul\":6899:7055   */\n      swap2\n      swap1\n      pop\n      jump\t// out\n        /* \"#utility.yul\":7061:7160   */\n    tag_135:\n        /* \"#utility.yul\":7113:7119   */\n      0x00\n        /* \"#utility.yul\":7147:7152   */\n      dup2\n        /* \"#utility.yul\":7141:7153   */\n      mload\n        /* \"#utility.yul\":7131:7153   */\n      swap1\n      pop\n        /* \"#utility.yul\":7061:7160   */\n      swap2\n      swap1\n      pop\n      jump\t// out\n        /* \"#utility.yul\":7166:7325   */\n    tag_136:\n        /* \"#utility.yul\":7240:7251   */\n      0x00\n        /* \"#utility.yul\":7274:7280   */\n      dup3\n        /* \"#utility.yul\":7269:7272   */\n      dup3\n        /* \"#utility.yul\":7262:7281   */\n      mstore\n        /* \"#utility.yul\":7314:7318   */\n      0x20\n        /* \"#utility.yul\":7309:7312   */\n      dup3\n        /* \"#utility.yul\":7305:7319   */\n      add\n        /* \"#utility.yul\":7290:7319   */\n      swap1\n      pop\n        /* \"#utility.yul\":7166:7325   */\n      swap3\n      swap2\n      pop\n      pop\n      jump\t// out\n        /* \"#utility.yul\":7331:7470   */\n    tag_137:\n        /* \"#utility.yul\":7420:7426   */\n      dup3\n        /* \"#utility.yul\":7415:7418   */\n      dup2\n        /* \"#utility.yul\":7410:7413   */\n      dup4\n        /* \"#utility.yul\":7404:7427   */\n      mcopy\n        /* \"#utility.yul\":7461:7462   */\n      0x00\n        /* \"#utility.yul\":7452:7458   */\n      dup4\n        /* \"#utility.yul\":7447:7450   */\n      dup4\n        /* \"#utility.yul\":7443:7459   */\n      add\n        /* \"#utility.yul\":7436:7463   */\n      mstore\n        /* \"#utility.yul\":7331:7470   */\n      pop\n      pop\n      pop\n      jump\t// out\n        /* \"#utility.yul\":7476:7833   */\n    tag_138:\n        /* \"#utility.yul\":7554:7557   */\n      0x00\n        /* \"#utility.yul\":7582:7621   */\n      tag_264\n        /* \"#utility.yul\":7615:7620   */\n      dup3\n        /* \"#utility.yul\":7582:7621   */\n      tag_135\n      jump\t// in\n    tag_264:\n        /* \"#utility.yul\":7637:7698   */\n      tag_265\n        /* \"#utility.yul\":7691:7697   */\n      dup2\n        /* \"#utility.yul\":7686:7689   */\n      dup6\n        /* \"#utility.yul\":7637:7698   */\n      tag_136\n      jump\t// in\n    tag_265:\n        /* \"#utility.yul\":7630:7698   */\n      swap4\n      pop\n        /* \"#utility.yul\":7707:7772   */\n      tag_266\n        /* \"#utility.yul\":7765:7771   */\n      dup2\n        /* \"#utility.yul\":7760:7763   */\n      dup6\n        /* \"#utility.yul\":7753:7757   */\n      0x20\n        /* \"#utility.yul\":7746:7751   */\n      dup7\n        /* \"#utility.yul\":7742:7758   */\n      add\n        /* \"#utility.yul\":7707:7772   */\n      tag_137\n      jump\t// in\n    tag_266:\n        /* \"#utility.yul\":7797:7826   */\n      tag_267\n        /* \"#utility.yul\":7819:7825   */\n      dup2\n        /* \"#utility.yul\":7797:7826   */\n      tag_113\n      jump\t// in\n    tag_267:\n        /* \"#utility.yul\":7792:7795   */\n      dup5\n        /* \"#utility.yul\":7788:7827   */\n      add\n        /* \"#utility.yul\":7781:7827   */\n      swap2\n      pop\n        /* \"#utility.yul\":7558:7833   */\n      pop\n        /* \"#utility.yul\":7476:7833   */\n      swap3\n      swap2\n      pop\n      pop\n      jump\t// out\n        /* \"#utility.yul\":7839:7947   */\n    tag_139:\n        /* \"#utility.yul\":7916:7940   */\n      tag_269\n        /* \"#utility.yul\":7934:7939   */\n      dup2\n        /* \"#utility.yul\":7916:7940   */\n      tag_128\n      jump\t// in\n    tag_269:\n        /* \"#utility.yul\":7911:7914   */\n      dup3\n        /* \"#utility.yul\":7904:7941   */\n      mstore\n        /* \"#utility.yul\":7839:7947   */\n      pop\n      pop\n      jump\t// out\n        /* \"#utility.yul\":7953:8061   */\n    tag_140:\n        /* \"#utility.yul\":8030:8054   */\n      tag_271\n        /* \"#utility.yul\":8048:8053   */\n      dup2\n        /* \"#utility.yul\":8030:8054   */\n      tag_123\n      jump\t// in\n    tag_271:\n        /* \"#utility.yul\":8025:8028   */\n      dup3\n        /* \"#utility.yul\":8018:8055   */\n      mstore\n        /* \"#utility.yul\":7953:8061   */\n      pop\n      pop\n      jump\t// out\n        /* \"#utility.yul\":8067:8157   */\n    tag_141:\n        /* \"#utility.yul\":8101:8108   */\n      0x00\n        /* \"#utility.yul\":8144:8149   */\n      dup2\n        /* \"#utility.yul\":8137:8150   */\n      iszero\n        /* \"#utility.yul\":8130:8151   */\n      iszero\n        /* \"#utility.yul\":8119:8151   */\n      swap1\n      pop\n        /* \"#utility.yul\":8067:8157   */\n      swap2\n      swap1\n      pop\n      jump\t// out\n        /* \"#utility.yul\":8163:8262   */\n    tag_142:\n        /* \"#utility.yul\":8234:8255   */\n      tag_274\n        /* \"#utility.yul\":8249:8254   */\n      dup2\n        /* \"#utility.yul\":8234:8255   */\n      tag_141\n      jump\t// in\n    tag_274:\n        /* \"#utility.yul\":8229:8232   */\n      dup3\n        /* \"#utility.yul\":8222:8256   */\n      mstore\n        /* \"#utility.yul\":8163:8262   */\n      pop\n      pop\n      jump\t// out\n        /* \"#utility.yul\":8348:9298   */\n    tag_143:\n        /* \"#utility.yul\":8455:8458   */\n      0x00\n        /* \"#utility.yul\":8491:8495   */\n      0x80\n        /* \"#utility.yul\":8486:8489   */\n      dup4\n        /* \"#utility.yul\":8482:8496   */\n      add\n        /* \"#utility.yul\":8578:8582   */\n      0x00\n        /* \"#utility.yul\":8571:8576   */\n      dup4\n        /* \"#utility.yul\":8567:8583   */\n      add\n        /* \"#utility.yul\":8561:8584   */\n      mload\n        /* \"#utility.yul\":8631:8634   */\n      dup5\n        /* \"#utility.yul\":8625:8629   */\n      dup3\n        /* \"#utility.yul\":8621:8635   */\n      sub\n        /* \"#utility.yul\":8614:8618   */\n      0x00\n        /* \"#utility.yul\":8609:8612   */\n      dup7\n        /* \"#utility.yul\":8605:8619   */\n      add\n        /* \"#utility.yul\":8598:8636   */\n      mstore\n        /* \"#utility.yul\":8657:8730   */\n      tag_276\n        /* \"#utility.yul\":8725:8729   */\n      dup3\n        /* \"#utility.yul\":8711:8723   */\n      dup3\n        /* \"#utility.yul\":8657:8730   */\n      tag_138\n      jump\t// in\n    tag_276:\n        /* \"#utility.yul\":8649:8730   */\n      swap2\n      pop\n        /* \"#utility.yul\":8506:8741   */\n      pop\n        /* \"#utility.yul\":8827:8831   */\n      0x20\n        /* \"#utility.yul\":8820:8825   */\n      dup4\n        /* \"#utility.yul\":8816:8832   */\n      add\n        /* \"#utility.yul\":8810:8833   */\n      mload\n        /* \"#utility.yul\":8846:8909   */\n      tag_277\n        /* \"#utility.yul\":8903:8907   */\n      0x20\n        /* \"#utility.yul\":8898:8901   */\n      dup7\n        /* \"#utility.yul\":8894:8908   */\n      add\n        /* \"#utility.yul\":8880:8892   */\n      dup3\n        /* \"#utility.yul\":8846:8909   */\n      tag_139\n      jump\t// in\n    tag_277:\n        /* \"#utility.yul\":8751:8919   */\n      pop\n        /* \"#utility.yul\":9004:9008   */\n      0x40\n        /* \"#utility.yul\":8997:9002   */\n      dup4\n        /* \"#utility.yul\":8993:9009   */\n      add\n        /* \"#utility.yul\":8987:9010   */\n      mload\n        /* \"#utility.yul\":9023:9086   */\n      tag_278\n        /* \"#utility.yul\":9080:9084   */\n      0x40\n        /* \"#utility.yul\":9075:9078   */\n      dup7\n        /* \"#utility.yul\":9071:9085   */\n      add\n        /* \"#utility.yul\":9057:9069   */\n      dup3\n        /* \"#utility.yul\":9023:9086   */\n      tag_140\n      jump\t// in\n    tag_278:\n        /* \"#utility.yul\":8929:9096   */\n      pop\n        /* \"#utility.yul\":9185:9189   */\n      0x60\n        /* \"#utility.yul\":9178:9183   */\n      dup4\n        /* \"#utility.yul\":9174:9190   */\n      add\n        /* \"#utility.yul\":9168:9191   */\n      mload\n        /* \"#utility.yul\":9204:9261   */\n      tag_279\n        /* \"#utility.yul\":9255:9259   */\n      0x60\n        /* \"#utility.yul\":9250:9253   */\n      dup7\n        /* \"#utility.yul\":9246:9260   */\n      add\n        /* \"#utility.yul\":9232:9244   */\n      dup3\n        /* \"#utility.yul\":9204:9261   */\n      tag_142\n      jump\t// in\n    tag_279:\n        /* \"#utility.yul\":9106:9271   */\n      pop\n        /* \"#utility.yul\":9288:9292   */\n      dup1\n        /* \"#utility.yul\":9281:9292   */\n      swap2\n      pop\n        /* \"#utility.yul\":8460:9298   */\n      pop\n        /* \"#utility.yul\":8348:9298   */\n      swap3\n      swap2\n      pop\n      pop\n      jump\t// out\n        /* \"#utility.yul\":9304:9556   */\n    tag_144:\n        /* \"#utility.yul\":9421:9431   */\n      0x00\n        /* \"#utility.yul\":9456:9550   */\n      tag_281\n        /* \"#utility.yul\":9546:9549   */\n      dup4\n        /* \"#utility.yul\":9538:9544   */\n      dup4\n        /* \"#utility.yul\":9456:9550   */\n      tag_143\n      jump\t// in\n    tag_281:\n        /* \"#utility.yul\":9442:9550   */\n      swap1\n      pop\n        /* \"#utility.yul\":9304:9556   */\n      swap3\n      swap2\n      pop\n      pop\n      jump\t// out\n        /* \"#utility.yul\":9562:9699   */\n    tag_145:\n        /* \"#utility.yul\":9656:9660   */\n      0x00\n        /* \"#utility.yul\":9688:9692   */\n      0x20\n        /* \"#utility.yul\":9683:9686   */\n      dup3\n        /* \"#utility.yul\":9679:9693   */\n      add\n        /* \"#utility.yul\":9671:9693   */\n      swap1\n      pop\n        /* \"#utility.yul\":9562:9699   */\n      swap2\n      swap1\n      pop\n      jump\t// out\n        /* \"#utility.yul\":9789:10892   */\n    tag_146:\n        /* \"#utility.yul\":9956:9959   */\n      0x00\n        /* \"#utility.yul\":9985:10063   */\n      tag_284\n        /* \"#utility.yul\":10057:10062   */\n      dup3\n        /* \"#utility.yul\":9985:10063   */\n      tag_132\n      jump\t// in\n    tag_284:\n        /* \"#utility.yul\":10079:10189   */\n      tag_285\n        /* \"#utility.yul\":10182:10188   */\n      dup2\n        /* \"#utility.yul\":10177:10180   */\n      dup6\n        /* \"#utility.yul\":10079:10189   */\n      tag_133\n      jump\t// in\n    tag_285:\n        /* \"#utility.yul\":10072:10189   */\n      swap4\n      pop\n        /* \"#utility.yul\":10215:10218   */\n      dup4\n        /* \"#utility.yul\":10260:10264   */\n      0x20\n        /* \"#utility.yul\":10252:10258   */\n      dup3\n        /* \"#utility.yul\":10248:10265   */\n      mul\n        /* \"#utility.yul\":10243:10246   */\n      dup6\n        /* \"#utility.yul\":10239:10266   */\n      add\n        /* \"#utility.yul\":10290:10370   */\n      tag_286\n        /* \"#utility.yul\":10364:10369   */\n      dup6\n        /* \"#utility.yul\":10290:10370   */\n      tag_134\n      jump\t// in\n    tag_286:\n        /* \"#utility.yul\":10393:10400   */\n      dup1\n        /* \"#utility.yul\":10424:10425   */\n      0x00\n        /* \"#utility.yul\":10409:10847   */\n    tag_287:\n        /* \"#utility.yul\":10434:10440   */\n      dup6\n        /* \"#utility.yul\":10431:10432   */\n      dup2\n        /* \"#utility.yul\":10428:10441   */\n      lt\n        /* \"#utility.yul\":10409:10847   */\n      iszero\n      tag_289\n      jumpi\n        /* \"#utility.yul\":10505:10514   */\n      dup5\n        /* \"#utility.yul\":10499:10503   */\n      dup5\n        /* \"#utility.yul\":10495:10515   */\n      sub\n        /* \"#utility.yul\":10490:10493   */\n      dup10\n        /* \"#utility.yul\":10483:10516   */\n      mstore\n        /* \"#utility.yul\":10556:10562   */\n      dup2\n        /* \"#utility.yul\":10550:10563   */\n      mload\n        /* \"#utility.yul\":10584:10696   */\n      tag_290\n        /* \"#utility.yul\":10691:10695   */\n      dup6\n        /* \"#utility.yul\":10676:10689   */\n      dup3\n        /* \"#utility.yul\":10584:10696   */\n      tag_144\n      jump\t// in\n    tag_290:\n        /* \"#utility.yul\":10576:10696   */\n      swap5\n      pop\n        /* \"#utility.yul\":10719:10803   */\n      tag_291\n        /* \"#utility.yul\":10796:10802   */\n      dup4\n        /* \"#utility.yul\":10719:10803   */\n      tag_145\n      jump\t// in\n    tag_291:\n        /* \"#utility.yul\":10709:10803   */\n      swap3\n      pop\n        /* \"#utility.yul\":10832:10836   */\n      0x20\n        /* \"#utility.yul\":10827:10830   */\n      dup11\n        /* \"#utility.yul\":10823:10837   */\n      add\n        /* \"#utility.yul\":10816:10837   */\n      swap10\n      pop\n        /* \"#utility.yul\":10469:10847   */\n      pop\n        /* \"#utility.yul\":10456:10457   */\n      0x01\n        /* \"#utility.yul\":10453:10454   */\n      dup2\n        /* \"#utility.yul\":10449:10458   */\n      add\n        /* \"#utility.yul\":10444:10458   */\n      swap1\n      pop\n        /* \"#utility.yul\":10409:10847   */\n      jump(tag_287)\n    tag_289:\n        /* \"#utility.yul\":10413:10427   */\n      pop\n        /* \"#utility.yul\":10863:10867   */\n      dup3\n        /* \"#utility.yul\":10856:10867   */\n      swap8\n      pop\n        /* \"#utility.yul\":10883:10886   */\n      dup8\n        /* \"#utility.yul\":10876:10886   */\n      swap6\n      pop\n        /* \"#utility.yul\":9961:10892   */\n      pop\n      pop\n      pop\n      pop\n      pop\n        /* \"#utility.yul\":9789:10892   */\n      swap3\n      swap2\n      pop\n      pop\n      jump\t// out\n        /* \"#utility.yul\":10898:11367   */\n    tag_19:\n        /* \"#utility.yul\":11089:11093   */\n      0x00\n        /* \"#utility.yul\":11127:11129   */\n      0x20\n        /* \"#utility.yul\":11116:11125   */\n      dup3\n        /* \"#utility.yul\":11112:11130   */\n      add\n        /* \"#utility.yul\":11104:11130   */\n      swap1\n      pop\n        /* \"#utility.yul\":11176:11185   */\n      dup2\n        /* \"#utility.yul\":11170:11174   */\n      dup2\n        /* \"#utility.yul\":11166:11186   */\n      sub\n        /* \"#utility.yul\":11162:11163   */\n      0x00\n        /* \"#utility.yul\":11151:11160   */\n      dup4\n        /* \"#utility.yul\":11147:11164   */\n      add\n        /* \"#utility.yul\":11140:11187   */\n      mstore\n        /* \"#utility.yul\":11204:11360   */\n      tag_293\n        /* \"#utility.yul\":11355:11359   */\n      dup2\n        /* \"#utility.yul\":11346:11352   */\n      dup5\n        /* \"#utility.yul\":11204:11360   */\n      tag_146\n      jump\t// in\n    tag_293:\n        /* \"#utility.yul\":11196:11360   */\n      swap1\n      pop\n        /* \"#utility.yul\":10898:11367   */\n      swap3\n      swap2\n      pop\n      pop\n      jump\t// out\n        /* \"#utility.yul\":11373:11847   */\n    tag_22:\n        /* \"#utility.yul\":11441:11447   */\n      0x00\n        /* \"#utility.yul\":11449:11455   */\n      dup1\n        /* \"#utility.yul\":11498:11500   */\n      0x40\n        /* \"#utility.yul\":11486:11495   */\n      dup4\n        /* \"#utility.yul\":11477:11484   */\n      dup6\n        /* \"#utility.yul\":11473:11496   */\n      sub\n        /* \"#utility.yul\":11469:11501   */\n      slt\n        /* \"#utility.yul\":11466:11585   */\n      iszero\n      tag_295\n      jumpi\n        /* \"#utility.yul\":11504:11583   */\n      tag_296\n      tag_109\n      jump\t// in\n    tag_296:\n        /* \"#utility.yul\":11466:11585   */\n    tag_295:\n        /* \"#utility.yul\":11624:11625   */\n      0x00\n        /* \"#utility.yul\":11649:11702   */\n      tag_297\n        /* \"#utility.yul\":11694:11701   */\n      dup6\n        /* \"#utility.yul\":11685:11691   */\n      dup3\n        /* \"#utility.yul\":11674:11683   */\n      dup7\n        /* \"#utility.yul\":11670:11692   */\n      add\n        /* \"#utility.yul\":11649:11702   */\n      tag_131\n      jump\t// in\n    tag_297:\n        /* \"#utility.yul\":11639:11702   */\n      swap3\n      pop\n        /* \"#utility.yul\":11595:11712   */\n      pop\n        /* \"#utility.yul\":11751:11753   */\n      0x20\n        /* \"#utility.yul\":11777:11830   */\n      tag_298\n        /* \"#utility.yul\":11822:11829   */\n      dup6\n        /* \"#utility.yul\":11813:11819   */\n      dup3\n        /* \"#utility.yul\":11802:11811   */\n      dup7\n        /* \"#utility.yul\":11798:11820   */\n      add\n        /* \"#utility.yul\":11777:11830   */\n      tag_125\n      jump\t// in\n    tag_298:\n        /* \"#utility.yul\":11767:11830   */\n      swap2\n      pop\n        /* \"#utility.yul\":11722:11840   */\n      pop\n        /* \"#utility.yul\":11373:11847   */\n      swap3\n      pop\n      swap3\n      swap1\n      pop\n      jump\t// out\n        /* \"#utility.yul\":11853:11962   */\n    tag_147:\n        /* \"#utility.yul\":11934:11955   */\n      tag_300\n        /* \"#utility.yul\":11949:11954   */\n      dup2\n        /* \"#utility.yul\":11934:11955   */\n      tag_141\n      jump\t// in\n    tag_300:\n        /* \"#utility.yul\":11929:11932   */\n      dup3\n        /* \"#utility.yul\":11922:11956   */\n      mstore\n        /* \"#utility.yul\":11853:11962   */\n      pop\n      pop\n      jump\t// out\n        /* \"#utility.yul\":11968:12178   */\n    tag_25:\n        /* \"#utility.yul\":12055:12059   */\n      0x00\n        /* \"#utility.yul\":12093:12095   */\n      0x20\n        /* \"#utility.yul\":12082:12091   */\n      dup3\n        /* \"#utility.yul\":12078:12096   */\n      add\n        /* \"#utility.yul\":12070:12096   */\n      swap1\n      pop\n        /* \"#utility.yul\":12106:12171   */\n      tag_302\n        /* \"#utility.yul\":12168:12169   */\n      0x00\n        /* \"#utility.yul\":12157:12166   */\n      dup4\n        /* \"#utility.yul\":12153:12170   */\n      add\n        /* \"#utility.yul\":12144:12150   */\n      dup5\n        /* \"#utility.yul\":12106:12171   */\n      tag_147\n      jump\t// in\n    tag_302:\n        /* \"#utility.yul\":11968:12178   */\n      swap3\n      swap2\n      pop\n      pop\n      jump\t// out\n        /* \"#utility.yul\":12184:12353   */\n    tag_148:\n        /* \"#utility.yul\":12268:12279   */\n      0x00\n        /* \"#utility.yul\":12302:12308   */\n      dup3\n        /* \"#utility.yul\":12297:12300   */\n      dup3\n        /* \"#utility.yul\":12290:12309   */\n      mstore\n        /* \"#utility.yul\":12342:12346   */\n      0x20\n        /* \"#utility.yul\":12337:12340   */\n      dup3\n        /* \"#utility.yul\":12333:12347   */\n      add\n        /* \"#utility.yul\":12318:12347   */\n      swap1\n      pop\n        /* \"#utility.yul\":12184:12353   */\n      swap3\n      swap2\n      pop\n      pop\n      jump\t// out\n        /* \"#utility.yul\":12359:12736   */\n    tag_149:\n        /* \"#utility.yul\":12447:12450   */\n      0x00\n        /* \"#utility.yul\":12475:12514   */\n      tag_305\n        /* \"#utility.yul\":12508:12513   */\n      dup3\n        /* \"#utility.yul\":12475:12514   */\n      tag_135\n      jump\t// in\n    tag_305:\n        /* \"#utility.yul\":12530:12601   */\n      tag_306\n        /* \"#utility.yul\":12594:12600   */\n      dup2\n        /* \"#utility.yul\":12589:12592   */\n      dup6\n        /* \"#utility.yul\":12530:12601   */\n      tag_148\n      jump\t// in\n    tag_306:\n        /* \"#utility.yul\":12523:12601   */\n      swap4\n      pop\n        /* \"#utility.yul\":12610:12675   */\n      tag_307\n        /* \"#utility.yul\":12668:12674   */\n      dup2\n        /* \"#utility.yul\":12663:12666   */\n      dup6\n        /* \"#utility.yul\":12656:12660   */\n      0x20\n        /* \"#utility.yul\":12649:12654   */\n      dup7\n        /* \"#utility.yul\":12645:12661   */\n      add\n        /* \"#utility.yul\":12610:12675   */\n      tag_137\n      jump\t// in\n    tag_307:\n        /* \"#utility.yul\":12700:12729   */\n      tag_308\n        /* \"#utility.yul\":12722:12728   */\n      dup2\n        /* \"#utility.yul\":12700:12729   */\n      tag_113\n      jump\t// in\n    tag_308:\n        /* \"#utility.yul\":12695:12698   */\n      dup5\n        /* \"#utility.yul\":12691:12730   */\n      add\n        /* \"#utility.yul\":12684:12730   */\n      swap2\n      pop\n        /* \"#utility.yul\":12451:12736   */\n      pop\n        /* \"#utility.yul\":12359:12736   */\n      swap3\n      swap2\n      pop\n      pop\n      jump\t// out\n        /* \"#utility.yul\":12742:13165   */\n    tag_30:\n        /* \"#utility.yul\":12883:12887   */\n      0x00\n        /* \"#utility.yul\":12921:12923   */\n      0x40\n        /* \"#utility.yul\":12910:12919   */\n      dup3\n        /* \"#utility.yul\":12906:12924   */\n      add\n        /* \"#utility.yul\":12898:12924   */\n      swap1\n      pop\n        /* \"#utility.yul\":12970:12979   */\n      dup2\n        /* \"#utility.yul\":12964:12968   */\n      dup2\n        /* \"#utility.yul\":12960:12980   */\n      sub\n        /* \"#utility.yul\":12956:12957   */\n      0x00\n        /* \"#utility.yul\":12945:12954   */\n      dup4\n        /* \"#utility.yul\":12941:12958   */\n      add\n        /* \"#utility.yul\":12934:12981   */\n      mstore\n        /* \"#utility.yul\":12998:13076   */\n      tag_310\n        /* \"#utility.yul\":13071:13075   */\n      dup2\n        /* \"#utility.yul\":13062:13068   */\n      dup6\n        /* \"#utility.yul\":12998:13076   */\n      tag_149\n      jump\t// in\n    tag_310:\n        /* \"#utility.yul\":12990:13076   */\n      swap1\n      pop\n        /* \"#utility.yul\":13086:13158   */\n      tag_311\n        /* \"#utility.yul\":13154:13156   */\n      0x20\n        /* \"#utility.yul\":13143:13152   */\n      dup4\n        /* \"#utility.yul\":13139:13157   */\n      add\n        /* \"#utility.yul\":13130:13136   */\n      dup5\n        /* \"#utility.yul\":13086:13158   */\n      tag_129\n      jump\t// in\n    tag_311:\n        /* \"#utility.yul\":12742:13165   */\n      swap4\n      swap3\n      pop\n      pop\n      pop\n      jump\t// out\n        /* \"#utility.yul\":13171:13970   */\n    tag_33:\n        /* \"#utility.yul\":13258:13264   */\n      0x00\n        /* \"#utility.yul\":13266:13272   */\n      dup1\n        /* \"#utility.yul\":13274:13280   */\n      0x00\n        /* \"#utility.yul\":13323:13325   */\n      0x60\n        /* \"#utility.yul\":13311:13320   */\n      dup5\n        /* \"#utility.yul\":13302:13309   */\n      dup7\n        /* \"#utility.yul\":13298:13321   */\n      sub\n        /* \"#utility.yul\":13294:13326   */\n      slt\n        /* \"#utility.yul\":13291:13410   */\n      iszero\n      tag_313\n      jumpi\n        /* \"#utility.yul\":13329:13408   */\n      tag_314\n      tag_109\n      jump\t// in\n    tag_314:\n        /* \"#utility.yul\":13291:13410   */\n    tag_313:\n        /* \"#utility.yul\":13449:13450   */\n      0x00\n        /* \"#utility.yul\":13474:13527   */\n      tag_315\n        /* \"#utility.yul\":13519:13526   */\n      dup7\n        /* \"#utility.yul\":13510:13516   */\n      dup3\n        /* \"#utility.yul\":13499:13508   */\n      dup8\n        /* \"#utility.yul\":13495:13517   */\n      add\n        /* \"#utility.yul\":13474:13527   */\n      tag_131\n      jump\t// in\n    tag_315:\n        /* \"#utility.yul\":13464:13527   */\n      swap4\n      pop\n        /* \"#utility.yul\":13420:13537   */\n      pop\n        /* \"#utility.yul\":13604:13606   */\n      0x20\n        /* \"#utility.yul\":13593:13602   */\n      dup5\n        /* \"#utility.yul\":13589:13607   */\n      add\n        /* \"#utility.yul\":13576:13608   */\n      calldataload\n        /* \"#utility.yul\":13635:13653   */\n      0xffffffffffffffff\n        /* \"#utility.yul\":13627:13633   */\n      dup2\n        /* \"#utility.yul\":13624:13654   */\n      gt\n        /* \"#utility.yul\":13621:13738   */\n      iszero\n      tag_316\n      jumpi\n        /* \"#utility.yul\":13657:13736   */\n      tag_317\n      tag_110\n      jump\t// in\n    tag_317:\n        /* \"#utility.yul\":13621:13738   */\n    tag_316:\n        /* \"#utility.yul\":13762:13825   */\n      tag_318\n        /* \"#utility.yul\":13817:13824   */\n      dup7\n        /* \"#utility.yul\":13808:13814   */\n      dup3\n        /* \"#utility.yul\":13797:13806   */\n      dup8\n        /* \"#utility.yul\":13793:13815   */\n      add\n        /* \"#utility.yul\":13762:13825   */\n      tag_119\n      jump\t// in\n    tag_318:\n        /* \"#utility.yul\":13752:13825   */\n      swap3\n      pop\n        /* \"#utility.yul\":13547:13835   */\n      pop\n        /* \"#utility.yul\":13874:13876   */\n      0x40\n        /* \"#utility.yul\":13900:13953   */\n      tag_319\n        /* \"#utility.yul\":13945:13952   */\n      dup7\n        /* \"#utility.yul\":13936:13942   */\n      dup3\n        /* \"#utility.yul\":13925:13934   */\n      dup8\n        /* \"#utility.yul\":13921:13943   */\n      add\n        /* \"#utility.yul\":13900:13953   */\n      tag_131\n      jump\t// in\n    tag_319:\n        /* \"#utility.yul\":13890:13953   */\n      swap2\n      pop\n        /* \"#utility.yul\":13845:13963   */\n      pop\n        /* \"#utility.yul\":13171:13970   */\n      swap3\n      pop\n      swap3\n      pop\n      swap3\n      jump\t// out\n        /* \"#utility.yul\":13976:14151   */\n    tag_150:\n        /* \"#utility.yul\":14116:14143   */\n      0x4c697374206e616d652063616e6e6f7420626520656d70747900000000000000\n        /* \"#utility.yul\":14112:14113   */\n      0x00\n        /* \"#utility.yul\":14104:14110   */\n      dup3\n        /* \"#utility.yul\":14100:14114   */\n      add\n        /* \"#utility.yul\":14093:14144   */\n      mstore\n        /* \"#utility.yul\":13976:14151   */\n      pop\n      jump\t// out\n        /* \"#utility.yul\":14157:14523   */\n    tag_151:\n        /* \"#utility.yul\":14299:14302   */\n      0x00\n        /* \"#utility.yul\":14320:14387   */\n      tag_322\n        /* \"#utility.yul\":14384:14386   */\n      0x19\n        /* \"#utility.yul\":14379:14382   */\n      dup4\n        /* \"#utility.yul\":14320:14387   */\n      tag_148\n      jump\t// in\n    tag_322:\n        /* \"#utility.yul\":14313:14387   */\n      swap2\n      pop\n        /* \"#utility.yul\":14396:14489   */\n      tag_323\n        /* \"#utility.yul\":14485:14488   */\n      dup3\n        /* \"#utility.yul\":14396:14489   */\n      tag_150\n      jump\t// in\n    tag_323:\n        /* \"#utility.yul\":14514:14516   */\n      0x20\n        /* \"#utility.yul\":14509:14512   */\n      dup3\n        /* \"#utility.yul\":14505:14517   */\n      add\n        /* \"#utility.yul\":14498:14517   */\n      swap1\n      pop\n        /* \"#utility.yul\":14157:14523   */\n      swap2\n      swap1\n      pop\n      jump\t// out\n        /* \"#utility.yul\":14529:14948   */\n    tag_38:\n        /* \"#utility.yul\":14695:14699   */\n      0x00\n        /* \"#utility.yul\":14733:14735   */\n      0x20\n        /* \"#utility.yul\":14722:14731   */\n      dup3\n        /* \"#utility.yul\":14718:14736   */\n      add\n        /* \"#utility.yul\":14710:14736   */\n      swap1\n      pop\n        /* \"#utility.yul\":14782:14791   */\n      dup2\n        /* \"#utility.yul\":14776:14780   */\n      dup2\n        /* \"#utility.yul\":14772:14792   */\n      sub\n        /* \"#utility.yul\":14768:14769   */\n      0x00\n        /* \"#utility.yul\":14757:14766   */\n      dup4\n        /* \"#utility.yul\":14753:14770   */\n      add\n        /* \"#utility.yul\":14746:14793   */\n      mstore\n        /* \"#utility.yul\":14810:14941   */\n      tag_325\n        /* \"#utility.yul\":14936:14940   */\n      dup2\n        /* \"#utility.yul\":14810:14941   */\n      tag_151\n      jump\t// in\n    tag_325:\n        /* \"#utility.yul\":14802:14941   */\n      swap1\n      pop\n        /* \"#utility.yul\":14529:14948   */\n      swap2\n      swap1\n      pop\n      jump\t// out\n        /* \"#utility.yul\":14954:15135   */\n    tag_152:\n        /* \"#utility.yul\":15094:15127   */\n      0x4174206c65617374206f6e65206d656d62657220697320726571756972656400\n        /* \"#utility.yul\":15090:15091   */\n      0x00\n        /* \"#utility.yul\":15082:15088   */\n      dup3\n        /* \"#utility.yul\":15078:15092   */\n      add\n        /* \"#utility.yul\":15071:15128   */\n      mstore\n        /* \"#utility.yul\":14954:15135   */\n      pop\n      jump\t// out\n        /* \"#utility.yul\":15141:15507   */\n    tag_153:\n        /* \"#utility.yul\":15283:15286   */\n      0x00\n        /* \"#utility.yul\":15304:15371   */\n      tag_328\n        /* \"#utility.yul\":15368:15370   */\n      0x1f\n        /* \"#utility.yul\":15363:15366   */\n      dup4\n        /* \"#utility.yul\":15304:15371   */\n      tag_148\n      jump\t// in\n    tag_328:\n        /* \"#utility.yul\":15297:15371   */\n      swap2\n      pop\n        /* \"#utility.yul\":15380:15473   */\n      tag_329\n        /* \"#utility.yul\":15469:15472   */\n      dup3\n        /* \"#utility.yul\":15380:15473   */\n      tag_152\n      jump\t// in\n    tag_329:\n        /* \"#utility.yul\":15498:15500   */\n      0x20\n        /* \"#utility.yul\":15493:15496   */\n      dup3\n        /* \"#utility.yul\":15489:15501   */\n      add\n        /* \"#utility.yul\":15482:15501   */\n      swap1\n      pop\n        /* \"#utility.yul\":15141:15507   */\n      swap2\n      swap1\n      pop\n      jump\t// out\n        /* \"#utility.yul\":15513:15932   */\n    tag_41:\n        /* \"#utility.yul\":15679:15683   */\n      0x00\n        /* \"#utility.yul\":15717:15719   */\n      0x20\n        /* \"#utility.yul\":15706:15715   */\n      dup3\n        /* \"#utility.yul\":15702:15720   */\n      add\n        /* \"#utility.yul\":15694:15720   */\n      swap1\n      pop\n        /* \"#utility.yul\":15766:15775   */\n      dup2\n        /* \"#utility.yul\":15760:15764   */\n      dup2\n        /* \"#utility.yul\":15756:15776   */\n      sub\n        /* \"#utility.yul\":15752:15753   */\n      0x00\n        /* \"#utility.yul\":15741:15750   */\n      dup4\n        /* \"#utility.yul\":15737:15754   */\n      add\n        /* \"#utility.yul\":15730:15777   */\n      mstore\n        /* \"#utility.yul\":15794:15925   */\n      tag_331\n        /* \"#utility.yul\":15920:15924   */\n      dup2\n        /* \"#utility.yul\":15794:15925   */\n      tag_153\n      jump\t// in\n    tag_331:\n        /* \"#utility.yul\":15786:15925   */\n      swap1\n      pop\n        /* \"#utility.yul\":15513:15932   */\n      swap2\n      swap1\n      pop\n      jump\t// out\n        /* \"#utility.yul\":15938:16118   */\n    tag_154:\n        /* \"#utility.yul\":15986:16063   */\n      0x4e487b7100000000000000000000000000000000000000000000000000000000\n        /* \"#utility.yul\":15983:15984   */\n      0x00\n        /* \"#utility.yul\":15976:16064   */\n      mstore\n        /* \"#utility.yul\":16083:16087   */\n      0x22\n        /* \"#utility.yul\":16080:16081   */\n      0x04\n        /* \"#utility.yul\":16073:16088   */\n      mstore\n        /* \"#utility.yul\":16107:16111   */\n      0x24\n        /* \"#utility.yul\":16104:16105   */\n      0x00\n        /* \"#utility.yul\":16097:16112   */\n      revert\n        /* \"#utility.yul\":16124:16444   */\n    tag_75:\n        /* \"#utility.yul\":16168:16174   */\n      0x00\n        /* \"#utility.yul\":16205:16206   */\n      0x02\n        /* \"#utility.yul\":16199:16203   */\n      dup3\n        /* \"#utility.yul\":16195:16207   */\n      div\n        /* \"#utility.yul\":16185:16207   */\n      swap1\n      pop\n        /* \"#utility.yul\":16252:16253   */\n      0x01\n        /* \"#utility.yul\":16246:16250   */\n      dup3\n        /* \"#utility.yul\":16242:16254   */\n      and\n        /* \"#utility.yul\":16273:16291   */\n      dup1\n        /* \"#utility.yul\":16263:16344   */\n      tag_334\n      jumpi\n        /* \"#utility.yul\":16329:16333   */\n      0x7f\n        /* \"#utility.yul\":16321:16327   */\n      dup3\n        /* \"#utility.yul\":16317:16334   */\n      and\n        /* \"#utility.yul\":16307:16334   */\n      swap2\n      pop\n        /* \"#utility.yul\":16263:16344   */\n    tag_334:\n        /* \"#utility.yul\":16391:16393   */\n      0x20\n        /* \"#utility.yul\":16383:16389   */\n      dup3\n        /* \"#utility.yul\":16380:16394   */\n      lt\n        /* \"#utility.yul\":16360:16378   */\n      dup2\n        /* \"#utility.yul\":16357:16395   */\n      sub\n        /* \"#utility.yul\":16354:16438   */\n      tag_335\n      jumpi\n        /* \"#utility.yul\":16410:16428   */\n      tag_336\n      tag_154\n      jump\t// in\n    tag_336:\n        /* \"#utility.yul\":16354:16438   */\n    tag_335:\n        /* \"#utility.yul\":16175:16444   */\n      pop\n        /* \"#utility.yul\":16124:16444   */\n      swap2\n      swap1\n      pop\n      jump\t// out\n        /* \"#utility.yul\":16450:16591   */\n    tag_155:\n        /* \"#utility.yul\":16499:16503   */\n      0x00\n        /* \"#utility.yul\":16522:16525   */\n      dup2\n        /* \"#utility.yul\":16514:16525   */\n      swap1\n      pop\n        /* \"#utility.yul\":16545:16548   */\n      dup2\n        /* \"#utility.yul\":16542:16543   */\n      0x00\n        /* \"#utility.yul\":16535:16549   */\n      mstore\n        /* \"#utility.yul\":16579:16583   */\n      0x20\n        /* \"#utility.yul\":16576:16577   */\n      0x00\n        /* \"#utility.yul\":16566:16584   */\n      keccak256\n        /* \"#utility.yul\":16558:16584   */\n      swap1\n      pop\n        /* \"#utility.yul\":16450:16591   */\n      swap2\n      swap1\n      pop\n      jump\t// out\n        /* \"#utility.yul\":16597:16690   */\n    tag_156:\n        /* \"#utility.yul\":16634:16640   */\n      0x00\n        /* \"#utility.yul\":16681:16683   */\n      0x20\n        /* \"#utility.yul\":16676:16678   */\n      0x1f\n        /* \"#utility.yul\":16669:16674   */\n      dup4\n        /* \"#utility.yul\":16665:16679   */\n      add\n        /* \"#utility.yul\":16661:16684   */\n      div\n        /* \"#utility.yul\":16651:16684   */\n      swap1\n      pop\n        /* \"#utility.yul\":16597:16690   */\n      swap2\n      swap1\n      pop\n      jump\t// out\n        /* \"#utility.yul\":16696:16803   */\n    tag_157:\n        /* \"#utility.yul\":16740:16748   */\n      0x00\n        /* \"#utility.yul\":16790:16795   */\n      dup3\n        /* \"#utility.yul\":16784:16788   */\n      dup3\n        /* \"#utility.yul\":16780:16796   */\n      shl\n        /* \"#utility.yul\":16759:16796   */\n      swap1\n      pop\n        /* \"#utility.yul\":16696:16803   */\n      swap3\n      swap2\n      pop\n      pop\n      jump\t// out\n        /* \"#utility.yul\":16809:17202   */\n    tag_158:\n        /* \"#utility.yul\":16878:16884   */\n      0x00\n        /* \"#utility.yul\":16928:16929   */\n      0x08\n        /* \"#utility.yul\":16916:16926   */\n      dup4\n        /* \"#utility.yul\":16912:16930   */\n      mul\n        /* \"#utility.yul\":16951:17048   */\n      tag_341\n        /* \"#utility.yul\":16981:17047   */\n      0xffffffffffffffffffffffffffffffffffffffffffffffffffffffffffffffff\n        /* \"#utility.yul\":16970:16979   */\n      dup3\n        /* \"#utility.yul\":16951:17048   */\n      tag_157\n      jump\t// in\n    tag_341:\n        /* \"#utility.yul\":17069:17108   */\n      tag_342\n        /* \"#utility.yul\":17099:17107   */\n      dup7\n        /* \"#utility.yul\":17088:17097   */\n      dup4\n        /* \"#utility.yul\":17069:17108   */\n      tag_157\n      jump\t// in\n    tag_342:\n        /* \"#utility.yul\":17057:17108   */\n      swap6\n      pop\n        /* \"#utility.yul\":17141:17145   */\n      dup1\n        /* \"#utility.yul\":17137:17146   */\n      not\n        /* \"#utility.yul\":17130:17135   */\n      dup5\n        /* \"#utility.yul\":17126:17147   */\n      and\n        /* \"#utility.yul\":17117:17147   */\n      swap4\n      pop\n        /* \"#utility.yul\":17190:17194   */\n      dup1\n        /* \"#utility.yul\":17180:17188   */\n      dup7\n        /* \"#utility.yul\":17176:17195   */\n      and\n        /* \"#utility.yul\":17169:17174   */\n      dup5\n        /* \"#utility.yul\":17166:17196   */\n      or\n        /* \"#utility.yul\":17156:17196   */\n      swap3\n      pop\n        /* \"#utility.yul\":16885:17202   */\n      pop\n      pop\n        /* \"#utility.yul\":16809:17202   */\n      swap4\n      swap3\n      pop\n      pop\n      pop\n      jump\t// out\n        /* \"#utility.yul\":17208:17268   */\n    tag_159:\n        /* \"#utility.yul\":17236:17239   */\n      0x00\n        /* \"#utility.yul\":17257:17262   */\n      dup2\n        /* \"#utility.yul\":17250:17262   */\n      swap1\n      pop\n        /* \"#utility.yul\":17208:17268   */\n      swap2\n      swap1\n      pop\n      jump\t// out\n        /* \"#utility.yul\":17274:17416   */\n    tag_160:\n        /* \"#utility.yul\":17324:17333   */\n      0x00\n        /* \"#utility.yul\":17357:17410   */\n      tag_345\n        /* \"#utility.yul\":17375:17409   */\n      tag_346\n        /* \"#utility.yul\":17384:17408   */\n      tag_347\n        /* \"#utility.yul\":17402:17407   */\n      dup5\n        /* \"#utility.yul\":17384:17408   */\n      tag_128\n      jump\t// in\n    tag_347:\n        /* \"#utility.yul\":17375:17409   */\n      tag_159\n      jump\t// in\n    tag_346:\n        /* \"#utility.yul\":17357:17410   */\n      tag_128\n      jump\t// in\n    tag_345:\n        /* \"#utility.yul\":17344:17410   */\n      swap1\n      pop\n        /* \"#utility.yul\":17274:17416   */\n      swap2\n      swap1\n      pop\n      jump\t// out\n        /* \"#utility.yul\":17422:17497   */\n    tag_161:\n        /* \"#utility.yul\":17465:17468   */\n      0x00\n        /* \"#utility.yul\":17486:17491   */\n      dup2\n        /* \"#utility.yul\":17479:17491   */\n      swap1\n      pop\n        /* \"#utility.yul\":17422:17497   */\n      swap2\n      swap1\n      pop\n      jump\t// out\n        /* \"#utility.yul\":17503:17772   */\n    tag_162:\n        /* \"#utility.yul\":17613:17652   */\n      tag_350\n        /* \"#utility.yul\":17644:17651   */\n      dup4\n        /* \"#utility.yul\":17613:17652   */\n      tag_160\n      jump\t// in\n    tag_350:\n        /* \"#utility.yul\":17674:17765   */\n      tag_351\n        /* \"#utility.yul\":17723:17764   */\n      tag_352\n        /* \"#utility.yul\":17747:17763   */\n      dup3\n        /* \"#utility.yul\":17723:17764   */\n      tag_161\n      jump\t// in\n    tag_352:\n        /* \"#utility.yul\":17715:17721   */\n      dup5\n        /* \"#utility.yul\":17708:17712   */\n      dup5\n        /* \"#utility.yul\":17702:17713   */\n      sload\n        /* \"#utility.yul\":17674:17765   */\n      tag_158\n      jump\t// in\n    tag_351:\n        /* \"#utility.yul\":17668:17672   */\n      dup3\n        /* \"#utility.yul\":17661:17766   */\n      sstore\n        /* \"#utility.yul\":17579:17772   */\n      pop\n        /* \"#utility.yul\":17503:17772   */\n      pop\n      pop\n      pop\n      jump\t// out\n        /* \"#utility.yul\":17778:17851   */\n    tag_163:\n        /* \"#utility.yul\":17823:17826   */\n      0x00\n        /* \"#utility.yul\":17778:17851   */\n      swap1\n      jump\t// out\n        /* \"#utility.yul\":17857:18046   */\n    tag_164:\n        /* \"#utility.yul\":17934:17966   */\n      tag_355\n      tag_163\n      jump\t// in\n    tag_355:\n        /* \"#utility.yul\":17975:18040   */\n      tag_356\n        /* \"#utility.yul\":18033:18039   */\n      dup2\n        /* \"#utility.yul\":18025:18031   */\n      dup5\n        /* \"#utility.yul\":18019:18023   */\n      dup5\n        /* \"#utility.yul\":17975:18040   */\n      tag_162\n      jump\t// in\n    tag_356:\n        /* \"#utility.yul\":17910:18046   */\n      pop\n        /* \"#utility.yul\":17857:18046   */\n      pop\n      pop\n      jump\t// out\n        /* \"#utility.yul\":18052:18238   */\n    tag_165:\n        /* \"#utility.yul\":18112:18232   */\n    tag_358:\n        /* \"#utility.yul\":18129:18132   */\n      dup2\n        /* \"#utility.yul\":18122:18127   */\n      dup2\n        /* \"#utility.yul\":18119:18133   */\n      lt\n        /* \"#utility.yul\":18112:18232   */\n      iszero\n      tag_360\n      jumpi\n        /* \"#utility.yul\":18183:18222   */\n      tag_361\n        /* \"#utility.yul\":18220:18221   */\n      0x00\n        /* \"#utility.yul\":18213:18218   */\n      dup3\n        /* \"#utility.yul\":18183:18222   */\n      tag_164\n      jump\t// in\n    tag_361:\n        /* \"#utility.yul\":18156:18157   */\n      0x01\n        /* \"#utility.yul\":18149:18154   */\n      dup2\n        /* \"#utility.yul\":18145:18158   */\n      add\n        /* \"#utility.yul\":18136:18158   */\n      swap1\n      pop\n        /* \"#utility.yul\":18112:18232   */\n      jump(tag_358)\n    tag_360:\n        /* \"#utility.yul\":18052:18238   */\n      pop\n      pop\n      jump\t// out\n        /* \"#utility.yul\":18244:18787   */\n    tag_166:\n        /* \"#utility.yul\":18345:18347   */\n      0x1f\n        /* \"#utility.yul\":18340:18343   */\n      dup3\n        /* \"#utility.yul\":18337:18348   */\n      gt\n        /* \"#utility.yul\":18334:18780   */\n      iszero\n      tag_363\n      jumpi\n        /* \"#utility.yul\":18379:18417   */\n      tag_364\n        /* \"#utility.yul\":18411:18416   */\n      dup2\n        /* \"#utility.yul\":18379:18417   */\n      tag_155\n      jump\t// in\n    tag_364:\n        /* \"#utility.yul\":18463:18492   */\n      tag_365\n        /* \"#utility.yul\":18481:18491   */\n      dup5\n        /* \"#utility.yul\":18463:18492   */\n      tag_156\n      jump\t// in\n    tag_365:\n        /* \"#utility.yul\":18453:18461   */\n      dup2\n        /* \"#utility.yul\":18449:18493   */\n      add\n        /* \"#utility.yul\":18646:18648   */\n      0x20\n        /* \"#utility.yul\":18634:18644   */\n      dup6\n        /* \"#utility.yul\":18631:18649   */\n      lt\n        /* \"#utility.yul\":18628:18677   */\n      iszero\n      tag_366\n      jumpi\n        /* \"#utility.yul\":18667:18675   */\n      dup2\n        /* \"#utility.yul\":18652:18675   */\n      swap1\n      pop\n        /* \"#utility.yul\":18628:18677   */\n    tag_366:\n        /* \"#utility.yul\":18690:18770   */\n      tag_367\n        /* \"#utility.yul\":18746:18768   */\n      tag_368\n        /* \"#utility.yul\":18764:18767   */\n      dup6\n        /* \"#utility.yul\":18746:18768   */\n      tag_156\n      jump\t// in\n    tag_368:\n        /* \"#utility.yul\":18736:18744   */\n      dup4\n        /* \"#utility.yul\":18732:18769   */\n      add\n        /* \"#utility.yul\":18719:18730   */\n      dup3\n        /* \"#utility.yul\":18690:18770   */\n      tag_165\n      jump\t// in\n    tag_367:\n        /* \"#utility.yul\":18349:18780   */\n      pop\n      pop\n        /* \"#utility.yul\":18334:18780   */\n    tag_363:\n        /* \"#utility.yul\":18244:18787   */\n      pop\n      pop\n      pop\n      jump\t// out\n        /* \"#utility.yul\":18793:18910   */\n    tag_167:\n        /* \"#utility.yul\":18847:18855   */\n      0x00\n        /* \"#utility.yul\":18897:18902   */\n      dup3\n        /* \"#utility.yul\":18891:18895   */\n      dup3\n        /* \"#utility.yul\":18887:18903   */\n      shr\n        /* \"#utility.yul\":18866:18903   */\n      swap1\n      pop\n        /* \"#utility.yul\":18793:18910   */\n      swap3\n      swap2\n      pop\n      pop\n      jump\t// out\n        /* \"#utility.yul\":18916:19085   */\n    tag_168:\n        /* \"#utility.yul\":18960:18966   */\n      0x00\n        /* \"#utility.yul\":18993:19044   */\n      tag_371\n        /* \"#utility.yul\":19041:19042   */\n      0x00\n        /* \"#utility.yul\":19037:19043   */\n      not\n        /* \"#utility.yul\":19029:19034   */\n      dup5\n        /* \"#utility.yul\":19026:19027   */\n      0x08\n        /* \"#utility.yul\":19022:19035   */\n      mul\n        /* \"#utility.yul\":18993:19044   */\n      tag_167\n      jump\t// in\n    tag_371:\n        /* \"#utility.yul\":18989:19045   */\n      not\n        /* \"#utility.yul\":19074:19078   */\n      dup1\n        /* \"#utility.yul\":19068:19072   */\n      dup4\n        /* \"#utility.yul\":19064:19079   */\n      and\n        /* \"#utility.yul\":19054:19079   */\n      swap2\n      pop\n        /* \"#utility.yul\":18967:19085   */\n      pop\n        /* \"#utility.yul\":18916:19085   */\n      swap3\n      swap2\n      pop\n      pop\n      jump\t// out\n        /* \"#utility.yul\":19090:19385   */\n    tag_169:\n        /* \"#utility.yul\":19166:19170   */\n      0x00\n        /* \"#utility.yul\":19312:19341   */\n      tag_373\n        /* \"#utility.yul\":19337:19340   */\n      dup4\n        /* \"#utility.yul\":19331:19335   */\n      dup4\n        /* \"#utility.yul\":19312:19341   */\n      tag_168\n      jump\t// in\n    tag_373:\n        /* \"#utility.yul\":19304:19341   */\n      swap2\n      pop\n        /* \"#utility.yul\":19374:19377   */\n      dup3\n        /* \"#utility.yul\":19371:19372   */\n      0x02\n        /* \"#utility.yul\":19367:19378   */\n      mul\n        /* \"#utility.yul\":19361:19365   */\n      dup3\n        /* \"#utility.yul\":19358:19379   */\n      or\n        /* \"#utility.yul\":19350:19379   */\n      swap1\n      pop\n        /* \"#utility.yul\":19090:19385   */\n      swap3\n      swap2\n      pop\n      pop\n      jump\t// out\n        /* \"#utility.yul\":19390:20785   */\n    tag_44:\n        /* \"#utility.yul\":19507:19544   */\n      tag_375\n        /* \"#utility.yul\":19540:19543   */\n      dup3\n        /* \"#utility.yul\":19507:19544   */\n      tag_135\n      jump\t// in\n    tag_375:\n        /* \"#utility.yul\":19609:19627   */\n      0xffffffffffffffff\n        /* \"#utility.yul\":19601:19607   */\n      dup2\n        /* \"#utility.yul\":19598:19628   */\n      gt\n        /* \"#utility.yul\":19595:19651   */\n      iszero\n      tag_376\n      jumpi\n        /* \"#utility.yul\":19631:19649   */\n      tag_377\n      tag_66\n      jump\t// in\n    tag_377:\n        /* \"#utility.yul\":19595:19651   */\n    tag_376:\n        /* \"#utility.yul\":19675:19713   */\n      tag_378\n        /* \"#utility.yul\":19707:19711   */\n      dup3\n        /* \"#utility.yul\":19701:19712   */\n      sload\n        /* \"#utility.yul\":19675:19713   */\n      tag_75\n      jump\t// in\n    tag_378:\n        /* \"#utility.yul\":19760:19827   */\n      tag_379\n        /* \"#utility.yul\":19820:19826   */\n      dup3\n        /* \"#utility.yul\":19812:19818   */\n      dup3\n        /* \"#utility.yul\":19806:19810   */\n      dup6\n        /* \"#utility.yul\":19760:19827   */\n      tag_166\n      jump\t// in\n    tag_379:\n        /* \"#utility.yul\":19854:19855   */\n      0x00\n        /* \"#utility.yul\":19878:19882   */\n      0x20\n        /* \"#utility.yul\":19865:19882   */\n      swap1\n      pop\n        /* \"#utility.yul\":19910:19912   */\n      0x1f\n        /* \"#utility.yul\":19902:19908   */\n      dup4\n        /* \"#utility.yul\":19899:19913   */\n      gt\n        /* \"#utility.yul\":19927:19928   */\n      0x01\n        /* \"#utility.yul\":19922:20540   */\n      dup2\n      eq\n      tag_381\n      jumpi\n        /* \"#utility.yul\":20584:20585   */\n      0x00\n        /* \"#utility.yul\":20601:20607   */\n      dup5\n        /* \"#utility.yul\":20598:20675   */\n      iszero\n      tag_382\n      jumpi\n        /* \"#utility.yul\":20650:20659   */\n      dup3\n        /* \"#utility.yul\":20645:20648   */\n      dup8\n        /* \"#utility.yul\":20641:20660   */\n      add\n        /* \"#utility.yul\":20635:20661   */\n      mload\n        /* \"#utility.yul\":20626:20661   */\n      swap1\n      pop\n        /* \"#utility.yul\":20598:20675   */\n    tag_382:\n        /* \"#utility.yul\":20701:20768   */\n      tag_383\n        /* \"#utility.yul\":20761:20767   */\n      dup6\n        /* \"#utility.yul\":20754:20759   */\n      dup3\n        /* \"#utility.yul\":20701:20768   */\n      tag_169\n      jump\t// in\n    tag_383:\n        /* \"#utility.yul\":20695:20699   */\n      dup7\n        /* \"#utility.yul\":20688:20769   */\n      sstore\n        /* \"#utility.yul\":20557:20779   */\n      pop\n        /* \"#utility.yul\":19892:20779   */\n      jump(tag_380)\n        /* \"#utility.yul\":19922:20540   */\n    tag_381:\n        /* \"#utility.yul\":19974:19978   */\n      0x1f\n        /* \"#utility.yul\":19970:19979   */\n      not\n        /* \"#utility.yul\":19962:19968   */\n      dup5\n        /* \"#utility.yul\":19958:19980   */\n      and\n        /* \"#utility.yul\":20008:20045   */\n      tag_384\n        /* \"#utility.yul\":20040:20044   */\n      dup7\n        /* \"#utility.yul\":20008:20045   */\n      tag_155\n      jump\t// in\n    tag_384:\n        /* \"#utility.yul\":20067:20068   */\n      0x00\n        /* \"#utility.yul\":20081:20289   */\n    tag_385:\n        /* \"#utility.yul\":20095:20102   */\n      dup3\n        /* \"#utility.yul\":20092:20093   */\n      dup2\n        /* \"#utility.yul\":20089:20103   */\n      lt\n        /* \"#utility.yul\":20081:20289   */\n      iszero\n      tag_387\n      jumpi\n        /* \"#utility.yul\":20174:20183   */\n      dup5\n        /* \"#utility.yul\":20169:20172   */\n      dup10\n        /* \"#utility.yul\":20165:20184   */\n      add\n        /* \"#utility.yul\":20159:20185   */\n      mload\n        /* \"#utility.yul\":20151:20157   */\n      dup3\n        /* \"#utility.yul\":20144:20186   */\n      sstore\n        /* \"#utility.yul\":20225:20226   */\n      0x01\n        /* \"#utility.yul\":20217:20223   */\n      dup3\n        /* \"#utility.yul\":20213:20227   */\n      add\n        /* \"#utility.yul\":20203:20227   */\n      swap2\n      pop\n        /* \"#utility.yul\":20272:20274   */\n      0x20\n        /* \"#utility.yul\":20261:20270   */\n      dup6\n        /* \"#utility.yul\":20257:20275   */\n      add\n        /* \"#utility.yul\":20244:20275   */\n      swap5\n      pop\n        /* \"#utility.yul\":20118:20122   */\n      0x20\n        /* \"#utility.yul\":20115:20116   */\n      dup2\n        /* \"#utility.yul\":20111:20123   */\n      add\n        /* \"#utility.yul\":20106:20123   */\n      swap1\n      pop\n        /* \"#utility.yul\":20081:20289   */\n      jump(tag_385)\n    tag_387:\n        /* \"#utility.yul\":20317:20323   */\n      dup7\n        /* \"#utility.yul\":20308:20315   */\n      dup4\n        /* \"#utility.yul\":20305:20324   */\n      lt\n        /* \"#utility.yul\":20302:20481   */\n      iszero\n      tag_388\n      jumpi\n        /* \"#utility.yul\":20375:20384   */\n      dup5\n        /* \"#utility.yul\":20370:20373   */\n      dup10\n        /* \"#utility.yul\":20366:20385   */\n      add\n        /* \"#utility.yul\":20360:20386   */\n      mload\n        /* \"#utility.yul\":20418:20466   */\n      tag_389\n        /* \"#utility.yul\":20460:20464   */\n      0x1f\n        /* \"#utility.yul\":20452:20458   */\n      dup10\n        /* \"#utility.yul\":20448:20465   */\n      and\n        /* \"#utility.yul\":20437:20446   */\n      dup3\n        /* \"#utility.yul\":20418:20466   */\n      tag_168\n      jump\t// in\n    tag_389:\n        /* \"#utility.yul\":20410:20416   */\n      dup4\n        /* \"#utility.yul\":20403:20467   */\n      sstore\n        /* \"#utility.yul\":20325:20481   */\n      pop\n        /* \"#utility.yul\":20302:20481   */\n    tag_388:\n        /* \"#utility.yul\":20527:20528   */\n      0x01\n        /* \"#utility.yul\":20523:20524   */\n      0x02\n        /* \"#utility.yul\":20515:20521   */\n      dup9\n        /* \"#utility.yul\":20511:20525   */\n      mul\n        /* \"#utility.yul\":20507:20529   */\n      add\n        /* \"#utility.yul\":20501:20505   */\n      dup9\n        /* \"#utility.yul\":20494:20530   */\n      sstore\n        /* \"#utility.yul\":19929:20540   */\n      pop\n      pop\n      pop\n        /* \"#utility.yul\":19892:20779   */\n    tag_380:\n      pop\n        /* \"#utility.yul\":19482:20785   */\n      pop\n      pop\n      pop\n        /* \"#utility.yul\":19390:20785   */\n      pop\n      pop\n      jump\t// out\n        /* \"#utility.yul\":20791:20971   */\n    tag_51:\n        /* \"#utility.yul\":20839:20916   */\n      0x4e487b7100000000000000000000000000000000000000000000000000000000\n        /* \"#utility.yul\":20836:20837   */\n      0x00\n        /* \"#utility.yul\":20829:20917   */\n      mstore\n        /* \"#utility.yul\":20936:20940   */\n      0x32\n        /* \"#utility.yul\":20933:20934   */\n      0x04\n        /* \"#utility.yul\":20926:20941   */\n      mstore\n        /* \"#utility.yul\":20960:20964   */\n      0x24\n        /* \"#utility.yul\":20957:20958   */\n      0x00\n        /* \"#utility.yul\":20950:20965   */\n      revert\n        /* \"#utility.yul\":20977:21290   */\n    tag_56:\n        /* \"#utility.yul\":21090:21094   */\n      0x00\n        /* \"#utility.yul\":21128:21130   */\n      0x20\n        /* \"#utility.yul\":21117:21126   */\n      dup3\n        /* \"#utility.yul\":21113:21131   */\n      add\n        /* \"#utility.yul\":21105:21131   */\n      swap1\n      pop\n        /* \"#utility.yul\":21177:21186   */\n      dup2\n        /* \"#utility.yul\":21171:21175   */\n      dup2\n        /* \"#utility.yul\":21167:21187   */\n      sub\n        /* \"#utility.yul\":21163:21164   */\n      0x00\n        /* \"#utility.yul\":21152:21161   */\n      dup4\n        /* \"#utility.yul\":21148:21165   */\n      add\n        /* \"#utility.yul\":21141:21188   */\n      mstore\n        /* \"#utility.yul\":21205:21283   */\n      tag_392\n        /* \"#utility.yul\":21278:21282   */\n      dup2\n        /* \"#utility.yul\":21269:21275   */\n      dup5\n        /* \"#utility.yul\":21205:21283   */\n      tag_149\n      jump\t// in\n    tag_392:\n        /* \"#utility.yul\":21197:21283   */\n      swap1\n      pop\n        /* \"#utility.yul\":20977:21290   */\n      swap3\n      swap2\n      pop\n      pop\n      jump\t// out\n        /* \"#utility.yul\":21296:21461   */\n    tag_170:\n        /* \"#utility.yul\":21436:21453   */\n      0x496e76616c6964206c6973742049440000000000000000000000000000000000\n        /* \"#utility.yul\":21432:21433   */\n      0x00\n        /* \"#utility.yul\":21424:21430   */\n      dup3\n        /* \"#utility.yul\":21420:21434   */\n      add\n        /* \"#utility.yul\":21413:21454   */\n      mstore\n        /* \"#utility.yul\":21296:21461   */\n      pop\n      jump\t// out\n        /* \"#utility.yul\":21467:21833   */\n    tag_171:\n        /* \"#utility.yul\":21609:21612   */\n      0x00\n        /* \"#utility.yul\":21630:21697   */\n      tag_395\n        /* \"#utility.yul\":21694:21696   */\n      0x0f\n        /* \"#utility.yul\":21689:21692   */\n      dup4\n        /* \"#utility.yul\":21630:21697   */\n      tag_148\n      jump\t// in\n    tag_395:\n        /* \"#utility.yul\":21623:21697   */\n      swap2\n      pop\n        /* \"#utility.yul\":21706:21799   */\n      tag_396\n        /* \"#utility.yul\":21795:21798   */\n      dup3\n        /* \"#utility.yul\":21706:21799   */\n      tag_170\n      jump\t// in\n    tag_396:\n        /* \"#utility.yul\":21824:21826   */\n      0x20\n        /* \"#utility.yul\":21819:21822   */\n      dup3\n        /* \"#utility.yul\":21815:21827   */\n      add\n        /* \"#utility.yul\":21808:21827   */\n      swap1\n      pop\n        /* \"#utility.yul\":21467:21833   */\n      swap2\n      swap1\n      pop\n      jump\t// out\n        /* \"#utility.yul\":21839:22258   */\n    tag_60:\n        /* \"#utility.yul\":22005:22009   */\n      0x00\n        /* \"#utility.yul\":22043:22045   */\n      0x20\n        /* \"#utility.yul\":22032:22041   */\n      dup3\n        /* \"#utility.yul\":22028:22046   */\n      add\n        /* \"#utility.yul\":22020:22046   */\n      swap1\n      pop\n        /* \"#utility.yul\":22092:22101   */\n      dup2\n        /* \"#utility.yul\":22086:22090   */\n      dup2\n        /* \"#utility.yul\":22082:22102   */\n      sub\n        /* \"#utility.yul\":22078:22079   */\n      0x00\n        /* \"#utility.yul\":22067:22076   */\n      dup4\n        /* \"#utility.yul\":22063:22080   */\n      add\n        /* \"#utility.yul\":22056:22103   */\n      mstore\n        /* \"#utility.yul\":22120:22251   */\n      tag_398\n        /* \"#utility.yul\":22246:22250   */\n      dup2\n        /* \"#utility.yul\":22120:22251   */\n      tag_171\n      jump\t// in\n    tag_398:\n        /* \"#utility.yul\":22112:22251   */\n      swap1\n      pop\n        /* \"#utility.yul\":21839:22258   */\n      swap2\n      swap1\n      pop\n      jump\t// out\n        /* \"#utility.yul\":22264:22486   */\n    tag_172:\n        /* \"#utility.yul\":22404:22438   */\n      0x596f7520646f206e6f7420686176652061636365737320746f2074686973206c\n        /* \"#utility.yul\":22400:22401   */\n      0x00\n        /* \"#utility.yul\":22392:22398   */\n      dup3\n        /* \"#utility.yul\":22388:22402   */\n      add\n        /* \"#utility.yul\":22381:22439   */\n      mstore\n        /* \"#utility.yul\":22473:22478   */\n      0x6973740000000000000000000000000000000000000000000000000000000000\n        /* \"#utility.yul\":22468:22470   */\n      0x20\n        /* \"#utility.yul\":22460:22466   */\n      dup3\n        /* \"#utility.yul\":22456:22471   */\n      add\n        /* \"#utility.yul\":22449:22479   */\n      mstore\n        /* \"#utility.yul\":22264:22486   */\n      pop\n      jump\t// out\n        /* \"#utility.yul\":22492:22858   */\n    tag_173:\n        /* \"#utility.yul\":22634:22637   */\n      0x00\n        /* \"#utility.yul\":22655:22722   */\n      tag_401\n        /* \"#utility.yul\":22719:22721   */\n      0x23\n        /* \"#utility.yul\":22714:22717   */\n      dup4\n        /* \"#utility.yul\":22655:22722   */\n      tag_148\n      jump\t// in\n    tag_401:\n        /* \"#utility.yul\":22648:22722   */\n      swap2\n      pop\n        /* \"#utility.yul\":22731:22824   */\n      tag_402\n        /* \"#utility.yul\":22820:22823   */\n      dup3\n        /* \"#utility.yul\":22731:22824   */\n      tag_172\n      jump\t// in\n    tag_402:\n        /* \"#utility.yul\":22849:22851   */\n      0x40\n        /* \"#utility.yul\":22844:22847   */\n      dup3\n        /* \"#utility.yul\":22840:22852   */\n      add\n        /* \"#utility.yul\":22833:22852   */\n      swap1\n      pop\n        /* \"#utility.yul\":22492:22858   */\n      swap2\n      swap1\n      pop\n      jump\t// out\n        /* \"#utility.yul\":22864:23283   */\n    tag_94:\n        /* \"#utility.yul\":23030:23034   */\n      0x00\n        /* \"#utility.yul\":23068:23070   */\n      0x20\n        /* \"#utility.yul\":23057:23066   */\n      dup3\n        /* \"#utility.yul\":23053:23071   */\n      add\n        /* \"#utility.yul\":23045:23071   */\n      swap1\n      pop\n        /* \"#utility.yul\":23117:23126   */\n      dup2\n        /* \"#utility.yul\":23111:23115   */\n      dup2\n        /* \"#utility.yul\":23107:23127   */\n      sub\n        /* \"#utility.yul\":23103:23104   */\n      0x00\n        /* \"#utility.yul\":23092:23101   */\n      dup4\n        /* \"#utility.yul\":23088:23105   */\n      add\n        /* \"#utility.yul\":23081:23128   */\n      mstore\n        /* \"#utility.yul\":23145:23276   */\n      tag_404\n        /* \"#utility.yul\":23271:23275   */\n      dup2\n        /* \"#utility.yul\":23145:23276   */\n      tag_173\n      jump\t// in\n    tag_404:\n        /* \"#utility.yul\":23137:23276   */\n      swap1\n      pop\n        /* \"#utility.yul\":22864:23283   */\n      swap2\n      swap1\n      pop\n      jump\t// out\n        /* \"#utility.yul\":23289:23464   */\n    tag_174:\n        /* \"#utility.yul\":23429:23456   */\n      0x4974656d206e616d652063616e6e6f7420626520656d70747900000000000000\n        /* \"#utility.yul\":23425:23426   */\n      0x00\n        /* \"#utility.yul\":23417:23423   */\n      dup3\n        /* \"#utility.yul\":23413:23427   */\n      add\n        /* \"#utility.yul\":23406:23457   */\n      mstore\n        /* \"#utility.yul\":23289:23464   */\n      pop\n      jump\t// out\n        /* \"#utility.yul\":23470:23836   */\n    tag_175:\n        /* \"#utility.yul\":23612:23615   */\n      0x00\n        /* \"#utility.yul\":23633:23700   */\n      tag_407\n        /* \"#utility.yul\":23697:23699   */\n      0x19\n        /* \"#utility.yul\":23692:23695   */\n      dup4\n        /* \"#utility.yul\":23633:23700   */\n      tag_148\n      jump\t// in\n    tag_407:\n        /* \"#utility.yul\":23626:23700   */\n      swap2\n      pop\n        /* \"#utility.yul\":23709:23802   */\n      tag_408\n        /* \"#utility.yul\":23798:23801   */\n      dup3\n        /* \"#utility.yul\":23709:23802   */\n      tag_174\n      jump\t// in\n    tag_408:\n        /* \"#utility.yul\":23827:23829   */\n      0x20\n        /* \"#utility.yul\":23822:23825   */\n      dup3\n        /* \"#utility.yul\":23818:23830   */\n      add\n        /* \"#utility.yul\":23811:23830   */\n      swap1\n      pop\n        /* \"#utility.yul\":23470:23836   */\n      swap2\n      swap1\n      pop\n      jump\t// out\n        /* \"#utility.yul\":23842:24261   */\n    tag_97:\n        /* \"#utility.yul\":24008:24012   */\n      0x00\n        /* \"#utility.yul\":24046:24048   */\n      0x20\n        /* \"#utility.yul\":24035:24044   */\n      dup3\n        /* \"#utility.yul\":24031:24049   */\n      add\n        /* \"#utility.yul\":24023:24049   */\n      swap1\n      pop\n        /* \"#utility.yul\":24095:24104   */\n      dup2\n        /* \"#utility.yul\":24089:24093   */\n      dup2\n        /* \"#utility.yul\":24085:24105   */\n      sub\n        /* \"#utility.yul\":24081:24082   */\n      0x00\n        /* \"#utility.yul\":24070:24079   */\n      dup4\n        /* \"#utility.yul\":24066:24083   */\n      add\n        /* \"#utility.yul\":24059:24106   */\n      mstore\n        /* \"#utility.yul\":24123:24254   */\n      tag_410\n        /* \"#utility.yul\":24249:24253   */\n      dup2\n        /* \"#utility.yul\":24123:24254   */\n      tag_175\n      jump\t// in\n    tag_410:\n        /* \"#utility.yul\":24115:24254   */\n      swap1\n      pop\n        /* \"#utility.yul\":23842:24261   */\n      swap2\n      swap1\n      pop\n      jump\t// out\n        /* \"#utility.yul\":24267:24488   */\n    tag_176:\n        /* \"#utility.yul\":24407:24441   */\n      0x5175616e74697479206d7573742062652067726561746572207468616e207a65\n        /* \"#utility.yul\":24403:24404   */\n      0x00\n        /* \"#utility.yul\":24395:24401   */\n      dup3\n        /* \"#utility.yul\":24391:24405   */\n      add\n        /* \"#utility.yul\":24384:24442   */\n      mstore\n        /* \"#utility.yul\":24476:24480   */\n      0x726f000000000000000000000000000000000000000000000000000000000000\n        /* \"#utility.yul\":24471:24473   */\n      0x20\n        /* \"#utility.yul\":24463:24469   */\n      dup3\n        /* \"#utility.yul\":24459:24474   */\n      add\n        /* \"#utility.yul\":24452:24481   */\n      mstore\n        /* \"#utility.yul\":24267:24488   */\n      pop\n      jump\t// out\n        /* \"#utility.yul\":24494:24860   */\n    tag_177:\n        /* \"#utility.yul\":24636:24639   */\n      0x00\n        /* \"#utility.yul\":24657:24724   */\n      tag_413\n        /* \"#utility.yul\":24721:24723   */\n      0x22\n        /* \"#utility.yul\":24716:24719   */\n      dup4\n        /* \"#utility.yul\":24657:24724   */\n      tag_148\n      jump\t// in\n    tag_413:\n        /* \"#utility.yul\":24650:24724   */\n      swap2\n      pop\n        /* \"#utility.yul\":24733:24826   */\n      tag_414\n        /* \"#utility.yul\":24822:24825   */\n      dup3\n        /* \"#utility.yul\":24733:24826   */\n      tag_176\n      jump\t// in\n    tag_414:\n        /* \"#utility.yul\":24851:24853   */\n      0x40\n        /* \"#utility.yul\":24846:24849   */\n      dup3\n        /* \"#utility.yul\":24842:24854   */\n      add\n        /* \"#utility.yul\":24835:24854   */\n      swap1\n      pop\n        /* \"#utility.yul\":24494:24860   */\n      swap2\n      swap1\n      pop\n      jump\t// out\n        /* \"#utility.yul\":24866:25285   */\n    tag_100:\n        /* \"#utility.yul\":25032:25036   */\n      0x00\n        /* \"#utility.yul\":25070:25072   */\n      0x20\n        /* \"#utility.yul\":25059:25068   */\n      dup3\n        /* \"#utility.yul\":25055:25073   */\n      add\n        /* \"#utility.yul\":25047:25073   */\n      swap1\n      pop\n        /* \"#utility.yul\":25119:25128   */\n      dup2\n        /* \"#utility.yul\":25113:25117   */\n      dup2\n        /* \"#utility.yul\":25109:25129   */\n      sub\n        /* \"#utility.yul\":25105:25106   */\n      0x00\n        /* \"#utility.yul\":25094:25103   */\n      dup4\n        /* \"#utility.yul\":25090:25107   */\n      add\n        /* \"#utility.yul\":25083:25130   */\n      mstore\n        /* \"#utility.yul\":25147:25278   */\n      tag_416\n        /* \"#utility.yul\":25273:25277   */\n      dup2\n        /* \"#utility.yul\":25147:25278   */\n      tag_177\n      jump\t// in\n    tag_416:\n        /* \"#utility.yul\":25139:25278   */\n      swap1\n      pop\n        /* \"#utility.yul\":24866:25285   */\n      swap2\n      swap1\n      pop\n      jump\t// out\n        /* \"#utility.yul\":25291:25471   */\n    tag_178:\n        /* \"#utility.yul\":25339:25416   */\n      0x4e487b7100000000000000000000000000000000000000000000000000000000\n        /* \"#utility.yul\":25336:25337   */\n      0x00\n        /* \"#utility.yul\":25329:25417   */\n      mstore\n        /* \"#utility.yul\":25436:25440   */\n      0x11\n        /* \"#utility.yul\":25433:25434   */\n      0x04\n        /* \"#utility.yul\":25426:25441   */\n      mstore\n        /* \"#utility.yul\":25460:25464   */\n      0x24\n        /* \"#utility.yul\":25457:25458   */\n      0x00\n        /* \"#utility.yul\":25450:25465   */\n      revert\n        /* \"#utility.yul\":25477:25710   */\n    tag_106:\n        /* \"#utility.yul\":25516:25519   */\n      0x00\n        /* \"#utility.yul\":25539:25563   */\n      tag_419\n        /* \"#utility.yul\":25557:25562   */\n      dup3\n        /* \"#utility.yul\":25539:25563   */\n      tag_128\n      jump\t// in\n    tag_419:\n        /* \"#utility.yul\":25530:25563   */\n      swap2\n      pop\n        /* \"#utility.yul\":25585:25651   */\n      0xffffffffffffffffffffffffffffffffffffffffffffffffffffffffffffffff\n        /* \"#utility.yul\":25578:25583   */\n      dup3\n        /* \"#utility.yul\":25575:25652   */\n      sub\n        /* \"#utility.yul\":25572:25675   */\n      tag_420\n      jumpi\n        /* \"#utility.yul\":25655:25673   */\n      tag_421\n      tag_178\n      jump\t// in\n    tag_421:\n        /* \"#utility.yul\":25572:25675   */\n    tag_420:\n        /* \"#utility.yul\":25702:25703   */\n      0x01\n        /* \"#utility.yul\":25695:25700   */\n      dup3\n        /* \"#utility.yul\":25691:25704   */\n      add\n        /* \"#utility.yul\":25684:25704   */\n      swap1\n      pop\n        /* \"#utility.yul\":25477:25710   */\n      swap2\n      swap1\n      pop\n      jump\t// out\n\n    auxdata: 0xa2646970667358221220ba7d826b80d665a1304de29ed4e40cee0266401b36c83e2dfb773c70b9713a2464736f6c634300081a0033\n}\n",
				"bytecode": {
					"linkReferences": {},
					"object": "6080604052348015600e575f80fd5b5061173c8061001c5f395ff3fe608060405234801561000f575f80fd5b5060043610610055575f3560e01c80631c7be33a1461005957806355adb52114610089578063971bb8a5146100b9578063ff7920d7146100e9578063ffe336691461011a575b5f80fd5b610073600480360381019061006e9190610ca9565b610136565b6040516100809190610d37565b60405180910390f35b6100a3600480360381019061009e9190610d7a565b610427565b6040516100b09190610f58565b60405180910390f35b6100d360048036038101906100ce9190610f78565b610657565b6040516100e09190610fc5565b60405180910390f35b61010360048036038101906100fe9190610d7a565b610681565b604051610111929190611026565b60405180910390f35b610134600480360381019061012f9190611054565b610735565b005b5f8083511161017a576040517f08c379a00000000000000000000000000000000000000000000000000000000081526004016101719061110a565b60405180910390fd5b5f8251116101bd576040517f08c379a00000000000000000000000000000000000000000000000000000000081526004016101b490611172565b60405180910390fd5b5f808054905090505f8060018160018154018082558091505003905f5260205f209060040201905084815f0190816101f5919061138a565b508060010133908060018154018082558091505060019003905f5260205f20015f9091909190916101000a81548173ffffffffffffffffffffffffffffffffffffffff021916908373ffffffffffffffffffffffffffffffffffffffff1602179055506001805f8481526020019081526020015f205f3373ffffffffffffffffffffffffffffffffffffffff1673ffffffffffffffffffffffffffffffffffffffff1681526020019081526020015f205f6101000a81548160ff0219169083151502179055505f5b84518110156103cc57816001018582815181106102dd576102dc611459565b5b6020026020010151908060018154018082558091505060019003905f5260205f20015f9091909190916101000a81548173ffffffffffffffffffffffffffffffffffffffff021916908373ffffffffffffffffffffffffffffffffffffffff1602179055506001805f8581526020019081526020015f205f87848151811061036857610367611459565b5b602002602001015173ffffffffffffffffffffffffffffffffffffffff1673ffffffffffffffffffffffffffffffffffffffff1681526020019081526020015f205f6101000a81548160ff02191690831515021790555080806001019150506102bd565b503373ffffffffffffffffffffffffffffffffffffffff16827f8c713bac477ab2ee1fc95c760c16e3cbb3987993dfc49568af13b494b8c00856876040516104149190611486565b60405180910390a3819250505092915050565b60605f80549050821061046f576040517f08c379a0000000000000000000000000000000000000000000000000000000008152600401610466906114f0565b60405180910390fd5b5f80838154811061048357610482611459565b5b905f5260205f20906004020190505f816002015467ffffffffffffffff8111156104b0576104af610a67565b5b6040519080825280602002602001820160405280156104e957816020015b6104d6610a01565b8152602001906001900390816104ce5790505b5090505f5b826002015481101561064c57826003015f8281526020019081526020015f206040518060800160405290815f82018054610527906111bd565b80601f0160208091040260200160405190810160405280929190818152602001828054610553906111bd565b801561059e5780601f106105755761010080835404028352916020019161059e565b820191905f5260205f20905b81548152906001019060200180831161058157829003601f168201915b5050505050815260200160018201548152602001600282015f9054906101000a900473ffffffffffffffffffffffffffffffffffffffff1673ffffffffffffffffffffffffffffffffffffffff1673ffffffffffffffffffffffffffffffffffffffff1681526020016002820160149054906101000a900460ff16151515158152505082828151811061063457610633611459565b5b602002602001018190525080806001019150506104ee565b508092505050919050565b6001602052815f5260405f20602052805f5260405f205f915091509054906101000a900460ff1681565b5f818154811061068f575f80fd5b905f5260205f2090600402015f91509050805f0180546106ae906111bd565b80601f01602080910402602001604051908101604052809291908181526020018280546106da906111bd565b80156107255780601f106106fc57610100808354040283529160200191610725565b820191905f5260205f20905b81548152906001019060200180831161070857829003601f168201915b5050505050908060020154905082565b5f80549050831061077b576040517f08c379a0000000000000000000000000000000000000000000000000000000008152600401610772906114f0565b60405180910390fd5b60015f8481526020019081526020015f205f3373ffffffffffffffffffffffffffffffffffffffff1673ffffffffffffffffffffffffffffffffffffffff1681526020019081526020015f205f9054906101000a900460ff16610813576040517f08c379a000000000000000000000000000000000000000000000000000000000815260040161080a9061157e565b60405180910390fd5b5f825111610856576040517f08c379a000000000000000000000000000000000000000000000000000000000815260040161084d906115e6565b60405180910390fd5b5f8111610898576040517f08c379a000000000000000000000000000000000000000000000000000000000815260040161088f90611674565b60405180910390fd5b5f8084815481106108ac576108ab611459565b5b905f5260205f209060040201905060405180608001604052808481526020018381526020013373ffffffffffffffffffffffffffffffffffffffff1681526020015f1515815250816003015f836002015481526020019081526020015f205f820151815f01908161091d919061138a565b50602082015181600101556040820151816002015f6101000a81548173ffffffffffffffffffffffffffffffffffffffff021916908373ffffffffffffffffffffffffffffffffffffffff16021790555060608201518160020160146101000a81548160ff021916908315150217905550905050806002015f8154809291906109a5906116bf565b91905055503373ffffffffffffffffffffffffffffffffffffffff16847f4cb34837c7f53a61f23e94bec431249774053a2ab0b596d1382fb3dde16f65cd85856040516109f3929190611026565b60405180910390a350505050565b6040518060800160405280606081526020015f81526020015f73ffffffffffffffffffffffffffffffffffffffff1681526020015f151581525090565b5f604051905090565b5f80fd5b5f80fd5b5f80fd5b5f80fd5b5f601f19601f8301169050919050565b7f4e487b71000000000000000000000000000000000000000000000000000000005f52604160045260245ffd5b610a9d82610a57565b810181811067ffffffffffffffff82111715610abc57610abb610a67565b5b80604052505050565b5f610ace610a3e565b9050610ada8282610a94565b919050565b5f67ffffffffffffffff821115610af957610af8610a67565b5b610b0282610a57565b9050602081019050919050565b828183375f83830152505050565b5f610b2f610b2a84610adf565b610ac5565b905082815260208101848484011115610b4b57610b4a610a53565b5b610b56848285610b0f565b509392505050565b5f82601f830112610b7257610b71610a4f565b5b8135610b82848260208601610b1d565b91505092915050565b5f67ffffffffffffffff821115610ba557610ba4610a67565b5b602082029050602081019050919050565b5f80fd5b5f73ffffffffffffffffffffffffffffffffffffffff82169050919050565b5f610be382610bba565b9050919050565b610bf381610bd9565b8114610bfd575f80fd5b50565b5f81359050610c0e81610bea565b92915050565b5f610c26610c2184610b8b565b610ac5565b90508083825260208201905060208402830185811115610c4957610c48610bb6565b5b835b81811015610c725780610c5e8882610c00565b845260208401935050602081019050610c4b565b5050509392505050565b5f82601f830112610c9057610c8f610a4f565b5b8135610ca0848260208601610c14565b91505092915050565b5f8060408385031215610cbf57610cbe610a47565b5b5f83013567ffffffffffffffff811115610cdc57610cdb610a4b565b5b610ce885828601610b5e565b925050602083013567ffffffffffffffff811115610d0957610d08610a4b565b5b610d1585828601610c7c565b9150509250929050565b5f819050919050565b610d3181610d1f565b82525050565b5f602082019050610d4a5f830184610d28565b92915050565b610d5981610d1f565b8114610d63575f80fd5b50565b5f81359050610d7481610d50565b92915050565b5f60208284031215610d8f57610d8e610a47565b5b5f610d9c84828501610d66565b91505092915050565b5f81519050919050565b5f82825260208201905092915050565b5f819050602082019050919050565b5f81519050919050565b5f82825260208201905092915050565b8281835e5f83830152505050565b5f610e0082610dce565b610e0a8185610dd8565b9350610e1a818560208601610de8565b610e2381610a57565b840191505092915050565b610e3781610d1f565b82525050565b610e4681610bd9565b82525050565b5f8115159050919050565b610e6081610e4c565b82525050565b5f608083015f8301518482035f860152610e808282610df6565b9150506020830151610e956020860182610e2e565b506040830151610ea86040860182610e3d565b506060830151610ebb6060860182610e57565b508091505092915050565b5f610ed18383610e66565b905092915050565b5f602082019050919050565b5f610eef82610da5565b610ef98185610daf565b935083602082028501610f0b85610dbf565b805f5b85811015610f465784840389528151610f278582610ec6565b9450610f3283610ed9565b925060208a01995050600181019050610f0e565b50829750879550505050505092915050565b5f6020820190508181035f830152610f708184610ee5565b905092915050565b5f8060408385031215610f8e57610f8d610a47565b5b5f610f9b85828601610d66565b9250506020610fac85828601610c00565b9150509250929050565b610fbf81610e4c565b82525050565b5f602082019050610fd85f830184610fb6565b92915050565b5f82825260208201905092915050565b5f610ff882610dce565b6110028185610fde565b9350611012818560208601610de8565b61101b81610a57565b840191505092915050565b5f6040820190508181035f83015261103e8185610fee565b905061104d6020830184610d28565b9392505050565b5f805f6060848603121561106b5761106a610a47565b5b5f61107886828701610d66565b935050602084013567ffffffffffffffff81111561109957611098610a4b565b5b6110a586828701610b5e565b92505060406110b686828701610d66565b9150509250925092565b7f4c697374206e616d652063616e6e6f7420626520656d707479000000000000005f82015250565b5f6110f4601983610fde565b91506110ff826110c0565b602082019050919050565b5f6020820190508181035f830152611121816110e8565b9050919050565b7f4174206c65617374206f6e65206d656d626572206973207265717569726564005f82015250565b5f61115c601f83610fde565b915061116782611128565b602082019050919050565b5f6020820190508181035f83015261118981611150565b9050919050565b7f4e487b71000000000000000000000000000000000000000000000000000000005f52602260045260245ffd5b5f60028204905060018216806111d457607f821691505b6020821081036111e7576111e6611190565b5b50919050565b5f819050815f5260205f209050919050565b5f6020601f8301049050919050565b5f82821b905092915050565b5f600883026112497fffffffffffffffffffffffffffffffffffffffffffffffffffffffffffffffff8261120e565b611253868361120e565b95508019841693508086168417925050509392505050565b5f819050919050565b5f61128e61128961128484610d1f565b61126b565b610d1f565b9050919050565b5f819050919050565b6112a783611274565b6112bb6112b382611295565b84845461121a565b825550505050565b5f90565b6112cf6112c3565b6112da81848461129e565b505050565b5b818110156112fd576112f25f826112c7565b6001810190506112e0565b5050565b601f82111561134257611313816111ed565b61131c846111ff565b8101602085101561132b578190505b61133f611337856111ff565b8301826112df565b50505b505050565b5f82821c905092915050565b5f6113625f1984600802611347565b1980831691505092915050565b5f61137a8383611353565b9150826002028217905092915050565b61139382610dce565b67ffffffffffffffff8111156113ac576113ab610a67565b5b6113b682546111bd565b6113c1828285611301565b5f60209050601f8311600181146113f2575f84156113e0578287015190505b6113ea858261136f565b865550611451565b601f198416611400866111ed565b5f5b8281101561142757848901518255600182019150602085019450602081019050611402565b868310156114445784890151611440601f891682611353565b8355505b6001600288020188555050505b505050505050565b7f4e487b71000000000000000000000000000000000000000000000000000000005f52603260045260245ffd5b5f6020820190508181035f83015261149e8184610fee565b905092915050565b7f496e76616c6964206c69737420494400000000000000000000000000000000005f82015250565b5f6114da600f83610fde565b91506114e5826114a6565b602082019050919050565b5f6020820190508181035f830152611507816114ce565b9050919050565b7f596f7520646f206e6f7420686176652061636365737320746f2074686973206c5f8201527f6973740000000000000000000000000000000000000000000000000000000000602082015250565b5f611568602383610fde565b91506115738261150e565b604082019050919050565b5f6020820190508181035f8301526115958161155c565b9050919050565b7f4974656d206e616d652063616e6e6f7420626520656d707479000000000000005f82015250565b5f6115d0601983610fde565b91506115db8261159c565b602082019050919050565b5f6020820190508181035f8301526115fd816115c4565b9050919050565b7f5175616e74697479206d7573742062652067726561746572207468616e207a655f8201527f726f000000000000000000000000000000000000000000000000000000000000602082015250565b5f61165e602283610fde565b915061166982611604565b604082019050919050565b5f6020820190508181035f83015261168b81611652565b9050919050565b7f4e487b71000000000000000000000000000000000000000000000000000000005f52601160045260245ffd5b5f6116c982610d1f565b91507fffffffffffffffffffffffffffffffffffffffffffffffffffffffffffffffff82036116fb576116fa611692565b5b60018201905091905056fea2646970667358221220ba7d826b80d665a1304de29ed4e40cee0266401b36c83e2dfb773c70b9713a2464736f6c634300081a0033",
					"opcodes": "PUSH1 0x80 PUSH1 0x40 MSTORE CALLVALUE DUP1 ISZERO PUSH1 0xE JUMPI PUSH0 DUP1 REVERT JUMPDEST POP PUSH2 0x173C DUP1 PUSH2 0x1C PUSH0 CODECOPY PUSH0 RETURN INVALID PUSH1 0x80 PUSH1 0x40 MSTORE CALLVALUE DUP1 ISZERO PUSH2 0xF JUMPI PUSH0 DUP1 REVERT JUMPDEST POP PUSH1 0x4 CALLDATASIZE LT PUSH2 0x55 JUMPI PUSH0 CALLDATALOAD PUSH1 0xE0 SHR DUP1 PUSH4 0x1C7BE33A EQ PUSH2 0x59 JUMPI DUP1 PUSH4 0x55ADB521 EQ PUSH2 0x89 JUMPI DUP1 PUSH4 0x971BB8A5 EQ PUSH2 0xB9 JUMPI DUP1 PUSH4 0xFF7920D7 EQ PUSH2 0xE9 JUMPI DUP1 PUSH4 0xFFE33669 EQ PUSH2 0x11A JUMPI JUMPDEST PUSH0 DUP1 REVERT JUMPDEST PUSH2 0x73 PUSH1 0x4 DUP1 CALLDATASIZE SUB DUP2 ADD SWAP1 PUSH2 0x6E SWAP2 SWAP1 PUSH2 0xCA9 JUMP JUMPDEST PUSH2 0x136 JUMP JUMPDEST PUSH1 0x40 MLOAD PUSH2 0x80 SWAP2 SWAP1 PUSH2 0xD37 JUMP JUMPDEST PUSH1 0x40 MLOAD DUP1 SWAP2 SUB SWAP1 RETURN JUMPDEST PUSH2 0xA3 PUSH1 0x4 DUP1 CALLDATASIZE SUB DUP2 ADD SWAP1 PUSH2 0x9E SWAP2 SWAP1 PUSH2 0xD7A JUMP JUMPDEST PUSH2 0x427 JUMP JUMPDEST PUSH1 0x40 MLOAD PUSH2 0xB0 SWAP2 SWAP1 PUSH2 0xF58 JUMP JUMPDEST PUSH1 0x40 MLOAD DUP1 SWAP2 SUB SWAP1 RETURN JUMPDEST PUSH2 0xD3 PUSH1 0x4 DUP1 CALLDATASIZE SUB DUP2 ADD SWAP1 PUSH2 0xCE SWAP2 SWAP1 PUSH2 0xF78 JUMP JUMPDEST PUSH2 0x657 JUMP JUMPDEST PUSH1 0x40 MLOAD PUSH2 0xE0 SWAP2 SWAP1 PUSH2 0xFC5 JUMP JUMPDEST PUSH1 0x40 MLOAD DUP1 SWAP2 SUB SWAP1 RETURN JUMPDEST PUSH2 0x103 PUSH1 0x4 DUP1 CALLDATASIZE SUB DUP2 ADD SWAP1 PUSH2 0xFE SWAP2 SWAP1 PUSH2 0xD7A JUMP JUMPDEST PUSH2 0x681 JUMP JUMPDEST PUSH1 0x40 MLOAD PUSH2 0x111 SWAP3 SWAP2 SWAP1 PUSH2 0x1026 JUMP JUMPDEST PUSH1 0x40 MLOAD DUP1 SWAP2 SUB SWAP1 RETURN JUMPDEST PUSH2 0x134 PUSH1 0x4 DUP1 CALLDATASIZE SUB DUP2 ADD SWAP1 PUSH2 0x12F SWAP2 SWAP1 PUSH2 0x1054 JUMP JUMPDEST PUSH2 0x735 JUMP JUMPDEST STOP JUMPDEST PUSH0 DUP1 DUP4 MLOAD GT PUSH2 0x17A JUMPI PUSH1 0x40 MLOAD PUSH32 0x8C379A000000000000000000000000000000000000000000000000000000000 DUP2 MSTORE PUSH1 0x4 ADD PUSH2 0x171 SWAP1 PUSH2 0x110A JUMP JUMPDEST PUSH1 0x40 MLOAD DUP1 SWAP2 SUB SWAP1 REVERT JUMPDEST PUSH0 DUP3 MLOAD GT PUSH2 0x1BD JUMPI PUSH1 0x40 MLOAD PUSH32 0x8C379A000000000000000000000000000000000000000000000000000000000 DUP2 MSTORE PUSH1 0x4 ADD PUSH2 0x1B4 SWAP1 PUSH2 0x1172 JUMP JUMPDEST PUSH1 0x40 MLOAD DUP1 SWAP2 SUB SWAP1 REVERT JUMPDEST PUSH0 DUP1 DUP1 SLOAD SWAP1 POP SWAP1 POP PUSH0 DUP1 PUSH1 0x1 DUP2 PUSH1 0x1 DUP2 SLOAD ADD DUP1 DUP3 SSTORE DUP1 SWAP2 POP POP SUB SWAP1 PUSH0 MSTORE PUSH1 0x20 PUSH0 KECCAK256 SWAP1 PUSH1 0x4 MUL ADD SWAP1 POP DUP5 DUP2 PUSH0 ADD SWAP1 DUP2 PUSH2 0x1F5 SWAP2 SWAP1 PUSH2 0x138A JUMP JUMPDEST POP DUP1 PUSH1 0x1 ADD CALLER SWAP1 DUP1 PUSH1 0x1 DUP2 SLOAD ADD DUP1 DUP3 SSTORE DUP1 SWAP2 POP POP PUSH1 0x1 SWAP1 SUB SWAP1 PUSH0 MSTORE PUSH1 0x20 PUSH0 KECCAK256 ADD PUSH0 SWAP1 SWAP2 SWAP1 SWAP2 SWAP1 SWAP2 PUSH2 0x100 EXP DUP2 SLOAD DUP2 PUSH20 0xFFFFFFFFFFFFFFFFFFFFFFFFFFFFFFFFFFFFFFFF MUL NOT AND SWAP1 DUP4 PUSH20 0xFFFFFFFFFFFFFFFFFFFFFFFFFFFFFFFFFFFFFFFF AND MUL OR SWAP1 SSTORE POP PUSH1 0x1 DUP1 PUSH0 DUP5 DUP2 MSTORE PUSH1 0x20 ADD SWAP1 DUP2 MSTORE PUSH1 0x20 ADD PUSH0 KECCAK256 PUSH0 CALLER PUSH20 0xFFFFFFFFFFFFFFFFFFFFFFFFFFFFFFFFFFFFFFFF AND PUSH20 0xFFFFFFFFFFFFFFFFFFFFFFFFFFFFFFFFFFFFFFFF AND DUP2 MSTORE PUSH1 0x20 ADD SWAP1 DUP2 MSTORE PUSH1 0x20 ADD PUSH0 KECCAK256 PUSH0 PUSH2 0x100 EXP DUP2 SLOAD DUP2 PUSH1 0xFF MUL NOT AND SWAP1 DUP4 ISZERO ISZERO MUL OR SWAP1 SSTORE POP PUSH0 JUMPDEST DUP5 MLOAD DUP2 LT ISZERO PUSH2 0x3CC JUMPI DUP2 PUSH1 0x1 ADD DUP6 DUP3 DUP2 MLOAD DUP2 LT PUSH2 0x2DD JUMPI PUSH2 0x2DC PUSH2 0x1459 JUMP JUMPDEST JUMPDEST PUSH1 0x20 MUL PUSH1 0x20 ADD ADD MLOAD SWAP1 DUP1 PUSH1 0x1 DUP2 SLOAD ADD DUP1 DUP3 SSTORE DUP1 SWAP2 POP POP PUSH1 0x1 SWAP1 SUB SWAP1 PUSH0 MSTORE PUSH1 0x20 PUSH0 KECCAK256 ADD PUSH0 SWAP1 SWAP2 SWAP1 SWAP2 SWAP1 SWAP2 PUSH2 0x100 EXP DUP2 SLOAD DUP2 PUSH20 0xFFFFFFFFFFFFFFFFFFFFFFFFFFFFFFFFFFFFFFFF MUL NOT AND SWAP1 DUP4 PUSH20 0xFFFFFFFFFFFFFFFFFFFFFFFFFFFFFFFFFFFFFFFF AND MUL OR SWAP1 SSTORE POP PUSH1 0x1 DUP1 PUSH0 DUP6 DUP2 MSTORE PUSH1 0x20 ADD SWAP1 DUP2 MSTORE PUSH1 0x20 ADD PUSH0 KECCAK256 PUSH0 DUP8 DUP5 DUP2 MLOAD DUP2 LT PUSH2 0x368 JUMPI PUSH2 0x367 PUSH2 0x1459 JUMP JUMPDEST JUMPDEST PUSH1 0x20 MUL PUSH1 0x20 ADD ADD MLOAD PUSH20 0xFFFFFFFFFFFFFFFFFFFFFFFFFFFFFFFFFFFFFFFF AND PUSH20 0xFFFFFFFFFFFFFFFFFFFFFFFFFFFFFFFFFFFFFFFF AND DUP2 MSTORE PUSH1 0x20 ADD SWAP1 DUP2 MSTORE PUSH1 0x20 ADD PUSH0 KECCAK256 PUSH0 PUSH2 0x100 EXP DUP2 SLOAD DUP2 PUSH1 0xFF MUL NOT AND SWAP1 DUP4 ISZERO ISZERO MUL OR SWAP1 SSTORE POP DUP1 DUP1 PUSH1 0x1 ADD SWAP2 POP POP PUSH2 0x2BD JUMP JUMPDEST POP CALLER PUSH20 0xFFFFFFFFFFFFFFFFFFFFFFFFFFFFFFFFFFFFFFFF AND DUP3 PUSH32 0x8C713BAC477AB2EE1FC95C760C16E3CBB3987993DFC49568AF13B494B8C00856 DUP8 PUSH1 0x40 MLOAD PUSH2 0x414 SWAP2 SWAP1 PUSH2 0x1486 JUMP JUMPDEST PUSH1 0x40 MLOAD DUP1 SWAP2 SUB SWAP1 LOG3 DUP2 SWAP3 POP POP POP SWAP3 SWAP2 POP POP JUMP JUMPDEST PUSH1 0x60 PUSH0 DUP1 SLOAD SWAP1 POP DUP3 LT PUSH2 0x46F JUMPI PUSH1 0x40 MLOAD PUSH32 0x8C379A000000000000000000000000000000000000000000000000000000000 DUP2 MSTORE PUSH1 0x4 ADD PUSH2 0x466 SWAP1 PUSH2 0x14F0 JUMP JUMPDEST PUSH1 0x40 MLOAD DUP1 SWAP2 SUB SWAP1 REVERT JUMPDEST PUSH0 DUP1 DUP4 DUP2 SLOAD DUP2 LT PUSH2 0x483 JUMPI PUSH2 0x482 PUSH2 0x1459 JUMP JUMPDEST JUMPDEST SWAP1 PUSH0 MSTORE PUSH1 0x20 PUSH0 KECCAK256 SWAP1 PUSH1 0x4 MUL ADD SWAP1 POP PUSH0 DUP2 PUSH1 0x2 ADD SLOAD PUSH8 0xFFFFFFFFFFFFFFFF DUP2 GT ISZERO PUSH2 0x4B0 JUMPI PUSH2 0x4AF PUSH2 0xA67 JUMP JUMPDEST JUMPDEST PUSH1 0x40 MLOAD SWAP1 DUP1 DUP3 MSTORE DUP1 PUSH1 0x20 MUL PUSH1 0x20 ADD DUP3 ADD PUSH1 0x40 MSTORE DUP1 ISZERO PUSH2 0x4E9 JUMPI DUP2 PUSH1 0x20 ADD JUMPDEST PUSH2 0x4D6 PUSH2 0xA01 JUMP JUMPDEST DUP2 MSTORE PUSH1 0x20 ADD SWAP1 PUSH1 0x1 SWAP1 SUB SWAP1 DUP2 PUSH2 0x4CE JUMPI SWAP1 POP JUMPDEST POP SWAP1 POP PUSH0 JUMPDEST DUP3 PUSH1 0x2 ADD SLOAD DUP2 LT ISZERO PUSH2 0x64C JUMPI DUP3 PUSH1 0x3 ADD PUSH0 DUP3 DUP2 MSTORE PUSH1 0x20 ADD SWAP1 DUP2 MSTORE PUSH1 0x20 ADD PUSH0 KECCAK256 PUSH1 0x40 MLOAD DUP1 PUSH1 0x80 ADD PUSH1 0x40 MSTORE SWAP1 DUP2 PUSH0 DUP3 ADD DUP1 SLOAD PUSH2 0x527 SWAP1 PUSH2 0x11BD JUMP JUMPDEST DUP1 PUSH1 0x1F ADD PUSH1 0x20 DUP1 SWAP2 DIV MUL PUSH1 0x20 ADD PUSH1 0x40 MLOAD SWAP1 DUP2 ADD PUSH1 0x40 MSTORE DUP1 SWAP3 SWAP2 SWAP1 DUP2 DUP2 MSTORE PUSH1 0x20 ADD DUP3 DUP1 SLOAD PUSH2 0x553 SWAP1 PUSH2 0x11BD JUMP JUMPDEST DUP1 ISZERO PUSH2 0x59E JUMPI DUP1 PUSH1 0x1F LT PUSH2 0x575 JUMPI PUSH2 0x100 DUP1 DUP4 SLOAD DIV MUL DUP4 MSTORE SWAP2 PUSH1 0x20 ADD SWAP2 PUSH2 0x59E JUMP JUMPDEST DUP3 ADD SWAP2 SWAP1 PUSH0 MSTORE PUSH1 0x20 PUSH0 KECCAK256 SWAP1 JUMPDEST DUP2 SLOAD DUP2 MSTORE SWAP1 PUSH1 0x1 ADD SWAP1 PUSH1 0x20 ADD DUP1 DUP4 GT PUSH2 0x581 JUMPI DUP3 SWAP1 SUB PUSH1 0x1F AND DUP3 ADD SWAP2 JUMPDEST POP POP POP POP POP DUP2 MSTORE PUSH1 0x20 ADD PUSH1 0x1 DUP3 ADD SLOAD DUP2 MSTORE PUSH1 0x20 ADD PUSH1 0x2 DUP3 ADD PUSH0 SWAP1 SLOAD SWAP1 PUSH2 0x100 EXP SWAP1 DIV PUSH20 0xFFFFFFFFFFFFFFFFFFFFFFFFFFFFFFFFFFFFFFFF AND PUSH20 0xFFFFFFFFFFFFFFFFFFFFFFFFFFFFFFFFFFFFFFFF AND PUSH20 0xFFFFFFFFFFFFFFFFFFFFFFFFFFFFFFFFFFFFFFFF AND DUP2 MSTORE PUSH1 0x20 ADD PUSH1 0x2 DUP3 ADD PUSH1 0x14 SWAP1 SLOAD SWAP1 PUSH2 0x100 EXP SWAP1 DIV PUSH1 0xFF AND ISZERO ISZERO ISZERO ISZERO DUP2 MSTORE POP POP DUP3 DUP3 DUP2 MLOAD DUP2 LT PUSH2 0x634 JUMPI PUSH2 0x633 PUSH2 0x1459 JUMP JUMPDEST JUMPDEST PUSH1 0x20 MUL PUSH1 0x20 ADD ADD DUP2 SWAP1 MSTORE POP DUP1 DUP1 PUSH1 0x1 ADD SWAP2 POP POP PUSH2 0x4EE JUMP JUMPDEST POP DUP1 SWAP3 POP POP POP SWAP2 SWAP1 POP JUMP JUMPDEST PUSH1 0x1 PUSH1 0x20 MSTORE DUP2 PUSH0 MSTORE PUSH1 0x40 PUSH0 KECCAK256 PUSH1 0x20 MSTORE DUP1 PUSH0 MSTORE PUSH1 0x40 PUSH0 KECCAK256 PUSH0 SWAP2 POP SWAP2 POP SWAP1 SLOAD SWAP1 PUSH2 0x100 EXP SWAP1 DIV PUSH1 0xFF AND DUP2 JUMP JUMPDEST PUSH0 DUP2 DUP2 SLOAD DUP2 LT PUSH2 0x68F JUMPI PUSH0 DUP1 REVERT JUMPDEST SWAP1 PUSH0 MSTORE PUSH1 0x20 PUSH0 KECCAK256 SWAP1 PUSH1 0x4 MUL ADD PUSH0 SWAP2 POP SWAP1 POP DUP1 PUSH0 ADD DUP1 SLOAD PUSH2 0x6AE SWAP1 PUSH2 0x11BD JUMP JUMPDEST DUP1 PUSH1 0x1F ADD PUSH1 0x20 DUP1 SWAP2 DIV MUL PUSH1 0x20 ADD PUSH1 0x40 MLOAD SWAP1 DUP2 ADD PUSH1 0x40 MSTORE DUP1 SWAP3 SWAP2 SWAP1 DUP2 DUP2 MSTORE PUSH1 0x20 ADD DUP3 DUP1 SLOAD PUSH2 0x6DA SWAP1 PUSH2 0x11BD JUMP JUMPDEST DUP1 ISZERO PUSH2 0x725 JUMPI DUP1 PUSH1 0x1F LT PUSH2 0x6FC JUMPI PUSH2 0x100 DUP1 DUP4 SLOAD DIV MUL DUP4 MSTORE SWAP2 PUSH1 0x20 ADD SWAP2 PUSH2 0x725 JUMP JUMPDEST DUP3 ADD SWAP2 SWAP1 PUSH0 MSTORE PUSH1 0x20 PUSH0 KECCAK256 SWAP1 JUMPDEST DUP2 SLOAD DUP2 MSTORE SWAP1 PUSH1 0x1 ADD SWAP1 PUSH1 0x20 ADD DUP1 DUP4 GT PUSH2 0x708 JUMPI DUP3 SWAP1 SUB PUSH1 0x1F AND DUP3 ADD SWAP2 JUMPDEST POP POP POP POP POP SWAP1 DUP1 PUSH1 0x2 ADD SLOAD SWAP1 POP DUP3 JUMP JUMPDEST PUSH0 DUP1 SLOAD SWAP1 POP DUP4 LT PUSH2 0x77B JUMPI PUSH1 0x40 MLOAD PUSH32 0x8C379A000000000000000000000000000000000000000000000000000000000 DUP2 MSTORE PUSH1 0x4 ADD PUSH2 0x772 SWAP1 PUSH2 0x14F0 JUMP JUMPDEST PUSH1 0x40 MLOAD DUP1 SWAP2 SUB SWAP1 REVERT JUMPDEST PUSH1 0x1 PUSH0 DUP5 DUP2 MSTORE PUSH1 0x20 ADD SWAP1 DUP2 MSTORE PUSH1 0x20 ADD PUSH0 KECCAK256 PUSH0 CALLER PUSH20 0xFFFFFFFFFFFFFFFFFFFFFFFFFFFFFFFFFFFFFFFF AND PUSH20 0xFFFFFFFFFFFFFFFFFFFFFFFFFFFFFFFFFFFFFFFF AND DUP2 MSTORE PUSH1 0x20 ADD SWAP1 DUP2 MSTORE PUSH1 0x20 ADD PUSH0 KECCAK256 PUSH0 SWAP1 SLOAD SWAP1 PUSH2 0x100 EXP SWAP1 DIV PUSH1 0xFF AND PUSH2 0x813 JUMPI PUSH1 0x40 MLOAD PUSH32 0x8C379A000000000000000000000000000000000000000000000000000000000 DUP2 MSTORE PUSH1 0x4 ADD PUSH2 0x80A SWAP1 PUSH2 0x157E JUMP JUMPDEST PUSH1 0x40 MLOAD DUP1 SWAP2 SUB SWAP1 REVERT JUMPDEST PUSH0 DUP3 MLOAD GT PUSH2 0x856 JUMPI PUSH1 0x40 MLOAD PUSH32 0x8C379A000000000000000000000000000000000000000000000000000000000 DUP2 MSTORE PUSH1 0x4 ADD PUSH2 0x84D SWAP1 PUSH2 0x15E6 JUMP JUMPDEST PUSH1 0x40 MLOAD DUP1 SWAP2 SUB SWAP1 REVERT JUMPDEST PUSH0 DUP2 GT PUSH2 0x898 JUMPI PUSH1 0x40 MLOAD PUSH32 0x8C379A000000000000000000000000000000000000000000000000000000000 DUP2 MSTORE PUSH1 0x4 ADD PUSH2 0x88F SWAP1 PUSH2 0x1674 JUMP JUMPDEST PUSH1 0x40 MLOAD DUP1 SWAP2 SUB SWAP1 REVERT JUMPDEST PUSH0 DUP1 DUP5 DUP2 SLOAD DUP2 LT PUSH2 0x8AC JUMPI PUSH2 0x8AB PUSH2 0x1459 JUMP JUMPDEST JUMPDEST SWAP1 PUSH0 MSTORE PUSH1 0x20 PUSH0 KECCAK256 SWAP1 PUSH1 0x4 MUL ADD SWAP1 POP PUSH1 0x40 MLOAD DUP1 PUSH1 0x80 ADD PUSH1 0x40 MSTORE DUP1 DUP5 DUP2 MSTORE PUSH1 0x20 ADD DUP4 DUP2 MSTORE PUSH1 0x20 ADD CALLER PUSH20 0xFFFFFFFFFFFFFFFFFFFFFFFFFFFFFFFFFFFFFFFF AND DUP2 MSTORE PUSH1 0x20 ADD PUSH0 ISZERO ISZERO DUP2 MSTORE POP DUP2 PUSH1 0x3 ADD PUSH0 DUP4 PUSH1 0x2 ADD SLOAD DUP2 MSTORE PUSH1 0x20 ADD SWAP1 DUP2 MSTORE PUSH1 0x20 ADD PUSH0 KECCAK256 PUSH0 DUP3 ADD MLOAD DUP2 PUSH0 ADD SWAP1 DUP2 PUSH2 0x91D SWAP2 SWAP1 PUSH2 0x138A JUMP JUMPDEST POP PUSH1 0x20 DUP3 ADD MLOAD DUP2 PUSH1 0x1 ADD SSTORE PUSH1 0x40 DUP3 ADD MLOAD DUP2 PUSH1 0x2 ADD PUSH0 PUSH2 0x100 EXP DUP2 SLOAD DUP2 PUSH20 0xFFFFFFFFFFFFFFFFFFFFFFFFFFFFFFFFFFFFFFFF MUL NOT AND SWAP1 DUP4 PUSH20 0xFFFFFFFFFFFFFFFFFFFFFFFFFFFFFFFFFFFFFFFF AND MUL OR SWAP1 SSTORE POP PUSH1 0x60 DUP3 ADD MLOAD DUP2 PUSH1 0x2 ADD PUSH1 0x14 PUSH2 0x100 EXP DUP2 SLOAD DUP2 PUSH1 0xFF MUL NOT AND SWAP1 DUP4 ISZERO ISZERO MUL OR SWAP1 SSTORE POP SWAP1 POP POP DUP1 PUSH1 0x2 ADD PUSH0 DUP2 SLOAD DUP1 SWAP3 SWAP2 SWAP1 PUSH2 0x9A5 SWAP1 PUSH2 0x16BF JUMP JUMPDEST SWAP2 SWAP1 POP SSTORE POP CALLER PUSH20 0xFFFFFFFFFFFFFFFFFFFFFFFFFFFFFFFFFFFFFFFF AND DUP5 PUSH32 0x4CB34837C7F53A61F23E94BEC431249774053A2AB0B596D1382FB3DDE16F65CD DUP6 DUP6 PUSH1 0x40 MLOAD PUSH2 0x9F3 SWAP3 SWAP2 SWAP1 PUSH2 0x1026 JUMP JUMPDEST PUSH1 0x40 MLOAD DUP1 SWAP2 SUB SWAP1 LOG3 POP POP POP POP JUMP JUMPDEST PUSH1 0x40 MLOAD DUP1 PUSH1 0x80 ADD PUSH1 0x40 MSTORE DUP1 PUSH1 0x60 DUP2 MSTORE PUSH1 0x20 ADD PUSH0 DUP2 MSTORE PUSH1 0x20 ADD PUSH0 PUSH20 0xFFFFFFFFFFFFFFFFFFFFFFFFFFFFFFFFFFFFFFFF AND DUP2 MSTORE PUSH1 0x20 ADD PUSH0 ISZERO ISZERO DUP2 MSTORE POP SWAP1 JUMP JUMPDEST PUSH0 PUSH1 0x40 MLOAD SWAP1 POP SWAP1 JUMP JUMPDEST PUSH0 DUP1 REVERT JUMPDEST PUSH0 DUP1 REVERT JUMPDEST PUSH0 DUP1 REVERT JUMPDEST PUSH0 DUP1 REVERT JUMPDEST PUSH0 PUSH1 0x1F NOT PUSH1 0x1F DUP4 ADD AND SWAP1 POP SWAP2 SWAP1 POP JUMP JUMPDEST PUSH32 0x4E487B7100000000000000000000000000000000000000000000000000000000 PUSH0 MSTORE PUSH1 0x41 PUSH1 0x4 MSTORE PUSH1 0x24 PUSH0 REVERT JUMPDEST PUSH2 0xA9D DUP3 PUSH2 0xA57 JUMP JUMPDEST DUP2 ADD DUP2 DUP2 LT PUSH8 0xFFFFFFFFFFFFFFFF DUP3 GT OR ISZERO PUSH2 0xABC JUMPI PUSH2 0xABB PUSH2 0xA67 JUMP JUMPDEST JUMPDEST DUP1 PUSH1 0x40 MSTORE POP POP POP JUMP JUMPDEST PUSH0 PUSH2 0xACE PUSH2 0xA3E JUMP JUMPDEST SWAP1 POP PUSH2 0xADA DUP3 DUP3 PUSH2 0xA94 JUMP JUMPDEST SWAP2 SWAP1 POP JUMP JUMPDEST PUSH0 PUSH8 0xFFFFFFFFFFFFFFFF DUP3 GT ISZERO PUSH2 0xAF9 JUMPI PUSH2 0xAF8 PUSH2 0xA67 JUMP JUMPDEST JUMPDEST PUSH2 0xB02 DUP3 PUSH2 0xA57 JUMP JUMPDEST SWAP1 POP PUSH1 0x20 DUP2 ADD SWAP1 POP SWAP2 SWAP1 POP JUMP JUMPDEST DUP3 DUP2 DUP4 CALLDATACOPY PUSH0 DUP4 DUP4 ADD MSTORE POP POP POP JUMP JUMPDEST PUSH0 PUSH2 0xB2F PUSH2 0xB2A DUP5 PUSH2 0xADF JUMP JUMPDEST PUSH2 0xAC5 JUMP JUMPDEST SWAP1 POP DUP3 DUP2 MSTORE PUSH1 0x20 DUP2 ADD DUP5 DUP5 DUP5 ADD GT ISZERO PUSH2 0xB4B JUMPI PUSH2 0xB4A PUSH2 0xA53 JUMP JUMPDEST JUMPDEST PUSH2 0xB56 DUP5 DUP3 DUP6 PUSH2 0xB0F JUMP JUMPDEST POP SWAP4 SWAP3 POP POP POP JUMP JUMPDEST PUSH0 DUP3 PUSH1 0x1F DUP4 ADD SLT PUSH2 0xB72 JUMPI PUSH2 0xB71 PUSH2 0xA4F JUMP JUMPDEST JUMPDEST DUP2 CALLDATALOAD PUSH2 0xB82 DUP5 DUP3 PUSH1 0x20 DUP7 ADD PUSH2 0xB1D JUMP JUMPDEST SWAP2 POP POP SWAP3 SWAP2 POP POP JUMP JUMPDEST PUSH0 PUSH8 0xFFFFFFFFFFFFFFFF DUP3 GT ISZERO PUSH2 0xBA5 JUMPI PUSH2 0xBA4 PUSH2 0xA67 JUMP JUMPDEST JUMPDEST PUSH1 0x20 DUP3 MUL SWAP1 POP PUSH1 0x20 DUP2 ADD SWAP1 POP SWAP2 SWAP1 POP JUMP JUMPDEST PUSH0 DUP1 REVERT JUMPDEST PUSH0 PUSH20 0xFFFFFFFFFFFFFFFFFFFFFFFFFFFFFFFFFFFFFFFF DUP3 AND SWAP1 POP SWAP2 SWAP1 POP JUMP JUMPDEST PUSH0 PUSH2 0xBE3 DUP3 PUSH2 0xBBA JUMP JUMPDEST SWAP1 POP SWAP2 SWAP1 POP JUMP JUMPDEST PUSH2 0xBF3 DUP2 PUSH2 0xBD9 JUMP JUMPDEST DUP2 EQ PUSH2 0xBFD JUMPI PUSH0 DUP1 REVERT JUMPDEST POP JUMP JUMPDEST PUSH0 DUP2 CALLDATALOAD SWAP1 POP PUSH2 0xC0E DUP2 PUSH2 0xBEA JUMP JUMPDEST SWAP3 SWAP2 POP POP JUMP JUMPDEST PUSH0 PUSH2 0xC26 PUSH2 0xC21 DUP5 PUSH2 0xB8B JUMP JUMPDEST PUSH2 0xAC5 JUMP JUMPDEST SWAP1 POP DUP1 DUP4 DUP3 MSTORE PUSH1 0x20 DUP3 ADD SWAP1 POP PUSH1 0x20 DUP5 MUL DUP4 ADD DUP6 DUP2 GT ISZERO PUSH2 0xC49 JUMPI PUSH2 0xC48 PUSH2 0xBB6 JUMP JUMPDEST JUMPDEST DUP4 JUMPDEST DUP2 DUP2 LT ISZERO PUSH2 0xC72 JUMPI DUP1 PUSH2 0xC5E DUP9 DUP3 PUSH2 0xC00 JUMP JUMPDEST DUP5 MSTORE PUSH1 0x20 DUP5 ADD SWAP4 POP POP PUSH1 0x20 DUP2 ADD SWAP1 POP PUSH2 0xC4B JUMP JUMPDEST POP POP POP SWAP4 SWAP3 POP POP POP JUMP JUMPDEST PUSH0 DUP3 PUSH1 0x1F DUP4 ADD SLT PUSH2 0xC90 JUMPI PUSH2 0xC8F PUSH2 0xA4F JUMP JUMPDEST JUMPDEST DUP2 CALLDATALOAD PUSH2 0xCA0 DUP5 DUP3 PUSH1 0x20 DUP7 ADD PUSH2 0xC14 JUMP JUMPDEST SWAP2 POP POP SWAP3 SWAP2 POP POP JUMP JUMPDEST PUSH0 DUP1 PUSH1 0x40 DUP4 DUP6 SUB SLT ISZERO PUSH2 0xCBF JUMPI PUSH2 0xCBE PUSH2 0xA47 JUMP JUMPDEST JUMPDEST PUSH0 DUP4 ADD CALLDATALOAD PUSH8 0xFFFFFFFFFFFFFFFF DUP2 GT ISZERO PUSH2 0xCDC JUMPI PUSH2 0xCDB PUSH2 0xA4B JUMP JUMPDEST JUMPDEST PUSH2 0xCE8 DUP6 DUP3 DUP7 ADD PUSH2 0xB5E JUMP JUMPDEST SWAP3 POP POP PUSH1 0x20 DUP4 ADD CALLDATALOAD PUSH8 0xFFFFFFFFFFFFFFFF DUP2 GT ISZERO PUSH2 0xD09 JUMPI PUSH2 0xD08 PUSH2 0xA4B JUMP JUMPDEST JUMPDEST PUSH2 0xD15 DUP6 DUP3 DUP7 ADD PUSH2 0xC7C JUMP JUMPDEST SWAP2 POP POP SWAP3 POP SWAP3 SWAP1 POP JUMP JUMPDEST PUSH0 DUP2 SWAP1 POP SWAP2 SWAP1 POP JUMP JUMPDEST PUSH2 0xD31 DUP2 PUSH2 0xD1F JUMP JUMPDEST DUP3 MSTORE POP POP JUMP JUMPDEST PUSH0 PUSH1 0x20 DUP3 ADD SWAP1 POP PUSH2 0xD4A PUSH0 DUP4 ADD DUP5 PUSH2 0xD28 JUMP JUMPDEST SWAP3 SWAP2 POP POP JUMP JUMPDEST PUSH2 0xD59 DUP2 PUSH2 0xD1F JUMP JUMPDEST DUP2 EQ PUSH2 0xD63 JUMPI PUSH0 DUP1 REVERT JUMPDEST POP JUMP JUMPDEST PUSH0 DUP2 CALLDATALOAD SWAP1 POP PUSH2 0xD74 DUP2 PUSH2 0xD50 JUMP JUMPDEST SWAP3 SWAP2 POP POP JUMP JUMPDEST PUSH0 PUSH1 0x20 DUP3 DUP5 SUB SLT ISZERO PUSH2 0xD8F JUMPI PUSH2 0xD8E PUSH2 0xA47 JUMP JUMPDEST JUMPDEST PUSH0 PUSH2 0xD9C DUP5 DUP3 DUP6 ADD PUSH2 0xD66 JUMP JUMPDEST SWAP2 POP POP SWAP3 SWAP2 POP POP JUMP JUMPDEST PUSH0 DUP2 MLOAD SWAP1 POP SWAP2 SWAP1 POP JUMP JUMPDEST PUSH0 DUP3 DUP3 MSTORE PUSH1 0x20 DUP3 ADD SWAP1 POP SWAP3 SWAP2 POP POP JUMP JUMPDEST PUSH0 DUP2 SWAP1 POP PUSH1 0x20 DUP3 ADD SWAP1 POP SWAP2 SWAP1 POP JUMP JUMPDEST PUSH0 DUP2 MLOAD SWAP1 POP SWAP2 SWAP1 POP JUMP JUMPDEST PUSH0 DUP3 DUP3 MSTORE PUSH1 0x20 DUP3 ADD SWAP1 POP SWAP3 SWAP2 POP POP JUMP JUMPDEST DUP3 DUP2 DUP4 MCOPY PUSH0 DUP4 DUP4 ADD MSTORE POP POP POP JUMP JUMPDEST PUSH0 PUSH2 0xE00 DUP3 PUSH2 0xDCE JUMP JUMPDEST PUSH2 0xE0A DUP2 DUP6 PUSH2 0xDD8 JUMP JUMPDEST SWAP4 POP PUSH2 0xE1A DUP2 DUP6 PUSH1 0x20 DUP7 ADD PUSH2 0xDE8 JUMP JUMPDEST PUSH2 0xE23 DUP2 PUSH2 0xA57 JUMP JUMPDEST DUP5 ADD SWAP2 POP POP SWAP3 SWAP2 POP POP JUMP JUMPDEST PUSH2 0xE37 DUP2 PUSH2 0xD1F JUMP JUMPDEST DUP3 MSTORE POP POP JUMP JUMPDEST PUSH2 0xE46 DUP2 PUSH2 0xBD9 JUMP JUMPDEST DUP3 MSTORE POP POP JUMP JUMPDEST PUSH0 DUP2 ISZERO ISZERO SWAP1 POP SWAP2 SWAP1 POP JUMP JUMPDEST PUSH2 0xE60 DUP2 PUSH2 0xE4C JUMP JUMPDEST DUP3 MSTORE POP POP JUMP JUMPDEST PUSH0 PUSH1 0x80 DUP4 ADD PUSH0 DUP4 ADD MLOAD DUP5 DUP3 SUB PUSH0 DUP7 ADD MSTORE PUSH2 0xE80 DUP3 DUP3 PUSH2 0xDF6 JUMP JUMPDEST SWAP2 POP POP PUSH1 0x20 DUP4 ADD MLOAD PUSH2 0xE95 PUSH1 0x20 DUP7 ADD DUP3 PUSH2 0xE2E JUMP JUMPDEST POP PUSH1 0x40 DUP4 ADD MLOAD PUSH2 0xEA8 PUSH1 0x40 DUP7 ADD DUP3 PUSH2 0xE3D JUMP JUMPDEST POP PUSH1 0x60 DUP4 ADD MLOAD PUSH2 0xEBB PUSH1 0x60 DUP7 ADD DUP3 PUSH2 0xE57 JUMP JUMPDEST POP DUP1 SWAP2 POP POP SWAP3 SWAP2 POP POP JUMP JUMPDEST PUSH0 PUSH2 0xED1 DUP4 DUP4 PUSH2 0xE66 JUMP JUMPDEST SWAP1 POP SWAP3 SWAP2 POP POP JUMP JUMPDEST PUSH0 PUSH1 0x20 DUP3 ADD SWAP1 POP SWAP2 SWAP1 POP JUMP JUMPDEST PUSH0 PUSH2 0xEEF DUP3 PUSH2 0xDA5 JUMP JUMPDEST PUSH2 0xEF9 DUP2 DUP6 PUSH2 0xDAF JUMP JUMPDEST SWAP4 POP DUP4 PUSH1 0x20 DUP3 MUL DUP6 ADD PUSH2 0xF0B DUP6 PUSH2 0xDBF JUMP JUMPDEST DUP1 PUSH0 JUMPDEST DUP6 DUP2 LT ISZERO PUSH2 0xF46 JUMPI DUP5 DUP5 SUB DUP10 MSTORE DUP2 MLOAD PUSH2 0xF27 DUP6 DUP3 PUSH2 0xEC6 JUMP JUMPDEST SWAP5 POP PUSH2 0xF32 DUP4 PUSH2 0xED9 JUMP JUMPDEST SWAP3 POP PUSH1 0x20 DUP11 ADD SWAP10 POP POP PUSH1 0x1 DUP2 ADD SWAP1 POP PUSH2 0xF0E JUMP JUMPDEST POP DUP3 SWAP8 POP DUP8 SWAP6 POP POP POP POP POP POP SWAP3 SWAP2 POP POP JUMP JUMPDEST PUSH0 PUSH1 0x20 DUP3 ADD SWAP1 POP DUP2 DUP2 SUB PUSH0 DUP4 ADD MSTORE PUSH2 0xF70 DUP2 DUP5 PUSH2 0xEE5 JUMP JUMPDEST SWAP1 POP SWAP3 SWAP2 POP POP JUMP JUMPDEST PUSH0 DUP1 PUSH1 0x40 DUP4 DUP6 SUB SLT ISZERO PUSH2 0xF8E JUMPI PUSH2 0xF8D PUSH2 0xA47 JUMP JUMPDEST JUMPDEST PUSH0 PUSH2 0xF9B DUP6 DUP3 DUP7 ADD PUSH2 0xD66 JUMP JUMPDEST SWAP3 POP POP PUSH1 0x20 PUSH2 0xFAC DUP6 DUP3 DUP7 ADD PUSH2 0xC00 JUMP JUMPDEST SWAP2 POP POP SWAP3 POP SWAP3 SWAP1 POP JUMP JUMPDEST PUSH2 0xFBF DUP2 PUSH2 0xE4C JUMP JUMPDEST DUP3 MSTORE POP POP JUMP JUMPDEST PUSH0 PUSH1 0x20 DUP3 ADD SWAP1 POP PUSH2 0xFD8 PUSH0 DUP4 ADD DUP5 PUSH2 0xFB6 JUMP JUMPDEST SWAP3 SWAP2 POP POP JUMP JUMPDEST PUSH0 DUP3 DUP3 MSTORE PUSH1 0x20 DUP3 ADD SWAP1 POP SWAP3 SWAP2 POP POP JUMP JUMPDEST PUSH0 PUSH2 0xFF8 DUP3 PUSH2 0xDCE JUMP JUMPDEST PUSH2 0x1002 DUP2 DUP6 PUSH2 0xFDE JUMP JUMPDEST SWAP4 POP PUSH2 0x1012 DUP2 DUP6 PUSH1 0x20 DUP7 ADD PUSH2 0xDE8 JUMP JUMPDEST PUSH2 0x101B DUP2 PUSH2 0xA57 JUMP JUMPDEST DUP5 ADD SWAP2 POP POP SWAP3 SWAP2 POP POP JUMP JUMPDEST PUSH0 PUSH1 0x40 DUP3 ADD SWAP1 POP DUP2 DUP2 SUB PUSH0 DUP4 ADD MSTORE PUSH2 0x103E DUP2 DUP6 PUSH2 0xFEE JUMP JUMPDEST SWAP1 POP PUSH2 0x104D PUSH1 0x20 DUP4 ADD DUP5 PUSH2 0xD28 JUMP JUMPDEST SWAP4 SWAP3 POP POP POP JUMP JUMPDEST PUSH0 DUP1 PUSH0 PUSH1 0x60 DUP5 DUP7 SUB SLT ISZERO PUSH2 0x106B JUMPI PUSH2 0x106A PUSH2 0xA47 JUMP JUMPDEST JUMPDEST PUSH0 PUSH2 0x1078 DUP7 DUP3 DUP8 ADD PUSH2 0xD66 JUMP JUMPDEST SWAP4 POP POP PUSH1 0x20 DUP5 ADD CALLDATALOAD PUSH8 0xFFFFFFFFFFFFFFFF DUP2 GT ISZERO PUSH2 0x1099 JUMPI PUSH2 0x1098 PUSH2 0xA4B JUMP JUMPDEST JUMPDEST PUSH2 0x10A5 DUP7 DUP3 DUP8 ADD PUSH2 0xB5E JUMP JUMPDEST SWAP3 POP POP PUSH1 0x40 PUSH2 0x10B6 DUP7 DUP3 DUP8 ADD PUSH2 0xD66 JUMP JUMPDEST SWAP2 POP POP SWAP3 POP SWAP3 POP SWAP3 JUMP JUMPDEST PUSH32 0x4C697374206E616D652063616E6E6F7420626520656D70747900000000000000 PUSH0 DUP3 ADD MSTORE POP JUMP JUMPDEST PUSH0 PUSH2 0x10F4 PUSH1 0x19 DUP4 PUSH2 0xFDE JUMP JUMPDEST SWAP2 POP PUSH2 0x10FF DUP3 PUSH2 0x10C0 JUMP JUMPDEST PUSH1 0x20 DUP3 ADD SWAP1 POP SWAP2 SWAP1 POP JUMP JUMPDEST PUSH0 PUSH1 0x20 DUP3 ADD SWAP1 POP DUP2 DUP2 SUB PUSH0 DUP4 ADD MSTORE PUSH2 0x1121 DUP2 PUSH2 0x10E8 JUMP JUMPDEST SWAP1 POP SWAP2 SWAP1 POP JUMP JUMPDEST PUSH32 0x4174206C65617374206F6E65206D656D62657220697320726571756972656400 PUSH0 DUP3 ADD MSTORE POP JUMP JUMPDEST PUSH0 PUSH2 0x115C PUSH1 0x1F DUP4 PUSH2 0xFDE JUMP JUMPDEST SWAP2 POP PUSH2 0x1167 DUP3 PUSH2 0x1128 JUMP JUMPDEST PUSH1 0x20 DUP3 ADD SWAP1 POP SWAP2 SWAP1 POP JUMP JUMPDEST PUSH0 PUSH1 0x20 DUP3 ADD SWAP1 POP DUP2 DUP2 SUB PUSH0 DUP4 ADD MSTORE PUSH2 0x1189 DUP2 PUSH2 0x1150 JUMP JUMPDEST SWAP1 POP SWAP2 SWAP1 POP JUMP JUMPDEST PUSH32 0x4E487B7100000000000000000000000000000000000000000000000000000000 PUSH0 MSTORE PUSH1 0x22 PUSH1 0x4 MSTORE PUSH1 0x24 PUSH0 REVERT JUMPDEST PUSH0 PUSH1 0x2 DUP3 DIV SWAP1 POP PUSH1 0x1 DUP3 AND DUP1 PUSH2 0x11D4 JUMPI PUSH1 0x7F DUP3 AND SWAP2 POP JUMPDEST PUSH1 0x20 DUP3 LT DUP2 SUB PUSH2 0x11E7 JUMPI PUSH2 0x11E6 PUSH2 0x1190 JUMP JUMPDEST JUMPDEST POP SWAP2 SWAP1 POP JUMP JUMPDEST PUSH0 DUP2 SWAP1 POP DUP2 PUSH0 MSTORE PUSH1 0x20 PUSH0 KECCAK256 SWAP1 POP SWAP2 SWAP1 POP JUMP JUMPDEST PUSH0 PUSH1 0x20 PUSH1 0x1F DUP4 ADD DIV SWAP1 POP SWAP2 SWAP1 POP JUMP JUMPDEST PUSH0 DUP3 DUP3 SHL SWAP1 POP SWAP3 SWAP2 POP POP JUMP JUMPDEST PUSH0 PUSH1 0x8 DUP4 MUL PUSH2 0x1249 PUSH32 0xFFFFFFFFFFFFFFFFFFFFFFFFFFFFFFFFFFFFFFFFFFFFFFFFFFFFFFFFFFFFFFFF DUP3 PUSH2 0x120E JUMP JUMPDEST PUSH2 0x1253 DUP7 DUP4 PUSH2 0x120E JUMP JUMPDEST SWAP6 POP DUP1 NOT DUP5 AND SWAP4 POP DUP1 DUP7 AND DUP5 OR SWAP3 POP POP POP SWAP4 SWAP3 POP POP POP JUMP JUMPDEST PUSH0 DUP2 SWAP1 POP SWAP2 SWAP1 POP JUMP JUMPDEST PUSH0 PUSH2 0x128E PUSH2 0x1289 PUSH2 0x1284 DUP5 PUSH2 0xD1F JUMP JUMPDEST PUSH2 0x126B JUMP JUMPDEST PUSH2 0xD1F JUMP JUMPDEST SWAP1 POP SWAP2 SWAP1 POP JUMP JUMPDEST PUSH0 DUP2 SWAP1 POP SWAP2 SWAP1 POP JUMP JUMPDEST PUSH2 0x12A7 DUP4 PUSH2 0x1274 JUMP JUMPDEST PUSH2 0x12BB PUSH2 0x12B3 DUP3 PUSH2 0x1295 JUMP JUMPDEST DUP5 DUP5 SLOAD PUSH2 0x121A JUMP JUMPDEST DUP3 SSTORE POP POP POP POP JUMP JUMPDEST PUSH0 SWAP1 JUMP JUMPDEST PUSH2 0x12CF PUSH2 0x12C3 JUMP JUMPDEST PUSH2 0x12DA DUP2 DUP5 DUP5 PUSH2 0x129E JUMP JUMPDEST POP POP POP JUMP JUMPDEST JUMPDEST DUP2 DUP2 LT ISZERO PUSH2 0x12FD JUMPI PUSH2 0x12F2 PUSH0 DUP3 PUSH2 0x12C7 JUMP JUMPDEST PUSH1 0x1 DUP2 ADD SWAP1 POP PUSH2 0x12E0 JUMP JUMPDEST POP POP JUMP JUMPDEST PUSH1 0x1F DUP3 GT ISZERO PUSH2 0x1342 JUMPI PUSH2 0x1313 DUP2 PUSH2 0x11ED JUMP JUMPDEST PUSH2 0x131C DUP5 PUSH2 0x11FF JUMP JUMPDEST DUP2 ADD PUSH1 0x20 DUP6 LT ISZERO PUSH2 0x132B JUMPI DUP2 SWAP1 POP JUMPDEST PUSH2 0x133F PUSH2 0x1337 DUP6 PUSH2 0x11FF JUMP JUMPDEST DUP4 ADD DUP3 PUSH2 0x12DF JUMP JUMPDEST POP POP JUMPDEST POP POP POP JUMP JUMPDEST PUSH0 DUP3 DUP3 SHR SWAP1 POP SWAP3 SWAP2 POP POP JUMP JUMPDEST PUSH0 PUSH2 0x1362 PUSH0 NOT DUP5 PUSH1 0x8 MUL PUSH2 0x1347 JUMP JUMPDEST NOT DUP1 DUP4 AND SWAP2 POP POP SWAP3 SWAP2 POP POP JUMP JUMPDEST PUSH0 PUSH2 0x137A DUP4 DUP4 PUSH2 0x1353 JUMP JUMPDEST SWAP2 POP DUP3 PUSH1 0x2 MUL DUP3 OR SWAP1 POP SWAP3 SWAP2 POP POP JUMP JUMPDEST PUSH2 0x1393 DUP3 PUSH2 0xDCE JUMP JUMPDEST PUSH8 0xFFFFFFFFFFFFFFFF DUP2 GT ISZERO PUSH2 0x13AC JUMPI PUSH2 0x13AB PUSH2 0xA67 JUMP JUMPDEST JUMPDEST PUSH2 0x13B6 DUP3 SLOAD PUSH2 0x11BD JUMP JUMPDEST PUSH2 0x13C1 DUP3 DUP3 DUP6 PUSH2 0x1301 JUMP JUMPDEST PUSH0 PUSH1 0x20 SWAP1 POP PUSH1 0x1F DUP4 GT PUSH1 0x1 DUP2 EQ PUSH2 0x13F2 JUMPI PUSH0 DUP5 ISZERO PUSH2 0x13E0 JUMPI DUP3 DUP8 ADD MLOAD SWAP1 POP JUMPDEST PUSH2 0x13EA DUP6 DUP3 PUSH2 0x136F JUMP JUMPDEST DUP7 SSTORE POP PUSH2 0x1451 JUMP JUMPDEST PUSH1 0x1F NOT DUP5 AND PUSH2 0x1400 DUP7 PUSH2 0x11ED JUMP JUMPDEST PUSH0 JUMPDEST DUP3 DUP2 LT ISZERO PUSH2 0x1427 JUMPI DUP5 DUP10 ADD MLOAD DUP3 SSTORE PUSH1 0x1 DUP3 ADD SWAP2 POP PUSH1 0x20 DUP6 ADD SWAP5 POP PUSH1 0x20 DUP2 ADD SWAP1 POP PUSH2 0x1402 JUMP JUMPDEST DUP7 DUP4 LT ISZERO PUSH2 0x1444 JUMPI DUP5 DUP10 ADD MLOAD PUSH2 0x1440 PUSH1 0x1F DUP10 AND DUP3 PUSH2 0x1353 JUMP JUMPDEST DUP4 SSTORE POP JUMPDEST PUSH1 0x1 PUSH1 0x2 DUP9 MUL ADD DUP9 SSTORE POP POP POP JUMPDEST POP POP POP POP POP POP JUMP JUMPDEST PUSH32 0x4E487B7100000000000000000000000000000000000000000000000000000000 PUSH0 MSTORE PUSH1 0x32 PUSH1 0x4 MSTORE PUSH1 0x24 PUSH0 REVERT JUMPDEST PUSH0 PUSH1 0x20 DUP3 ADD SWAP1 POP DUP2 DUP2 SUB PUSH0 DUP4 ADD MSTORE PUSH2 0x149E DUP2 DUP5 PUSH2 0xFEE JUMP JUMPDEST SWAP1 POP SWAP3 SWAP2 POP POP JUMP JUMPDEST PUSH32 0x496E76616C6964206C6973742049440000000000000000000000000000000000 PUSH0 DUP3 ADD MSTORE POP JUMP JUMPDEST PUSH0 PUSH2 0x14DA PUSH1 0xF DUP4 PUSH2 0xFDE JUMP JUMPDEST SWAP2 POP PUSH2 0x14E5 DUP3 PUSH2 0x14A6 JUMP JUMPDEST PUSH1 0x20 DUP3 ADD SWAP1 POP SWAP2 SWAP1 POP JUMP JUMPDEST PUSH0 PUSH1 0x20 DUP3 ADD SWAP1 POP DUP2 DUP2 SUB PUSH0 DUP4 ADD MSTORE PUSH2 0x1507 DUP2 PUSH2 0x14CE JUMP JUMPDEST SWAP1 POP SWAP2 SWAP1 POP JUMP JUMPDEST PUSH32 0x596F7520646F206E6F7420686176652061636365737320746F2074686973206C PUSH0 DUP3 ADD MSTORE PUSH32 0x6973740000000000000000000000000000000000000000000000000000000000 PUSH1 0x20 DUP3 ADD MSTORE POP JUMP JUMPDEST PUSH0 PUSH2 0x1568 PUSH1 0x23 DUP4 PUSH2 0xFDE JUMP JUMPDEST SWAP2 POP PUSH2 0x1573 DUP3 PUSH2 0x150E JUMP JUMPDEST PUSH1 0x40 DUP3 ADD SWAP1 POP SWAP2 SWAP1 POP JUMP JUMPDEST PUSH0 PUSH1 0x20 DUP3 ADD SWAP1 POP DUP2 DUP2 SUB PUSH0 DUP4 ADD MSTORE PUSH2 0x1595 DUP2 PUSH2 0x155C JUMP JUMPDEST SWAP1 POP SWAP2 SWAP1 POP JUMP JUMPDEST PUSH32 0x4974656D206E616D652063616E6E6F7420626520656D70747900000000000000 PUSH0 DUP3 ADD MSTORE POP JUMP JUMPDEST PUSH0 PUSH2 0x15D0 PUSH1 0x19 DUP4 PUSH2 0xFDE JUMP JUMPDEST SWAP2 POP PUSH2 0x15DB DUP3 PUSH2 0x159C JUMP JUMPDEST PUSH1 0x20 DUP3 ADD SWAP1 POP SWAP2 SWAP1 POP JUMP JUMPDEST PUSH0 PUSH1 0x20 DUP3 ADD SWAP1 POP DUP2 DUP2 SUB PUSH0 DUP4 ADD MSTORE PUSH2 0x15FD DUP2 PUSH2 0x15C4 JUMP JUMPDEST SWAP1 POP SWAP2 SWAP1 POP JUMP JUMPDEST PUSH32 0x5175616E74697479206D7573742062652067726561746572207468616E207A65 PUSH0 DUP3 ADD MSTORE PUSH32 0x726F000000000000000000000000000000000000000000000000000000000000 PUSH1 0x20 DUP3 ADD MSTORE POP JUMP JUMPDEST PUSH0 PUSH2 0x165E PUSH1 0x22 DUP4 PUSH2 0xFDE JUMP JUMPDEST SWAP2 POP PUSH2 0x1669 DUP3 PUSH2 0x1604 JUMP JUMPDEST PUSH1 0x40 DUP3 ADD SWAP1 POP SWAP2 SWAP1 POP JUMP JUMPDEST PUSH0 PUSH1 0x20 DUP3 ADD SWAP1 POP DUP2 DUP2 SUB PUSH0 DUP4 ADD MSTORE PUSH2 0x168B DUP2 PUSH2 0x1652 JUMP JUMPDEST SWAP1 POP SWAP2 SWAP1 POP JUMP JUMPDEST PUSH32 0x4E487B7100000000000000000000000000000000000000000000000000000000 PUSH0 MSTORE PUSH1 0x11 PUSH1 0x4 MSTORE PUSH1 0x24 PUSH0 REVERT JUMPDEST PUSH0 PUSH2 0x16C9 DUP3 PUSH2 0xD1F JUMP JUMPDEST SWAP2 POP PUSH32 0xFFFFFFFFFFFFFFFFFFFFFFFFFFFFFFFFFFFFFFFFFFFFFFFFFFFFFFFFFFFFFFFF DUP3 SUB PUSH2 0x16FB JUMPI PUSH2 0x16FA PUSH2 0x1692 JUMP JUMPDEST JUMPDEST PUSH1 0x1 DUP3 ADD SWAP1 POP SWAP2 SWAP1 POP JUMP INVALID LOG2 PUSH5 0x6970667358 0x22 SLT KECCAK256 0xBA PUSH30 0x826B80D665A1304DE29ED4E40CEE0266401B36C83E2DFB773C70B9713A24 PUSH5 0x736F6C6343 STOP ADDMOD BYTE STOP CALLER "
				},
				"gasEstimates": {
					"creation": {
						"codeDepositCost": "1189600",
						"executionCost": "1232",
						"totalCost": "1190832"
					},
					"external": {
						"addItemToList(uint256,string,uint256)": "infinite",
						"createShoppingList(string,address[])": "infinite",
						"getListItems(uint256)": "infinite",
						"listAccess(uint256,address)": "3093",
						"sharedLists(uint256)": "infinite"
					}
				},
				"methodIdentifiers": {
					"addItemToList(uint256,string,uint256)": "ffe33669",
					"createShoppingList(string,address[])": "1c7be33a",
					"getListItems(uint256)": "55adb521",
					"listAccess(uint256,address)": "971bb8a5",
					"sharedLists(uint256)": "ff7920d7"
				}
			},
			"storageLayout": {
				"storage": [
					{
						"astId": 27,
						"contract": "project-04/contracts/contract.sol:SharedShoppingList",
						"label": "sharedLists",
						"offset": 0,
						"slot": "0",
						"type": "t_array(t_struct(ShoppingList)23_storage)dyn_storage"
					},
					{
						"astId": 33,
						"contract": "project-04/contracts/contract.sol:SharedShoppingList",
						"label": "listAccess",
						"offset": 0,
						"slot": "1",
						"type": "t_mapping(t_uint256,t_mapping(t_address,t_bool))"
					}
				],
				"types": {
					"t_address": {
						"encoding": "inplace",
						"label": "address",
						"numberOfBytes": "20"
					},
					"t_array(t_address)dyn_storage": {
						"base": "t_address",
						"encoding": "dynamic_array",
						"label": "address[]",
						"numberOfBytes": "32"
					},
					"t_array(t_struct(ShoppingList)23_storage)dyn_storage": {
						"base": "t_struct(ShoppingList)23_storage",
						"encoding": "dynamic_array",
						"label": "struct SharedShoppingList.ShoppingList[]",
						"numberOfBytes": "32"
					},
					"t_bool": {
						"encoding": "inplace",
						"label": "bool",
						"numberOfBytes": "1"
					},
					"t_mapping(t_address,t_bool)": {
						"encoding": "mapping",
						"key": "t_address",
						"label": "mapping(address => bool)",
						"numberOfBytes": "32",
						"value": "t_bool"
					},
					"t_mapping(t_uint256,t_mapping(t_address,t_bool))": {
						"encoding": "mapping",
						"key": "t_uint256",
						"label": "mapping(uint256 => mapping(address => bool))",
						"numberOfBytes": "32",
						"value": "t_mapping(t_address,t_bool)"
					},
					"t_mapping(t_uint256,t_struct(ListItem)10_storage)": {
						"encoding": "mapping",
						"key": "t_uint256",
						"label": "mapping(uint256 => struct SharedShoppingList.ListItem)",
						"numberOfBytes": "32",
						"value": "t_struct(ListItem)10_storage"
					},
					"t_string_storage": {
						"encoding": "bytes",
						"label": "string",
						"numberOfBytes": "32"
					},
					"t_struct(ListItem)10_storage": {
						"encoding": "inplace",
						"label": "struct SharedShoppingList.ListItem",
						"members": [
							{
								"astId": 3,
								"contract": "project-04/contracts/contract.sol:SharedShoppingList",
								"label": "name",
								"offset": 0,
								"slot": "0",
								"type": "t_string_storage"
							},
							{
								"astId": 5,
								"contract": "project-04/contracts/contract.sol:SharedShoppingList",
								"label": "quantity",
								"offset": 0,
								"slot": "1",
								"type": "t_uint256"
							},
							{
								"astId": 7,
								"contract": "project-04/contracts/contract.sol:SharedShoppingList",
								"label": "addedBy",
								"offset": 0,
								"slot": "2",
								"type": "t_address"
							},
							{
								"astId": 9,
								"contract": "project-04/contracts/contract.sol:SharedShoppingList",
								"label": "isPurchased",
								"offset": 20,
								"slot": "2",
								"type": "t_bool"
							}
						],
						"numberOfBytes": "96"
					},
					"t_struct(ShoppingList)23_storage": {
						"encoding": "inplace",
						"label": "struct SharedShoppingList.ShoppingList",
						"members": [
							{
								"astId": 12,
								"contract": "project-04/contracts/contract.sol:SharedShoppingList",
								"label": "listName",
								"offset": 0,
								"slot": "0",
								"type": "t_string_storage"
							},
							{
								"astId": 15,
								"contract": "project-04/contracts/contract.sol:SharedShoppingList",
								"label": "members",
								"offset": 0,
								"slot": "1",
								"type": "t_array(t_address)dyn_storage"
							},
							{
								"astId": 17,
								"contract": "project-04/contracts/contract.sol:SharedShoppingList",
								"label": "itemCount",
								"offset": 0,
								"slot": "2",
								"type": "t_uint256"
							},
							{
								"astId": 22,
								"contract": "project-04/contracts/contract.sol:SharedShoppingList",
								"label": "items",
								"offset": 0,
								"slot": "3",
								"type": "t_mapping(t_uint256,t_struct(ListItem)10_storage)"
							}
						],
						"numberOfBytes": "128"
					},
					"t_uint256": {
						"encoding": "inplace",
						"label": "uint256",
						"numberOfBytes": "32"
					}
				}
			},
			"userdoc": {
				"kind": "user",
				"methods": {},
				"version": 1
			}
		}
	}
}